{
	"data": {
		"bytecode": {
			"linkReferences": {},
			"object": "608060405234801561001057600080fd5b506109d1806100206000396000f3fe608060405260043610610112576000357c0100000000000000000000000000000000000000000000000000000000900463ffffffff16806305f2edc614610117578063158f4314146101465780631a67fa3d1461015d5780632a8134751461017457806338f992eb146101a35780633ca2d2bc1461022f5780633ddced641461028b5780634cd66e3f146102b657806363a60c1c146102e15780637d4665761461030c5780637f75bb4614610345578063808aef881461035c57806388e56b3414610395578063a113efa3146103c0578063adccea12146103eb578063bd0afe3314610416578063c41357f914610441578063cca502e51461047a578063d2bca164146104b3578063eaeee4ac146104e2575b600080fd5b34801561012357600080fd5b5061012c61050d565b604051808215151515815260200191505060405180910390f35b34801561015257600080fd5b5061015b610520565b005b34801561016957600080fd5b50610172610723565b005b34801561018057600080fd5b506101896107c4565b604051808215151515815260200191505060405180910390f35b3480156101af57600080fd5b5061022d60048036036101208110156101c757600080fd5b810190808035906020019092919080359060200190929190803590602001909291908035906020019092919080359060200190929190803590602001909291908035906020019092919080359060200190929190803590602001909291905050506107d7565b005b34801561023b57600080fd5b50610244610821565b604051808981526020018881526020018781526020018681526020018581526020018481526020018381526020018281526020019850505050505050505060405180910390f35b34801561029757600080fd5b506102a061085f565b6040518082815260200191505060405180910390f35b3480156102c257600080fd5b506102cb610865565b6040518082815260200191505060405180910390f35b3480156102ed57600080fd5b506102f661086b565b6040518082815260200191505060405180910390f35b34801561031857600080fd5b50610321610871565b6040518082600181111561033157fe5b60ff16815260200191505060405180910390f35b34801561035157600080fd5b5061035a610890565b005b34801561036857600080fd5b50610371610917565b6040518082600181111561038157fe5b60ff16815260200191505060405180910390f35b3480156103a157600080fd5b506103aa610936565b6040518082815260200191505060405180910390f35b3480156103cc57600080fd5b506103d561093c565b6040518082815260200191505060405180910390f35b3480156103f757600080fd5b50610400610942565b6040518082815260200191505060405180910390f35b34801561042257600080fd5b5061042b610948565b6040518082815260200191505060405180910390f35b34801561044d57600080fd5b5061045661094e565b6040518082600181111561046657fe5b60ff16815260200191505060405180910390f35b34801561048657600080fd5b5061048f61096d565b6040518082600181111561049f57fe5b60ff16815260200191505060405180910390f35b3480156104bf57600080fd5b506104c861098c565b604051808215151515815260200191505060405180910390f35b3480156104ee57600080fd5b506104f761099f565b6040518082815260200191505060405180910390f35b600960029054906101000a900460ff1681565b600654600554600454010160038190555060025460035411156105ed576000600960006101000a81548160ff0219169083151502179055506001600960036101000a81548160ff0219169083600181111561057757fe5b02179055506001600960046101000a81548160ff0219169083600181111561059b57fe5b02179055506001600960056101000a81548160ff021916908360018111156105bf57fe5b02179055506001600960066101000a81548160ff021916908360018111156105e357fe5b0217905550610721565b600254600354101561072057601c60005411801561060d5750601e600154115b1561065f576000600960036101000a81548160ff0219169083600181111561063157fe5b02179055506001600960046101000a81548160ff0219169083600181111561065557fe5b021790555061070f565b601c6000541080156106735750601e600154105b156106c5576001600960036101000a81548160ff0219169083600181111561069757fe5b02179055506000600960046101000a81548160ff021916908360018111156106bb57fe5b021790555061070e565b6000600960036101000a81548160ff021916908360018111156106e457fe5b02179055506000600960046101000a81548160ff0219169083600181111561070857fe5b02179055505b5b610717610890565b61071f610723565b5b5b565b60156008541015801561073857506008805411155b80156107475750601460075411155b15610775576000600960066101000a81548160ff0219169083600181111561076b57fe5b02179055506107c2565b6015600854108015610788575060088054115b80156107975750605060075410155b156107c1576001600960066101000a81548160ff021916908360018111156107bb57fe5b02179055505b5b565b600960009054906101000a900460ff1681565b886000819055508760018190555084600881905550866002819055508360048190555082600581905550816006819055508060078190555085600381905550505050505050505050565b600080600080600080600080600054600154600854600254600454600554600654600754975097509750975097509750975097509091929394959697565b60055481565b60075481565b60045481565b600061087b610723565b600960069054906101000a900460ff16905090565b600a600854101580156108a65750601260085411155b156108d4576000600960056101000a81548160ff021916908360018111156108ca57fe5b0217905550610915565b600a600854111580156108ea5750601260085410155b15610914576001600960056101000a81548160ff0219169083600181111561090e57fe5b02179055505b5b565b6000610921610890565b600960059054906101000a900460ff16905090565b60035481565b60015481565b60005481565b60025481565b6000610958610520565b600960049054906101000a900460ff16905090565b6000610977610520565b600960039054906101000a900460ff16905090565b600960019054906101000a900460ff1681565b6006548156fea165627a7a72305820c9b175dbee3e381ee6404193e90e9c02adaf7a02c57ecb8b57379417c976ebbb0029",
			"opcodes": "PUSH1 0x80 PUSH1 0x40 MSTORE CALLVALUE DUP1 ISZERO PUSH2 0x10 JUMPI PUSH1 0x0 DUP1 REVERT JUMPDEST POP PUSH2 0x9D1 DUP1 PUSH2 0x20 PUSH1 0x0 CODECOPY PUSH1 0x0 RETURN INVALID PUSH1 0x80 PUSH1 0x40 MSTORE PUSH1 0x4 CALLDATASIZE LT PUSH2 0x112 JUMPI PUSH1 0x0 CALLDATALOAD PUSH29 0x100000000000000000000000000000000000000000000000000000000 SWAP1 DIV PUSH4 0xFFFFFFFF AND DUP1 PUSH4 0x5F2EDC6 EQ PUSH2 0x117 JUMPI DUP1 PUSH4 0x158F4314 EQ PUSH2 0x146 JUMPI DUP1 PUSH4 0x1A67FA3D EQ PUSH2 0x15D JUMPI DUP1 PUSH4 0x2A813475 EQ PUSH2 0x174 JUMPI DUP1 PUSH4 0x38F992EB EQ PUSH2 0x1A3 JUMPI DUP1 PUSH4 0x3CA2D2BC EQ PUSH2 0x22F JUMPI DUP1 PUSH4 0x3DDCED64 EQ PUSH2 0x28B JUMPI DUP1 PUSH4 0x4CD66E3F EQ PUSH2 0x2B6 JUMPI DUP1 PUSH4 0x63A60C1C EQ PUSH2 0x2E1 JUMPI DUP1 PUSH4 0x7D466576 EQ PUSH2 0x30C JUMPI DUP1 PUSH4 0x7F75BB46 EQ PUSH2 0x345 JUMPI DUP1 PUSH4 0x808AEF88 EQ PUSH2 0x35C JUMPI DUP1 PUSH4 0x88E56B34 EQ PUSH2 0x395 JUMPI DUP1 PUSH4 0xA113EFA3 EQ PUSH2 0x3C0 JUMPI DUP1 PUSH4 0xADCCEA12 EQ PUSH2 0x3EB JUMPI DUP1 PUSH4 0xBD0AFE33 EQ PUSH2 0x416 JUMPI DUP1 PUSH4 0xC41357F9 EQ PUSH2 0x441 JUMPI DUP1 PUSH4 0xCCA502E5 EQ PUSH2 0x47A JUMPI DUP1 PUSH4 0xD2BCA164 EQ PUSH2 0x4B3 JUMPI DUP1 PUSH4 0xEAEEE4AC EQ PUSH2 0x4E2 JUMPI JUMPDEST PUSH1 0x0 DUP1 REVERT JUMPDEST CALLVALUE DUP1 ISZERO PUSH2 0x123 JUMPI PUSH1 0x0 DUP1 REVERT JUMPDEST POP PUSH2 0x12C PUSH2 0x50D JUMP JUMPDEST PUSH1 0x40 MLOAD DUP1 DUP3 ISZERO ISZERO ISZERO ISZERO DUP2 MSTORE PUSH1 0x20 ADD SWAP2 POP POP PUSH1 0x40 MLOAD DUP1 SWAP2 SUB SWAP1 RETURN JUMPDEST CALLVALUE DUP1 ISZERO PUSH2 0x152 JUMPI PUSH1 0x0 DUP1 REVERT JUMPDEST POP PUSH2 0x15B PUSH2 0x520 JUMP JUMPDEST STOP JUMPDEST CALLVALUE DUP1 ISZERO PUSH2 0x169 JUMPI PUSH1 0x0 DUP1 REVERT JUMPDEST POP PUSH2 0x172 PUSH2 0x723 JUMP JUMPDEST STOP JUMPDEST CALLVALUE DUP1 ISZERO PUSH2 0x180 JUMPI PUSH1 0x0 DUP1 REVERT JUMPDEST POP PUSH2 0x189 PUSH2 0x7C4 JUMP JUMPDEST PUSH1 0x40 MLOAD DUP1 DUP3 ISZERO ISZERO ISZERO ISZERO DUP2 MSTORE PUSH1 0x20 ADD SWAP2 POP POP PUSH1 0x40 MLOAD DUP1 SWAP2 SUB SWAP1 RETURN JUMPDEST CALLVALUE DUP1 ISZERO PUSH2 0x1AF JUMPI PUSH1 0x0 DUP1 REVERT JUMPDEST POP PUSH2 0x22D PUSH1 0x4 DUP1 CALLDATASIZE SUB PUSH2 0x120 DUP2 LT ISZERO PUSH2 0x1C7 JUMPI PUSH1 0x0 DUP1 REVERT JUMPDEST DUP2 ADD SWAP1 DUP1 DUP1 CALLDATALOAD SWAP1 PUSH1 0x20 ADD SWAP1 SWAP3 SWAP2 SWAP1 DUP1 CALLDATALOAD SWAP1 PUSH1 0x20 ADD SWAP1 SWAP3 SWAP2 SWAP1 DUP1 CALLDATALOAD SWAP1 PUSH1 0x20 ADD SWAP1 SWAP3 SWAP2 SWAP1 DUP1 CALLDATALOAD SWAP1 PUSH1 0x20 ADD SWAP1 SWAP3 SWAP2 SWAP1 DUP1 CALLDATALOAD SWAP1 PUSH1 0x20 ADD SWAP1 SWAP3 SWAP2 SWAP1 DUP1 CALLDATALOAD SWAP1 PUSH1 0x20 ADD SWAP1 SWAP3 SWAP2 SWAP1 DUP1 CALLDATALOAD SWAP1 PUSH1 0x20 ADD SWAP1 SWAP3 SWAP2 SWAP1 DUP1 CALLDATALOAD SWAP1 PUSH1 0x20 ADD SWAP1 SWAP3 SWAP2 SWAP1 DUP1 CALLDATALOAD SWAP1 PUSH1 0x20 ADD SWAP1 SWAP3 SWAP2 SWAP1 POP POP POP PUSH2 0x7D7 JUMP JUMPDEST STOP JUMPDEST CALLVALUE DUP1 ISZERO PUSH2 0x23B JUMPI PUSH1 0x0 DUP1 REVERT JUMPDEST POP PUSH2 0x244 PUSH2 0x821 JUMP JUMPDEST PUSH1 0x40 MLOAD DUP1 DUP10 DUP2 MSTORE PUSH1 0x20 ADD DUP9 DUP2 MSTORE PUSH1 0x20 ADD DUP8 DUP2 MSTORE PUSH1 0x20 ADD DUP7 DUP2 MSTORE PUSH1 0x20 ADD DUP6 DUP2 MSTORE PUSH1 0x20 ADD DUP5 DUP2 MSTORE PUSH1 0x20 ADD DUP4 DUP2 MSTORE PUSH1 0x20 ADD DUP3 DUP2 MSTORE PUSH1 0x20 ADD SWAP9 POP POP POP POP POP POP POP POP POP PUSH1 0x40 MLOAD DUP1 SWAP2 SUB SWAP1 RETURN JUMPDEST CALLVALUE DUP1 ISZERO PUSH2 0x297 JUMPI PUSH1 0x0 DUP1 REVERT JUMPDEST POP PUSH2 0x2A0 PUSH2 0x85F JUMP JUMPDEST PUSH1 0x40 MLOAD DUP1 DUP3 DUP2 MSTORE PUSH1 0x20 ADD SWAP2 POP POP PUSH1 0x40 MLOAD DUP1 SWAP2 SUB SWAP1 RETURN JUMPDEST CALLVALUE DUP1 ISZERO PUSH2 0x2C2 JUMPI PUSH1 0x0 DUP1 REVERT JUMPDEST POP PUSH2 0x2CB PUSH2 0x865 JUMP JUMPDEST PUSH1 0x40 MLOAD DUP1 DUP3 DUP2 MSTORE PUSH1 0x20 ADD SWAP2 POP POP PUSH1 0x40 MLOAD DUP1 SWAP2 SUB SWAP1 RETURN JUMPDEST CALLVALUE DUP1 ISZERO PUSH2 0x2ED JUMPI PUSH1 0x0 DUP1 REVERT JUMPDEST POP PUSH2 0x2F6 PUSH2 0x86B JUMP JUMPDEST PUSH1 0x40 MLOAD DUP1 DUP3 DUP2 MSTORE PUSH1 0x20 ADD SWAP2 POP POP PUSH1 0x40 MLOAD DUP1 SWAP2 SUB SWAP1 RETURN JUMPDEST CALLVALUE DUP1 ISZERO PUSH2 0x318 JUMPI PUSH1 0x0 DUP1 REVERT JUMPDEST POP PUSH2 0x321 PUSH2 0x871 JUMP JUMPDEST PUSH1 0x40 MLOAD DUP1 DUP3 PUSH1 0x1 DUP2 GT ISZERO PUSH2 0x331 JUMPI INVALID JUMPDEST PUSH1 0xFF AND DUP2 MSTORE PUSH1 0x20 ADD SWAP2 POP POP PUSH1 0x40 MLOAD DUP1 SWAP2 SUB SWAP1 RETURN JUMPDEST CALLVALUE DUP1 ISZERO PUSH2 0x351 JUMPI PUSH1 0x0 DUP1 REVERT JUMPDEST POP PUSH2 0x35A PUSH2 0x890 JUMP JUMPDEST STOP JUMPDEST CALLVALUE DUP1 ISZERO PUSH2 0x368 JUMPI PUSH1 0x0 DUP1 REVERT JUMPDEST POP PUSH2 0x371 PUSH2 0x917 JUMP JUMPDEST PUSH1 0x40 MLOAD DUP1 DUP3 PUSH1 0x1 DUP2 GT ISZERO PUSH2 0x381 JUMPI INVALID JUMPDEST PUSH1 0xFF AND DUP2 MSTORE PUSH1 0x20 ADD SWAP2 POP POP PUSH1 0x40 MLOAD DUP1 SWAP2 SUB SWAP1 RETURN JUMPDEST CALLVALUE DUP1 ISZERO PUSH2 0x3A1 JUMPI PUSH1 0x0 DUP1 REVERT JUMPDEST POP PUSH2 0x3AA PUSH2 0x936 JUMP JUMPDEST PUSH1 0x40 MLOAD DUP1 DUP3 DUP2 MSTORE PUSH1 0x20 ADD SWAP2 POP POP PUSH1 0x40 MLOAD DUP1 SWAP2 SUB SWAP1 RETURN JUMPDEST CALLVALUE DUP1 ISZERO PUSH2 0x3CC JUMPI PUSH1 0x0 DUP1 REVERT JUMPDEST POP PUSH2 0x3D5 PUSH2 0x93C JUMP JUMPDEST PUSH1 0x40 MLOAD DUP1 DUP3 DUP2 MSTORE PUSH1 0x20 ADD SWAP2 POP POP PUSH1 0x40 MLOAD DUP1 SWAP2 SUB SWAP1 RETURN JUMPDEST CALLVALUE DUP1 ISZERO PUSH2 0x3F7 JUMPI PUSH1 0x0 DUP1 REVERT JUMPDEST POP PUSH2 0x400 PUSH2 0x942 JUMP JUMPDEST PUSH1 0x40 MLOAD DUP1 DUP3 DUP2 MSTORE PUSH1 0x20 ADD SWAP2 POP POP PUSH1 0x40 MLOAD DUP1 SWAP2 SUB SWAP1 RETURN JUMPDEST CALLVALUE DUP1 ISZERO PUSH2 0x422 JUMPI PUSH1 0x0 DUP1 REVERT JUMPDEST POP PUSH2 0x42B PUSH2 0x948 JUMP JUMPDEST PUSH1 0x40 MLOAD DUP1 DUP3 DUP2 MSTORE PUSH1 0x20 ADD SWAP2 POP POP PUSH1 0x40 MLOAD DUP1 SWAP2 SUB SWAP1 RETURN JUMPDEST CALLVALUE DUP1 ISZERO PUSH2 0x44D JUMPI PUSH1 0x0 DUP1 REVERT JUMPDEST POP PUSH2 0x456 PUSH2 0x94E JUMP JUMPDEST PUSH1 0x40 MLOAD DUP1 DUP3 PUSH1 0x1 DUP2 GT ISZERO PUSH2 0x466 JUMPI INVALID JUMPDEST PUSH1 0xFF AND DUP2 MSTORE PUSH1 0x20 ADD SWAP2 POP POP PUSH1 0x40 MLOAD DUP1 SWAP2 SUB SWAP1 RETURN JUMPDEST CALLVALUE DUP1 ISZERO PUSH2 0x486 JUMPI PUSH1 0x0 DUP1 REVERT JUMPDEST POP PUSH2 0x48F PUSH2 0x96D JUMP JUMPDEST PUSH1 0x40 MLOAD DUP1 DUP3 PUSH1 0x1 DUP2 GT ISZERO PUSH2 0x49F JUMPI INVALID JUMPDEST PUSH1 0xFF AND DUP2 MSTORE PUSH1 0x20 ADD SWAP2 POP POP PUSH1 0x40 MLOAD DUP1 SWAP2 SUB SWAP1 RETURN JUMPDEST CALLVALUE DUP1 ISZERO PUSH2 0x4BF JUMPI PUSH1 0x0 DUP1 REVERT JUMPDEST POP PUSH2 0x4C8 PUSH2 0x98C JUMP JUMPDEST PUSH1 0x40 MLOAD DUP1 DUP3 ISZERO ISZERO ISZERO ISZERO DUP2 MSTORE PUSH1 0x20 ADD SWAP2 POP POP PUSH1 0x40 MLOAD DUP1 SWAP2 SUB SWAP1 RETURN JUMPDEST CALLVALUE DUP1 ISZERO PUSH2 0x4EE JUMPI PUSH1 0x0 DUP1 REVERT JUMPDEST POP PUSH2 0x4F7 PUSH2 0x99F JUMP JUMPDEST PUSH1 0x40 MLOAD DUP1 DUP3 DUP2 MSTORE PUSH1 0x20 ADD SWAP2 POP POP PUSH1 0x40 MLOAD DUP1 SWAP2 SUB SWAP1 RETURN JUMPDEST PUSH1 0x9 PUSH1 0x2 SWAP1 SLOAD SWAP1 PUSH2 0x100 EXP SWAP1 DIV PUSH1 0xFF AND DUP2 JUMP JUMPDEST PUSH1 0x6 SLOAD PUSH1 0x5 SLOAD PUSH1 0x4 SLOAD ADD ADD PUSH1 0x3 DUP2 SWAP1 SSTORE POP PUSH1 0x2 SLOAD PUSH1 0x3 SLOAD GT ISZERO PUSH2 0x5ED JUMPI PUSH1 0x0 PUSH1 0x9 PUSH1 0x0 PUSH2 0x100 EXP DUP2 SLOAD DUP2 PUSH1 0xFF MUL NOT AND SWAP1 DUP4 ISZERO ISZERO MUL OR SWAP1 SSTORE POP PUSH1 0x1 PUSH1 0x9 PUSH1 0x3 PUSH2 0x100 EXP DUP2 SLOAD DUP2 PUSH1 0xFF MUL NOT AND SWAP1 DUP4 PUSH1 0x1 DUP2 GT ISZERO PUSH2 0x577 JUMPI INVALID JUMPDEST MUL OR SWAP1 SSTORE POP PUSH1 0x1 PUSH1 0x9 PUSH1 0x4 PUSH2 0x100 EXP DUP2 SLOAD DUP2 PUSH1 0xFF MUL NOT AND SWAP1 DUP4 PUSH1 0x1 DUP2 GT ISZERO PUSH2 0x59B JUMPI INVALID JUMPDEST MUL OR SWAP1 SSTORE POP PUSH1 0x1 PUSH1 0x9 PUSH1 0x5 PUSH2 0x100 EXP DUP2 SLOAD DUP2 PUSH1 0xFF MUL NOT AND SWAP1 DUP4 PUSH1 0x1 DUP2 GT ISZERO PUSH2 0x5BF JUMPI INVALID JUMPDEST MUL OR SWAP1 SSTORE POP PUSH1 0x1 PUSH1 0x9 PUSH1 0x6 PUSH2 0x100 EXP DUP2 SLOAD DUP2 PUSH1 0xFF MUL NOT AND SWAP1 DUP4 PUSH1 0x1 DUP2 GT ISZERO PUSH2 0x5E3 JUMPI INVALID JUMPDEST MUL OR SWAP1 SSTORE POP PUSH2 0x721 JUMP JUMPDEST PUSH1 0x2 SLOAD PUSH1 0x3 SLOAD LT ISZERO PUSH2 0x720 JUMPI PUSH1 0x1C PUSH1 0x0 SLOAD GT DUP1 ISZERO PUSH2 0x60D JUMPI POP PUSH1 0x1E PUSH1 0x1 SLOAD GT JUMPDEST ISZERO PUSH2 0x65F JUMPI PUSH1 0x0 PUSH1 0x9 PUSH1 0x3 PUSH2 0x100 EXP DUP2 SLOAD DUP2 PUSH1 0xFF MUL NOT AND SWAP1 DUP4 PUSH1 0x1 DUP2 GT ISZERO PUSH2 0x631 JUMPI INVALID JUMPDEST MUL OR SWAP1 SSTORE POP PUSH1 0x1 PUSH1 0x9 PUSH1 0x4 PUSH2 0x100 EXP DUP2 SLOAD DUP2 PUSH1 0xFF MUL NOT AND SWAP1 DUP4 PUSH1 0x1 DUP2 GT ISZERO PUSH2 0x655 JUMPI INVALID JUMPDEST MUL OR SWAP1 SSTORE POP PUSH2 0x70F JUMP JUMPDEST PUSH1 0x1C PUSH1 0x0 SLOAD LT DUP1 ISZERO PUSH2 0x673 JUMPI POP PUSH1 0x1E PUSH1 0x1 SLOAD LT JUMPDEST ISZERO PUSH2 0x6C5 JUMPI PUSH1 0x1 PUSH1 0x9 PUSH1 0x3 PUSH2 0x100 EXP DUP2 SLOAD DUP2 PUSH1 0xFF MUL NOT AND SWAP1 DUP4 PUSH1 0x1 DUP2 GT ISZERO PUSH2 0x697 JUMPI INVALID JUMPDEST MUL OR SWAP1 SSTORE POP PUSH1 0x0 PUSH1 0x9 PUSH1 0x4 PUSH2 0x100 EXP DUP2 SLOAD DUP2 PUSH1 0xFF MUL NOT AND SWAP1 DUP4 PUSH1 0x1 DUP2 GT ISZERO PUSH2 0x6BB JUMPI INVALID JUMPDEST MUL OR SWAP1 SSTORE POP PUSH2 0x70E JUMP JUMPDEST PUSH1 0x0 PUSH1 0x9 PUSH1 0x3 PUSH2 0x100 EXP DUP2 SLOAD DUP2 PUSH1 0xFF MUL NOT AND SWAP1 DUP4 PUSH1 0x1 DUP2 GT ISZERO PUSH2 0x6E4 JUMPI INVALID JUMPDEST MUL OR SWAP1 SSTORE POP PUSH1 0x0 PUSH1 0x9 PUSH1 0x4 PUSH2 0x100 EXP DUP2 SLOAD DUP2 PUSH1 0xFF MUL NOT AND SWAP1 DUP4 PUSH1 0x1 DUP2 GT ISZERO PUSH2 0x708 JUMPI INVALID JUMPDEST MUL OR SWAP1 SSTORE POP JUMPDEST JUMPDEST PUSH2 0x717 PUSH2 0x890 JUMP JUMPDEST PUSH2 0x71F PUSH2 0x723 JUMP JUMPDEST JUMPDEST JUMPDEST JUMP JUMPDEST PUSH1 0x15 PUSH1 0x8 SLOAD LT ISZERO DUP1 ISZERO PUSH2 0x738 JUMPI POP PUSH1 0x8 DUP1 SLOAD GT ISZERO JUMPDEST DUP1 ISZERO PUSH2 0x747 JUMPI POP PUSH1 0x14 PUSH1 0x7 SLOAD GT ISZERO JUMPDEST ISZERO PUSH2 0x775 JUMPI PUSH1 0x0 PUSH1 0x9 PUSH1 0x6 PUSH2 0x100 EXP DUP2 SLOAD DUP2 PUSH1 0xFF MUL NOT AND SWAP1 DUP4 PUSH1 0x1 DUP2 GT ISZERO PUSH2 0x76B JUMPI INVALID JUMPDEST MUL OR SWAP1 SSTORE POP PUSH2 0x7C2 JUMP JUMPDEST PUSH1 0x15 PUSH1 0x8 SLOAD LT DUP1 ISZERO PUSH2 0x788 JUMPI POP PUSH1 0x8 DUP1 SLOAD GT JUMPDEST DUP1 ISZERO PUSH2 0x797 JUMPI POP PUSH1 0x50 PUSH1 0x7 SLOAD LT ISZERO JUMPDEST ISZERO PUSH2 0x7C1 JUMPI PUSH1 0x1 PUSH1 0x9 PUSH1 0x6 PUSH2 0x100 EXP DUP2 SLOAD DUP2 PUSH1 0xFF MUL NOT AND SWAP1 DUP4 PUSH1 0x1 DUP2 GT ISZERO PUSH2 0x7BB JUMPI INVALID JUMPDEST MUL OR SWAP1 SSTORE POP JUMPDEST JUMPDEST JUMP JUMPDEST PUSH1 0x9 PUSH1 0x0 SWAP1 SLOAD SWAP1 PUSH2 0x100 EXP SWAP1 DIV PUSH1 0xFF AND DUP2 JUMP JUMPDEST DUP9 PUSH1 0x0 DUP2 SWAP1 SSTORE POP DUP8 PUSH1 0x1 DUP2 SWAP1 SSTORE POP DUP5 PUSH1 0x8 DUP2 SWAP1 SSTORE POP DUP7 PUSH1 0x2 DUP2 SWAP1 SSTORE POP DUP4 PUSH1 0x4 DUP2 SWAP1 SSTORE POP DUP3 PUSH1 0x5 DUP2 SWAP1 SSTORE POP DUP2 PUSH1 0x6 DUP2 SWAP1 SSTORE POP DUP1 PUSH1 0x7 DUP2 SWAP1 SSTORE POP DUP6 PUSH1 0x3 DUP2 SWAP1 SSTORE POP POP POP POP POP POP POP POP POP POP JUMP JUMPDEST PUSH1 0x0 DUP1 PUSH1 0x0 DUP1 PUSH1 0x0 DUP1 PUSH1 0x0 DUP1 PUSH1 0x0 SLOAD PUSH1 0x1 SLOAD PUSH1 0x8 SLOAD PUSH1 0x2 SLOAD PUSH1 0x4 SLOAD PUSH1 0x5 SLOAD PUSH1 0x6 SLOAD PUSH1 0x7 SLOAD SWAP8 POP SWAP8 POP SWAP8 POP SWAP8 POP SWAP8 POP SWAP8 POP SWAP8 POP SWAP8 POP SWAP1 SWAP2 SWAP3 SWAP4 SWAP5 SWAP6 SWAP7 SWAP8 JUMP JUMPDEST PUSH1 0x5 SLOAD DUP2 JUMP JUMPDEST PUSH1 0x7 SLOAD DUP2 JUMP JUMPDEST PUSH1 0x4 SLOAD DUP2 JUMP JUMPDEST PUSH1 0x0 PUSH2 0x87B PUSH2 0x723 JUMP JUMPDEST PUSH1 0x9 PUSH1 0x6 SWAP1 SLOAD SWAP1 PUSH2 0x100 EXP SWAP1 DIV PUSH1 0xFF AND SWAP1 POP SWAP1 JUMP JUMPDEST PUSH1 0xA PUSH1 0x8 SLOAD LT ISZERO DUP1 ISZERO PUSH2 0x8A6 JUMPI POP PUSH1 0x12 PUSH1 0x8 SLOAD GT ISZERO JUMPDEST ISZERO PUSH2 0x8D4 JUMPI PUSH1 0x0 PUSH1 0x9 PUSH1 0x5 PUSH2 0x100 EXP DUP2 SLOAD DUP2 PUSH1 0xFF MUL NOT AND SWAP1 DUP4 PUSH1 0x1 DUP2 GT ISZERO PUSH2 0x8CA JUMPI INVALID JUMPDEST MUL OR SWAP1 SSTORE POP PUSH2 0x915 JUMP JUMPDEST PUSH1 0xA PUSH1 0x8 SLOAD GT ISZERO DUP1 ISZERO PUSH2 0x8EA JUMPI POP PUSH1 0x12 PUSH1 0x8 SLOAD LT ISZERO JUMPDEST ISZERO PUSH2 0x914 JUMPI PUSH1 0x1 PUSH1 0x9 PUSH1 0x5 PUSH2 0x100 EXP DUP2 SLOAD DUP2 PUSH1 0xFF MUL NOT AND SWAP1 DUP4 PUSH1 0x1 DUP2 GT ISZERO PUSH2 0x90E JUMPI INVALID JUMPDEST MUL OR SWAP1 SSTORE POP JUMPDEST JUMPDEST JUMP JUMPDEST PUSH1 0x0 PUSH2 0x921 PUSH2 0x890 JUMP JUMPDEST PUSH1 0x9 PUSH1 0x5 SWAP1 SLOAD SWAP1 PUSH2 0x100 EXP SWAP1 DIV PUSH1 0xFF AND SWAP1 POP SWAP1 JUMP JUMPDEST PUSH1 0x3 SLOAD DUP2 JUMP JUMPDEST PUSH1 0x1 SLOAD DUP2 JUMP JUMPDEST PUSH1 0x0 SLOAD DUP2 JUMP JUMPDEST PUSH1 0x2 SLOAD DUP2 JUMP JUMPDEST PUSH1 0x0 PUSH2 0x958 PUSH2 0x520 JUMP JUMPDEST PUSH1 0x9 PUSH1 0x4 SWAP1 SLOAD SWAP1 PUSH2 0x100 EXP SWAP1 DIV PUSH1 0xFF AND SWAP1 POP SWAP1 JUMP JUMPDEST PUSH1 0x0 PUSH2 0x977 PUSH2 0x520 JUMP JUMPDEST PUSH1 0x9 PUSH1 0x3 SWAP1 SLOAD SWAP1 PUSH2 0x100 EXP SWAP1 DIV PUSH1 0xFF AND SWAP1 POP SWAP1 JUMP JUMPDEST PUSH1 0x9 PUSH1 0x1 SWAP1 SLOAD SWAP1 PUSH2 0x100 EXP SWAP1 DIV PUSH1 0xFF AND DUP2 JUMP JUMPDEST PUSH1 0x6 SLOAD DUP2 JUMP INVALID LOG1 PUSH6 0x627A7A723058 KECCAK256 0xc9 0xb1 PUSH22 0xDBEE3E381EE6404193E90E9C02ADAF7A02C57ECB8B57 CALLDATACOPY SWAP5 OR 0xc9 PUSH23 0xEBBB002900000000000000000000000000000000000000 "
		},
		"gasEstimates": {
			"creation": {
				"codeDepositCost": "502600",
				"executionCost": "537",
				"totalCost": "503137"
			},
			"external": {
				"ac1Power()": "570",
				"ac2Power()": "526",
				"ac3Power()": "812",
				"carBatteryPowerStatus()": "548",
				"getAc2ActionAttributes()": "123574",
				"getAc3ActionAttributes()": "22050",
				"getAcActionAttributes()": "123596",
				"getBatteryActionAttributes()": "22468",
				"getContextData()": "2150",
				"humidity()": "680",
				"setAc3ContextState()": "21617",
				"setAppliancesContextState()": "122833",
				"setCarBatteryContextState()": "21903",
				"setContextData(uint256,uint256,uint256,uint256,uint256,uint256,uint256,uint256,uint256)": "180663",
				"stateHumidity()": "888",
				"stateOfDevices()": "508",
				"stateTemperature()": "492",
				"temperature()": "702",
				"totalDevicesPowerValue()": "658",
				"totalMeterSignal()": "724"
			}
		},
		"methodIdentifiers": {
			"ac1Power()": "63a60c1c",
			"ac2Power()": "3ddced64",
			"ac3Power()": "eaeee4ac",
			"carBatteryPowerStatus()": "4cd66e3f",
			"getAc2ActionAttributes()": "c41357f9",
			"getAc3ActionAttributes()": "808aef88",
			"getAcActionAttributes()": "cca502e5",
			"getBatteryActionAttributes()": "7d466576",
			"getContextData()": "3ca2d2bc",
			"humidity()": "a113efa3",
			"setAc3ContextState()": "7f75bb46",
			"setAppliancesContextState()": "158f4314",
			"setCarBatteryContextState()": "1a67fa3d",
			"setContextData(uint256,uint256,uint256,uint256,uint256,uint256,uint256,uint256,uint256)": "38f992eb",
			"stateHumidity()": "d2bca164",
			"stateOfDevices()": "2a813475",
			"stateTemperature()": "05f2edc6",
			"temperature()": "adccea12",
			"totalDevicesPowerValue()": "88e56b34",
			"totalMeterSignal()": "bd0afe33"
		}
	},
	"abi": [
		{
			"constant": true,
			"inputs": [],
			"name": "stateTemperature",
			"outputs": [
				{
					"name": "",
					"type": "bool"
				}
			],
			"payable": false,
			"stateMutability": "view",
			"type": "function"
		},
		{
			"constant": false,
			"inputs": [],
			"name": "setAppliancesContextState",
			"outputs": [],
			"payable": false,
			"stateMutability": "nonpayable",
			"type": "function"
		},
		{
			"constant": false,
			"inputs": [],
			"name": "setCarBatteryContextState",
			"outputs": [],
			"payable": false,
			"stateMutability": "nonpayable",
			"type": "function"
		},
		{
			"constant": true,
			"inputs": [],
			"name": "stateOfDevices",
			"outputs": [
				{
					"name": "",
					"type": "bool"
				}
			],
			"payable": false,
			"stateMutability": "view",
			"type": "function"
		},
		{
			"constant": false,
			"inputs": [
				{
					"name": "_temperature",
					"type": "uint256"
				},
				{
					"name": "_humidity",
					"type": "uint256"
				},
				{
					"name": "_totalMeterSignal",
					"type": "uint256"
				},
				{
					"name": "_totalDevicesPowerValue",
					"type": "uint256"
				},
				{
					"name": "_hour",
					"type": "uint256"
				},
				{
					"name": "_ac1Power",
					"type": "uint256"
				},
				{
					"name": "_ac2Power",
					"type": "uint256"
				},
				{
					"name": "_ac3Power",
					"type": "uint256"
				},
				{
					"name": "_carBatteryPowerStatus",
					"type": "uint256"
				}
			],
			"name": "setContextData",
			"outputs": [],
			"payable": false,
			"stateMutability": "nonpayable",
			"type": "function"
		},
		{
			"constant": true,
			"inputs": [],
			"name": "getContextData",
			"outputs": [
				{
					"name": "",
					"type": "uint256"
				},
				{
					"name": "",
					"type": "uint256"
				},
				{
					"name": "",
					"type": "uint256"
				},
				{
					"name": "",
					"type": "uint256"
				},
				{
					"name": "",
					"type": "uint256"
				},
				{
					"name": "",
					"type": "uint256"
				},
				{
					"name": "",
					"type": "uint256"
				},
				{
					"name": "",
					"type": "uint256"
				}
			],
			"payable": false,
			"stateMutability": "view",
			"type": "function"
		},
		{
			"constant": true,
			"inputs": [],
			"name": "ac2Power",
			"outputs": [
				{
					"name": "",
					"type": "uint256"
				}
			],
			"payable": false,
			"stateMutability": "view",
			"type": "function"
		},
		{
			"constant": true,
			"inputs": [],
			"name": "carBatteryPowerStatus",
			"outputs": [
				{
					"name": "",
					"type": "uint256"
				}
			],
			"payable": false,
			"stateMutability": "view",
			"type": "function"
		},
		{
			"constant": true,
			"inputs": [],
			"name": "ac1Power",
			"outputs": [
				{
					"name": "",
					"type": "uint256"
				}
			],
			"payable": false,
			"stateMutability": "view",
			"type": "function"
		},
		{
			"constant": false,
			"inputs": [],
			"name": "getBatteryActionAttributes",
			"outputs": [
				{
					"name": "",
					"type": "uint8"
				}
			],
			"payable": false,
			"stateMutability": "nonpayable",
			"type": "function"
		},
		{
			"constant": false,
			"inputs": [],
			"name": "setAc3ContextState",
			"outputs": [],
			"payable": false,
			"stateMutability": "nonpayable",
			"type": "function"
		},
		{
			"constant": false,
			"inputs": [],
			"name": "getAc3ActionAttributes",
			"outputs": [
				{
					"name": "",
					"type": "uint8"
				}
			],
			"payable": false,
			"stateMutability": "nonpayable",
			"type": "function"
		},
		{
			"constant": true,
			"inputs": [],
			"name": "totalDevicesPowerValue",
			"outputs": [
				{
					"name": "",
					"type": "uint256"
				}
			],
			"payable": false,
			"stateMutability": "view",
			"type": "function"
		},
		{
			"constant": true,
			"inputs": [],
			"name": "humidity",
			"outputs": [
				{
					"name": "",
					"type": "uint256"
				}
			],
			"payable": false,
			"stateMutability": "view",
			"type": "function"
		},
		{
			"constant": true,
			"inputs": [],
			"name": "temperature",
			"outputs": [
				{
					"name": "",
					"type": "uint256"
				}
			],
			"payable": false,
			"stateMutability": "view",
			"type": "function"
		},
		{
			"constant": true,
			"inputs": [],
			"name": "totalMeterSignal",
			"outputs": [
				{
					"name": "",
					"type": "uint256"
				}
			],
			"payable": false,
			"stateMutability": "view",
			"type": "function"
		},
		{
			"constant": false,
			"inputs": [],
			"name": "getAc2ActionAttributes",
			"outputs": [
				{
					"name": "",
					"type": "uint8"
				}
			],
			"payable": false,
			"stateMutability": "nonpayable",
			"type": "function"
		},
		{
			"constant": false,
			"inputs": [],
			"name": "getAcActionAttributes",
			"outputs": [
				{
					"name": "",
					"type": "uint8"
				}
			],
			"payable": false,
			"stateMutability": "nonpayable",
			"type": "function"
		},
		{
			"constant": true,
			"inputs": [],
			"name": "stateHumidity",
			"outputs": [
				{
					"name": "",
					"type": "bool"
				}
			],
			"payable": false,
			"stateMutability": "view",
			"type": "function"
		},
		{
			"constant": true,
			"inputs": [],
			"name": "ac3Power",
			"outputs": [
				{
					"name": "",
					"type": "uint256"
				}
			],
			"payable": false,
			"stateMutability": "view",
			"type": "function"
		}
	]
}