{
	"data": {
		"bytecode": {
			"linkReferences": {},
			"object": "608060405234801561001057600080fd5b50610845806100206000396000f3fe6080604052600436106100e6576000357c0100000000000000000000000000000000000000000000000000000000900463ffffffff16806305f2edc6146100eb578063158f43141461011a5780631a67fa3d146101315780632a8134751461014857806338f992eb146101775780633ca2d2bc146102035780633ddced641461025f5780634cd66e3f1461028a57806363a60c1c146102b55780637f75bb46146102e057806388e56b34146102f7578063a113efa314610322578063adccea121461034d578063bd0afe3314610378578063d2bca164146103a3578063eaeee4ac146103d2575b600080fd5b3480156100f757600080fd5b506101006103fd565b604051808215151515815260200191505060405180910390f35b34801561012657600080fd5b5061012f610410565b005b34801561013d57600080fd5b50610146610613565b005b34801561015457600080fd5b5061015d6106b4565b604051808215151515815260200191505060405180910390f35b34801561018357600080fd5b50610201600480360361012081101561019b57600080fd5b810190808035906020019092919080359060200190929190803590602001909291908035906020019092919080359060200190929190803590602001909291908035906020019092919080359060200190929190803590602001909291905050506106c7565b005b34801561020f57600080fd5b50610218610711565b604051808981526020018881526020018781526020018681526020018581526020018481526020018381526020018281526020019850505050505050505060405180910390f35b34801561026b57600080fd5b5061027461074f565b6040518082815260200191505060405180910390f35b34801561029657600080fd5b5061029f610755565b6040518082815260200191505060405180910390f35b3480156102c157600080fd5b506102ca61075b565b6040518082815260200191505060405180910390f35b3480156102ec57600080fd5b506102f5610761565b005b34801561030357600080fd5b5061030c6107e8565b6040518082815260200191505060405180910390f35b34801561032e57600080fd5b506103376107ee565b6040518082815260200191505060405180910390f35b34801561035957600080fd5b506103626107f4565b6040518082815260200191505060405180910390f35b34801561038457600080fd5b5061038d6107fa565b6040518082815260200191505060405180910390f35b3480156103af57600080fd5b506103b8610800565b604051808215151515815260200191505060405180910390f35b3480156103de57600080fd5b506103e7610813565b6040518082815260200191505060405180910390f35b600960029054906101000a900460ff1681565b600654600554600454010160038190555060025460035411156104dd576000600960006101000a81548160ff0219169083151502179055506001600960036101000a81548160ff0219169083600181111561046757fe5b02179055506001600960046101000a81548160ff0219169083600181111561048b57fe5b02179055506001600960056101000a81548160ff021916908360018111156104af57fe5b02179055506001600960066101000a81548160ff021916908360018111156104d357fe5b0217905550610611565b600254600354101561061057601c6000541180156104fd5750601e600154115b1561054f576000600960036101000a81548160ff0219169083600181111561052157fe5b02179055506001600960046101000a81548160ff0219169083600181111561054557fe5b02179055506105ff565b601c6000541080156105635750601e600154105b156105b5576001600960036101000a81548160ff0219169083600181111561058757fe5b02179055506000600960046101000a81548160ff021916908360018111156105ab57fe5b02179055506105fe565b6000600960036101000a81548160ff021916908360018111156105d457fe5b02179055506000600960046101000a81548160ff021916908360018111156105f857fe5b02179055505b5b610607610761565b61060f610613565b5b5b565b60156008541015801561062857506008805411155b80156106375750601460075411155b15610665576000600960066101000a81548160ff0219169083600181111561065b57fe5b02179055506106b2565b6015600854108015610678575060088054115b80156106875750605060075410155b156106b1576001600960066101000a81548160ff021916908360018111156106ab57fe5b02179055505b5b565b600960009054906101000a900460ff1681565b886000819055508760018190555084600881905550866002819055508360048190555082600581905550816006819055508060078190555085600381905550505050505050505050565b600080600080600080600080600054600154600854600254600454600554600654600754975097509750975097509750975097509091929394959697565b60055481565b60075481565b60045481565b600a600854101580156107775750601260085411155b156107a5576000600960056101000a81548160ff0219169083600181111561079b57fe5b02179055506107e6565b600a600854111580156107bb5750601260085410155b156107e5576001600960056101000a81548160ff021916908360018111156107df57fe5b02179055505b5b565b60035481565b60015481565b60005481565b60025481565b600960019054906101000a900460ff1681565b6006548156fea165627a7a72305820b52859a211ce608453a282edc2d5231e995af2ba93f3ceed11f19b3c270aa3040029",
			"opcodes": "PUSH1 0x80 PUSH1 0x40 MSTORE CALLVALUE DUP1 ISZERO PUSH2 0x10 JUMPI PUSH1 0x0 DUP1 REVERT JUMPDEST POP PUSH2 0x845 DUP1 PUSH2 0x20 PUSH1 0x0 CODECOPY PUSH1 0x0 RETURN INVALID PUSH1 0x80 PUSH1 0x40 MSTORE PUSH1 0x4 CALLDATASIZE LT PUSH2 0xE6 JUMPI PUSH1 0x0 CALLDATALOAD PUSH29 0x100000000000000000000000000000000000000000000000000000000 SWAP1 DIV PUSH4 0xFFFFFFFF AND DUP1 PUSH4 0x5F2EDC6 EQ PUSH2 0xEB JUMPI DUP1 PUSH4 0x158F4314 EQ PUSH2 0x11A JUMPI DUP1 PUSH4 0x1A67FA3D EQ PUSH2 0x131 JUMPI DUP1 PUSH4 0x2A813475 EQ PUSH2 0x148 JUMPI DUP1 PUSH4 0x38F992EB EQ PUSH2 0x177 JUMPI DUP1 PUSH4 0x3CA2D2BC EQ PUSH2 0x203 JUMPI DUP1 PUSH4 0x3DDCED64 EQ PUSH2 0x25F JUMPI DUP1 PUSH4 0x4CD66E3F EQ PUSH2 0x28A JUMPI DUP1 PUSH4 0x63A60C1C EQ PUSH2 0x2B5 JUMPI DUP1 PUSH4 0x7F75BB46 EQ PUSH2 0x2E0 JUMPI DUP1 PUSH4 0x88E56B34 EQ PUSH2 0x2F7 JUMPI DUP1 PUSH4 0xA113EFA3 EQ PUSH2 0x322 JUMPI DUP1 PUSH4 0xADCCEA12 EQ PUSH2 0x34D JUMPI DUP1 PUSH4 0xBD0AFE33 EQ PUSH2 0x378 JUMPI DUP1 PUSH4 0xD2BCA164 EQ PUSH2 0x3A3 JUMPI DUP1 PUSH4 0xEAEEE4AC EQ PUSH2 0x3D2 JUMPI JUMPDEST PUSH1 0x0 DUP1 REVERT JUMPDEST CALLVALUE DUP1 ISZERO PUSH2 0xF7 JUMPI PUSH1 0x0 DUP1 REVERT JUMPDEST POP PUSH2 0x100 PUSH2 0x3FD JUMP JUMPDEST PUSH1 0x40 MLOAD DUP1 DUP3 ISZERO ISZERO ISZERO ISZERO DUP2 MSTORE PUSH1 0x20 ADD SWAP2 POP POP PUSH1 0x40 MLOAD DUP1 SWAP2 SUB SWAP1 RETURN JUMPDEST CALLVALUE DUP1 ISZERO PUSH2 0x126 JUMPI PUSH1 0x0 DUP1 REVERT JUMPDEST POP PUSH2 0x12F PUSH2 0x410 JUMP JUMPDEST STOP JUMPDEST CALLVALUE DUP1 ISZERO PUSH2 0x13D JUMPI PUSH1 0x0 DUP1 REVERT JUMPDEST POP PUSH2 0x146 PUSH2 0x613 JUMP JUMPDEST STOP JUMPDEST CALLVALUE DUP1 ISZERO PUSH2 0x154 JUMPI PUSH1 0x0 DUP1 REVERT JUMPDEST POP PUSH2 0x15D PUSH2 0x6B4 JUMP JUMPDEST PUSH1 0x40 MLOAD DUP1 DUP3 ISZERO ISZERO ISZERO ISZERO DUP2 MSTORE PUSH1 0x20 ADD SWAP2 POP POP PUSH1 0x40 MLOAD DUP1 SWAP2 SUB SWAP1 RETURN JUMPDEST CALLVALUE DUP1 ISZERO PUSH2 0x183 JUMPI PUSH1 0x0 DUP1 REVERT JUMPDEST POP PUSH2 0x201 PUSH1 0x4 DUP1 CALLDATASIZE SUB PUSH2 0x120 DUP2 LT ISZERO PUSH2 0x19B JUMPI PUSH1 0x0 DUP1 REVERT JUMPDEST DUP2 ADD SWAP1 DUP1 DUP1 CALLDATALOAD SWAP1 PUSH1 0x20 ADD SWAP1 SWAP3 SWAP2 SWAP1 DUP1 CALLDATALOAD SWAP1 PUSH1 0x20 ADD SWAP1 SWAP3 SWAP2 SWAP1 DUP1 CALLDATALOAD SWAP1 PUSH1 0x20 ADD SWAP1 SWAP3 SWAP2 SWAP1 DUP1 CALLDATALOAD SWAP1 PUSH1 0x20 ADD SWAP1 SWAP3 SWAP2 SWAP1 DUP1 CALLDATALOAD SWAP1 PUSH1 0x20 ADD SWAP1 SWAP3 SWAP2 SWAP1 DUP1 CALLDATALOAD SWAP1 PUSH1 0x20 ADD SWAP1 SWAP3 SWAP2 SWAP1 DUP1 CALLDATALOAD SWAP1 PUSH1 0x20 ADD SWAP1 SWAP3 SWAP2 SWAP1 DUP1 CALLDATALOAD SWAP1 PUSH1 0x20 ADD SWAP1 SWAP3 SWAP2 SWAP1 DUP1 CALLDATALOAD SWAP1 PUSH1 0x20 ADD SWAP1 SWAP3 SWAP2 SWAP1 POP POP POP PUSH2 0x6C7 JUMP JUMPDEST STOP JUMPDEST CALLVALUE DUP1 ISZERO PUSH2 0x20F JUMPI PUSH1 0x0 DUP1 REVERT JUMPDEST POP PUSH2 0x218 PUSH2 0x711 JUMP JUMPDEST PUSH1 0x40 MLOAD DUP1 DUP10 DUP2 MSTORE PUSH1 0x20 ADD DUP9 DUP2 MSTORE PUSH1 0x20 ADD DUP8 DUP2 MSTORE PUSH1 0x20 ADD DUP7 DUP2 MSTORE PUSH1 0x20 ADD DUP6 DUP2 MSTORE PUSH1 0x20 ADD DUP5 DUP2 MSTORE PUSH1 0x20 ADD DUP4 DUP2 MSTORE PUSH1 0x20 ADD DUP3 DUP2 MSTORE PUSH1 0x20 ADD SWAP9 POP POP POP POP POP POP POP POP POP PUSH1 0x40 MLOAD DUP1 SWAP2 SUB SWAP1 RETURN JUMPDEST CALLVALUE DUP1 ISZERO PUSH2 0x26B JUMPI PUSH1 0x0 DUP1 REVERT JUMPDEST POP PUSH2 0x274 PUSH2 0x74F JUMP JUMPDEST PUSH1 0x40 MLOAD DUP1 DUP3 DUP2 MSTORE PUSH1 0x20 ADD SWAP2 POP POP PUSH1 0x40 MLOAD DUP1 SWAP2 SUB SWAP1 RETURN JUMPDEST CALLVALUE DUP1 ISZERO PUSH2 0x296 JUMPI PUSH1 0x0 DUP1 REVERT JUMPDEST POP PUSH2 0x29F PUSH2 0x755 JUMP JUMPDEST PUSH1 0x40 MLOAD DUP1 DUP3 DUP2 MSTORE PUSH1 0x20 ADD SWAP2 POP POP PUSH1 0x40 MLOAD DUP1 SWAP2 SUB SWAP1 RETURN JUMPDEST CALLVALUE DUP1 ISZERO PUSH2 0x2C1 JUMPI PUSH1 0x0 DUP1 REVERT JUMPDEST POP PUSH2 0x2CA PUSH2 0x75B JUMP JUMPDEST PUSH1 0x40 MLOAD DUP1 DUP3 DUP2 MSTORE PUSH1 0x20 ADD SWAP2 POP POP PUSH1 0x40 MLOAD DUP1 SWAP2 SUB SWAP1 RETURN JUMPDEST CALLVALUE DUP1 ISZERO PUSH2 0x2EC JUMPI PUSH1 0x0 DUP1 REVERT JUMPDEST POP PUSH2 0x2F5 PUSH2 0x761 JUMP JUMPDEST STOP JUMPDEST CALLVALUE DUP1 ISZERO PUSH2 0x303 JUMPI PUSH1 0x0 DUP1 REVERT JUMPDEST POP PUSH2 0x30C PUSH2 0x7E8 JUMP JUMPDEST PUSH1 0x40 MLOAD DUP1 DUP3 DUP2 MSTORE PUSH1 0x20 ADD SWAP2 POP POP PUSH1 0x40 MLOAD DUP1 SWAP2 SUB SWAP1 RETURN JUMPDEST CALLVALUE DUP1 ISZERO PUSH2 0x32E JUMPI PUSH1 0x0 DUP1 REVERT JUMPDEST POP PUSH2 0x337 PUSH2 0x7EE JUMP JUMPDEST PUSH1 0x40 MLOAD DUP1 DUP3 DUP2 MSTORE PUSH1 0x20 ADD SWAP2 POP POP PUSH1 0x40 MLOAD DUP1 SWAP2 SUB SWAP1 RETURN JUMPDEST CALLVALUE DUP1 ISZERO PUSH2 0x359 JUMPI PUSH1 0x0 DUP1 REVERT JUMPDEST POP PUSH2 0x362 PUSH2 0x7F4 JUMP JUMPDEST PUSH1 0x40 MLOAD DUP1 DUP3 DUP2 MSTORE PUSH1 0x20 ADD SWAP2 POP POP PUSH1 0x40 MLOAD DUP1 SWAP2 SUB SWAP1 RETURN JUMPDEST CALLVALUE DUP1 ISZERO PUSH2 0x384 JUMPI PUSH1 0x0 DUP1 REVERT JUMPDEST POP PUSH2 0x38D PUSH2 0x7FA JUMP JUMPDEST PUSH1 0x40 MLOAD DUP1 DUP3 DUP2 MSTORE PUSH1 0x20 ADD SWAP2 POP POP PUSH1 0x40 MLOAD DUP1 SWAP2 SUB SWAP1 RETURN JUMPDEST CALLVALUE DUP1 ISZERO PUSH2 0x3AF JUMPI PUSH1 0x0 DUP1 REVERT JUMPDEST POP PUSH2 0x3B8 PUSH2 0x800 JUMP JUMPDEST PUSH1 0x40 MLOAD DUP1 DUP3 ISZERO ISZERO ISZERO ISZERO DUP2 MSTORE PUSH1 0x20 ADD SWAP2 POP POP PUSH1 0x40 MLOAD DUP1 SWAP2 SUB SWAP1 RETURN JUMPDEST CALLVALUE DUP1 ISZERO PUSH2 0x3DE JUMPI PUSH1 0x0 DUP1 REVERT JUMPDEST POP PUSH2 0x3E7 PUSH2 0x813 JUMP JUMPDEST PUSH1 0x40 MLOAD DUP1 DUP3 DUP2 MSTORE PUSH1 0x20 ADD SWAP2 POP POP PUSH1 0x40 MLOAD DUP1 SWAP2 SUB SWAP1 RETURN JUMPDEST PUSH1 0x9 PUSH1 0x2 SWAP1 SLOAD SWAP1 PUSH2 0x100 EXP SWAP1 DIV PUSH1 0xFF AND DUP2 JUMP JUMPDEST PUSH1 0x6 SLOAD PUSH1 0x5 SLOAD PUSH1 0x4 SLOAD ADD ADD PUSH1 0x3 DUP2 SWAP1 SSTORE POP PUSH1 0x2 SLOAD PUSH1 0x3 SLOAD GT ISZERO PUSH2 0x4DD JUMPI PUSH1 0x0 PUSH1 0x9 PUSH1 0x0 PUSH2 0x100 EXP DUP2 SLOAD DUP2 PUSH1 0xFF MUL NOT AND SWAP1 DUP4 ISZERO ISZERO MUL OR SWAP1 SSTORE POP PUSH1 0x1 PUSH1 0x9 PUSH1 0x3 PUSH2 0x100 EXP DUP2 SLOAD DUP2 PUSH1 0xFF MUL NOT AND SWAP1 DUP4 PUSH1 0x1 DUP2 GT ISZERO PUSH2 0x467 JUMPI INVALID JUMPDEST MUL OR SWAP1 SSTORE POP PUSH1 0x1 PUSH1 0x9 PUSH1 0x4 PUSH2 0x100 EXP DUP2 SLOAD DUP2 PUSH1 0xFF MUL NOT AND SWAP1 DUP4 PUSH1 0x1 DUP2 GT ISZERO PUSH2 0x48B JUMPI INVALID JUMPDEST MUL OR SWAP1 SSTORE POP PUSH1 0x1 PUSH1 0x9 PUSH1 0x5 PUSH2 0x100 EXP DUP2 SLOAD DUP2 PUSH1 0xFF MUL NOT AND SWAP1 DUP4 PUSH1 0x1 DUP2 GT ISZERO PUSH2 0x4AF JUMPI INVALID JUMPDEST MUL OR SWAP1 SSTORE POP PUSH1 0x1 PUSH1 0x9 PUSH1 0x6 PUSH2 0x100 EXP DUP2 SLOAD DUP2 PUSH1 0xFF MUL NOT AND SWAP1 DUP4 PUSH1 0x1 DUP2 GT ISZERO PUSH2 0x4D3 JUMPI INVALID JUMPDEST MUL OR SWAP1 SSTORE POP PUSH2 0x611 JUMP JUMPDEST PUSH1 0x2 SLOAD PUSH1 0x3 SLOAD LT ISZERO PUSH2 0x610 JUMPI PUSH1 0x1C PUSH1 0x0 SLOAD GT DUP1 ISZERO PUSH2 0x4FD JUMPI POP PUSH1 0x1E PUSH1 0x1 SLOAD GT JUMPDEST ISZERO PUSH2 0x54F JUMPI PUSH1 0x0 PUSH1 0x9 PUSH1 0x3 PUSH2 0x100 EXP DUP2 SLOAD DUP2 PUSH1 0xFF MUL NOT AND SWAP1 DUP4 PUSH1 0x1 DUP2 GT ISZERO PUSH2 0x521 JUMPI INVALID JUMPDEST MUL OR SWAP1 SSTORE POP PUSH1 0x1 PUSH1 0x9 PUSH1 0x4 PUSH2 0x100 EXP DUP2 SLOAD DUP2 PUSH1 0xFF MUL NOT AND SWAP1 DUP4 PUSH1 0x1 DUP2 GT ISZERO PUSH2 0x545 JUMPI INVALID JUMPDEST MUL OR SWAP1 SSTORE POP PUSH2 0x5FF JUMP JUMPDEST PUSH1 0x1C PUSH1 0x0 SLOAD LT DUP1 ISZERO PUSH2 0x563 JUMPI POP PUSH1 0x1E PUSH1 0x1 SLOAD LT JUMPDEST ISZERO PUSH2 0x5B5 JUMPI PUSH1 0x1 PUSH1 0x9 PUSH1 0x3 PUSH2 0x100 EXP DUP2 SLOAD DUP2 PUSH1 0xFF MUL NOT AND SWAP1 DUP4 PUSH1 0x1 DUP2 GT ISZERO PUSH2 0x587 JUMPI INVALID JUMPDEST MUL OR SWAP1 SSTORE POP PUSH1 0x0 PUSH1 0x9 PUSH1 0x4 PUSH2 0x100 EXP DUP2 SLOAD DUP2 PUSH1 0xFF MUL NOT AND SWAP1 DUP4 PUSH1 0x1 DUP2 GT ISZERO PUSH2 0x5AB JUMPI INVALID JUMPDEST MUL OR SWAP1 SSTORE POP PUSH2 0x5FE JUMP JUMPDEST PUSH1 0x0 PUSH1 0x9 PUSH1 0x3 PUSH2 0x100 EXP DUP2 SLOAD DUP2 PUSH1 0xFF MUL NOT AND SWAP1 DUP4 PUSH1 0x1 DUP2 GT ISZERO PUSH2 0x5D4 JUMPI INVALID JUMPDEST MUL OR SWAP1 SSTORE POP PUSH1 0x0 PUSH1 0x9 PUSH1 0x4 PUSH2 0x100 EXP DUP2 SLOAD DUP2 PUSH1 0xFF MUL NOT AND SWAP1 DUP4 PUSH1 0x1 DUP2 GT ISZERO PUSH2 0x5F8 JUMPI INVALID JUMPDEST MUL OR SWAP1 SSTORE POP JUMPDEST JUMPDEST PUSH2 0x607 PUSH2 0x761 JUMP JUMPDEST PUSH2 0x60F PUSH2 0x613 JUMP JUMPDEST JUMPDEST JUMPDEST JUMP JUMPDEST PUSH1 0x15 PUSH1 0x8 SLOAD LT ISZERO DUP1 ISZERO PUSH2 0x628 JUMPI POP PUSH1 0x8 DUP1 SLOAD GT ISZERO JUMPDEST DUP1 ISZERO PUSH2 0x637 JUMPI POP PUSH1 0x14 PUSH1 0x7 SLOAD GT ISZERO JUMPDEST ISZERO PUSH2 0x665 JUMPI PUSH1 0x0 PUSH1 0x9 PUSH1 0x6 PUSH2 0x100 EXP DUP2 SLOAD DUP2 PUSH1 0xFF MUL NOT AND SWAP1 DUP4 PUSH1 0x1 DUP2 GT ISZERO PUSH2 0x65B JUMPI INVALID JUMPDEST MUL OR SWAP1 SSTORE POP PUSH2 0x6B2 JUMP JUMPDEST PUSH1 0x15 PUSH1 0x8 SLOAD LT DUP1 ISZERO PUSH2 0x678 JUMPI POP PUSH1 0x8 DUP1 SLOAD GT JUMPDEST DUP1 ISZERO PUSH2 0x687 JUMPI POP PUSH1 0x50 PUSH1 0x7 SLOAD LT ISZERO JUMPDEST ISZERO PUSH2 0x6B1 JUMPI PUSH1 0x1 PUSH1 0x9 PUSH1 0x6 PUSH2 0x100 EXP DUP2 SLOAD DUP2 PUSH1 0xFF MUL NOT AND SWAP1 DUP4 PUSH1 0x1 DUP2 GT ISZERO PUSH2 0x6AB JUMPI INVALID JUMPDEST MUL OR SWAP1 SSTORE POP JUMPDEST JUMPDEST JUMP JUMPDEST PUSH1 0x9 PUSH1 0x0 SWAP1 SLOAD SWAP1 PUSH2 0x100 EXP SWAP1 DIV PUSH1 0xFF AND DUP2 JUMP JUMPDEST DUP9 PUSH1 0x0 DUP2 SWAP1 SSTORE POP DUP8 PUSH1 0x1 DUP2 SWAP1 SSTORE POP DUP5 PUSH1 0x8 DUP2 SWAP1 SSTORE POP DUP7 PUSH1 0x2 DUP2 SWAP1 SSTORE POP DUP4 PUSH1 0x4 DUP2 SWAP1 SSTORE POP DUP3 PUSH1 0x5 DUP2 SWAP1 SSTORE POP DUP2 PUSH1 0x6 DUP2 SWAP1 SSTORE POP DUP1 PUSH1 0x7 DUP2 SWAP1 SSTORE POP DUP6 PUSH1 0x3 DUP2 SWAP1 SSTORE POP POP POP POP POP POP POP POP POP POP JUMP JUMPDEST PUSH1 0x0 DUP1 PUSH1 0x0 DUP1 PUSH1 0x0 DUP1 PUSH1 0x0 DUP1 PUSH1 0x0 SLOAD PUSH1 0x1 SLOAD PUSH1 0x8 SLOAD PUSH1 0x2 SLOAD PUSH1 0x4 SLOAD PUSH1 0x5 SLOAD PUSH1 0x6 SLOAD PUSH1 0x7 SLOAD SWAP8 POP SWAP8 POP SWAP8 POP SWAP8 POP SWAP8 POP SWAP8 POP SWAP8 POP SWAP8 POP SWAP1 SWAP2 SWAP3 SWAP4 SWAP5 SWAP6 SWAP7 SWAP8 JUMP JUMPDEST PUSH1 0x5 SLOAD DUP2 JUMP JUMPDEST PUSH1 0x7 SLOAD DUP2 JUMP JUMPDEST PUSH1 0x4 SLOAD DUP2 JUMP JUMPDEST PUSH1 0xA PUSH1 0x8 SLOAD LT ISZERO DUP1 ISZERO PUSH2 0x777 JUMPI POP PUSH1 0x12 PUSH1 0x8 SLOAD GT ISZERO JUMPDEST ISZERO PUSH2 0x7A5 JUMPI PUSH1 0x0 PUSH1 0x9 PUSH1 0x5 PUSH2 0x100 EXP DUP2 SLOAD DUP2 PUSH1 0xFF MUL NOT AND SWAP1 DUP4 PUSH1 0x1 DUP2 GT ISZERO PUSH2 0x79B JUMPI INVALID JUMPDEST MUL OR SWAP1 SSTORE POP PUSH2 0x7E6 JUMP JUMPDEST PUSH1 0xA PUSH1 0x8 SLOAD GT ISZERO DUP1 ISZERO PUSH2 0x7BB JUMPI POP PUSH1 0x12 PUSH1 0x8 SLOAD LT ISZERO JUMPDEST ISZERO PUSH2 0x7E5 JUMPI PUSH1 0x1 PUSH1 0x9 PUSH1 0x5 PUSH2 0x100 EXP DUP2 SLOAD DUP2 PUSH1 0xFF MUL NOT AND SWAP1 DUP4 PUSH1 0x1 DUP2 GT ISZERO PUSH2 0x7DF JUMPI INVALID JUMPDEST MUL OR SWAP1 SSTORE POP JUMPDEST JUMPDEST JUMP JUMPDEST PUSH1 0x3 SLOAD DUP2 JUMP JUMPDEST PUSH1 0x1 SLOAD DUP2 JUMP JUMPDEST PUSH1 0x0 SLOAD DUP2 JUMP JUMPDEST PUSH1 0x2 SLOAD DUP2 JUMP JUMPDEST PUSH1 0x9 PUSH1 0x1 SWAP1 SLOAD SWAP1 PUSH2 0x100 EXP SWAP1 DIV PUSH1 0xFF AND DUP2 JUMP JUMPDEST PUSH1 0x6 SLOAD DUP2 JUMP INVALID LOG1 PUSH6 0x627A7A723058 KECCAK256 0xb5 0x28 MSIZE LOG2 GT 0xce PUSH1 0x84 MSTORE8 LOG2 DUP3 0xed 0xc2 0xd5 0x23 0x1e SWAP10 GAS CALLCODE 0xba SWAP4 RETURN 0xce 0xed GT CALL SWAP12 EXTCODECOPY 0x27 EXP LOG3 DIV STOP 0x29 "
		},
		"gasEstimates": {
			"creation": {
				"codeDepositCost": "423400",
				"executionCost": "461",
				"totalCost": "423861"
			},
			"external": {
				"ac1Power()": "570",
				"ac2Power()": "526",
				"ac3Power()": "724",
				"carBatteryPowerStatus()": "548",
				"getContextData()": "2150",
				"humidity()": "636",
				"setAc3ContextState()": "21595",
				"setAppliancesContextState()": "122833",
				"setCarBatteryContextState()": "21903",
				"setContextData(uint256,uint256,uint256,uint256,uint256,uint256,uint256,uint256,uint256)": "180663",
				"stateHumidity()": "800",
				"stateOfDevices()": "508",
				"stateTemperature()": "492",
				"temperature()": "658",
				"totalDevicesPowerValue()": "614",
				"totalMeterSignal()": "680"
			}
		},
		"methodIdentifiers": {
			"ac1Power()": "63a60c1c",
			"ac2Power()": "3ddced64",
			"ac3Power()": "eaeee4ac",
			"carBatteryPowerStatus()": "4cd66e3f",
			"getContextData()": "3ca2d2bc",
			"humidity()": "a113efa3",
			"setAc3ContextState()": "7f75bb46",
			"setAppliancesContextState()": "158f4314",
			"setCarBatteryContextState()": "1a67fa3d",
			"setContextData(uint256,uint256,uint256,uint256,uint256,uint256,uint256,uint256,uint256)": "38f992eb",
			"stateHumidity()": "d2bca164",
			"stateOfDevices()": "2a813475",
			"stateTemperature()": "05f2edc6",
			"temperature()": "adccea12",
			"totalDevicesPowerValue()": "88e56b34",
			"totalMeterSignal()": "bd0afe33"
		}
	},
	"abi": [
		{
			"constant": true,
			"inputs": [],
			"name": "stateTemperature",
			"outputs": [
				{
					"name": "",
					"type": "bool"
				}
			],
			"payable": false,
			"stateMutability": "view",
			"type": "function"
		},
		{
			"constant": false,
			"inputs": [],
			"name": "setAppliancesContextState",
			"outputs": [],
			"payable": false,
			"stateMutability": "nonpayable",
			"type": "function"
		},
		{
			"constant": false,
			"inputs": [],
			"name": "setCarBatteryContextState",
			"outputs": [],
			"payable": false,
			"stateMutability": "nonpayable",
			"type": "function"
		},
		{
			"constant": true,
			"inputs": [],
			"name": "stateOfDevices",
			"outputs": [
				{
					"name": "",
					"type": "bool"
				}
			],
			"payable": false,
			"stateMutability": "view",
			"type": "function"
		},
		{
			"constant": false,
			"inputs": [
				{
					"name": "_temperature",
					"type": "uint256"
				},
				{
					"name": "_humidity",
					"type": "uint256"
				},
				{
					"name": "_totalMeterSignal",
					"type": "uint256"
				},
				{
					"name": "_totalDevicesPowerValue",
					"type": "uint256"
				},
				{
					"name": "_hour",
					"type": "uint256"
				},
				{
					"name": "_ac1Power",
					"type": "uint256"
				},
				{
					"name": "_ac2Power",
					"type": "uint256"
				},
				{
					"name": "_ac3Power",
					"type": "uint256"
				},
				{
					"name": "_carBatteryPowerStatus",
					"type": "uint256"
				}
			],
			"name": "setContextData",
			"outputs": [],
			"payable": false,
			"stateMutability": "nonpayable",
			"type": "function"
		},
		{
			"constant": true,
			"inputs": [],
			"name": "getContextData",
			"outputs": [
				{
					"name": "",
					"type": "uint256"
				},
				{
					"name": "",
					"type": "uint256"
				},
				{
					"name": "",
					"type": "uint256"
				},
				{
					"name": "",
					"type": "uint256"
				},
				{
					"name": "",
					"type": "uint256"
				},
				{
					"name": "",
					"type": "uint256"
				},
				{
					"name": "",
					"type": "uint256"
				},
				{
					"name": "",
					"type": "uint256"
				}
			],
			"payable": false,
			"stateMutability": "view",
			"type": "function"
		},
		{
			"constant": true,
			"inputs": [],
			"name": "ac2Power",
			"outputs": [
				{
					"name": "",
					"type": "uint256"
				}
			],
			"payable": false,
			"stateMutability": "view",
			"type": "function"
		},
		{
			"constant": true,
			"inputs": [],
			"name": "carBatteryPowerStatus",
			"outputs": [
				{
					"name": "",
					"type": "uint256"
				}
			],
			"payable": false,
			"stateMutability": "view",
			"type": "function"
		},
		{
			"constant": true,
			"inputs": [],
			"name": "ac1Power",
			"outputs": [
				{
					"name": "",
					"type": "uint256"
				}
			],
			"payable": false,
			"stateMutability": "view",
			"type": "function"
		},
		{
			"constant": false,
			"inputs": [],
			"name": "setAc3ContextState",
			"outputs": [],
			"payable": false,
			"stateMutability": "nonpayable",
			"type": "function"
		},
		{
			"constant": true,
			"inputs": [],
			"name": "totalDevicesPowerValue",
			"outputs": [
				{
					"name": "",
					"type": "uint256"
				}
			],
			"payable": false,
			"stateMutability": "view",
			"type": "function"
		},
		{
			"constant": true,
			"inputs": [],
			"name": "humidity",
			"outputs": [
				{
					"name": "",
					"type": "uint256"
				}
			],
			"payable": false,
			"stateMutability": "view",
			"type": "function"
		},
		{
			"constant": true,
			"inputs": [],
			"name": "temperature",
			"outputs": [
				{
					"name": "",
					"type": "uint256"
				}
			],
			"payable": false,
			"stateMutability": "view",
			"type": "function"
		},
		{
			"constant": true,
			"inputs": [],
			"name": "totalMeterSignal",
			"outputs": [
				{
					"name": "",
					"type": "uint256"
				}
			],
			"payable": false,
			"stateMutability": "view",
			"type": "function"
		},
		{
			"constant": true,
			"inputs": [],
			"name": "stateHumidity",
			"outputs": [
				{
					"name": "",
					"type": "bool"
				}
			],
			"payable": false,
			"stateMutability": "view",
			"type": "function"
		},
		{
			"constant": true,
			"inputs": [],
			"name": "ac3Power",
			"outputs": [
				{
					"name": "",
					"type": "uint256"
				}
			],
			"payable": false,
			"stateMutability": "view",
			"type": "function"
		}
	]
}