{
	"data": {
		"bytecode": {
			"linkReferences": {},
			"object": "608060405234801561001057600080fd5b50613c4e806100206000396000f3fe608060405234801561001057600080fd5b50600436106100ea5760003560e01c80639d179e5c1161008c578063d0c3d81611610066578063d0c3d81614610b09578063d6b8674b14610b11578063e21b5bf114610d98578063ea639258146110ef576100ea565b80639d179e5c14610758578063a7a88de61461098d578063c7b41845146109a7576100ea565b806364c4aac4116100c857806364c4aac4146105e85780636ad4d0e91461067a5780637b1aa41f1461071e5780637d9776b11461073b576100ea565b80633946c0d7146100ef5780634852434b146102f957806358b50c6314610530575b600080fd5b6101936004803603602081101561010557600080fd5b810190602081018135600160201b81111561011f57600080fd5b82018360208201111561013157600080fd5b803590602001918460018302840111600160201b8311171561015257600080fd5b91908080601f01602080910402602001604051908101604052809392919081815260200183838082843760009201919091525092955061119e945050505050565b60408051606081018690526080810185905283151560a082015282151560c082015260e08082528951908201528851909182916020808401928401916101008501918d019080838360005b838110156101f65781810151838201526020016101de565b50505050905090810190601f1680156102235780820380516001836020036101000a031916815260200191505b5084810383528a5181528a516020918201918c019080838360005b8381101561025657818101518382015260200161023e565b50505050905090810190601f1680156102835780820380516001836020036101000a031916815260200191505b5084810382528951815289516020918201918b019080838360005b838110156102b657818101518382015260200161029e565b50505050905090810190601f1680156102e35780820380516001836020036101000a031916815260200191505b509a505050505050505050505060405180910390f35b61052e600480360360a081101561030f57600080fd5b810190602081018135600160201b81111561032957600080fd5b82018360208201111561033b57600080fd5b803590602001918460018302840111600160201b8311171561035c57600080fd5b91908080601f0160208091040260200160405190810160405280939291908181526020018383808284376000920191909152509295949360208101935035915050600160201b8111156103ae57600080fd5b8201836020820111156103c057600080fd5b803590602001918460018302840111600160201b831117156103e157600080fd5b91908080601f0160208091040260200160405190810160405280939291908181526020018383808284376000920191909152509295949360208101935035915050600160201b81111561043357600080fd5b82018360208201111561044557600080fd5b803590602001918460018302840111600160201b8311171561046657600080fd5b91908080601f0160208091040260200160405190810160405280939291908181526020018383808284376000920191909152509295949360208101935035915050600160201b8111156104b857600080fd5b8201836020820111156104ca57600080fd5b803590602001918460018302840111600160201b831117156104eb57600080fd5b91908080601f0160208091040260200160405190810160405280939291908181526020018383808284376000920191909152509295505091359250611660915050565b005b6105d46004803603602081101561054657600080fd5b810190602081018135600160201b81111561056057600080fd5b82018360208201111561057257600080fd5b803590602001918460018302840111600160201b8311171561059357600080fd5b91908080601f016020809104026020016040519081016040528093929190818152602001838380828437600092019190915250929550611ce3945050505050565b604080519115158252519081900360200190f35b610605600480360360208110156105fe57600080fd5b5035611d58565b6040805160208082528351818301528351919283929083019185019080838360005b8381101561063f578181015183820152602001610627565b50505050905090810190601f16801561066c5780820380516001836020036101000a031916815260200191505b509250505060405180910390f35b6105d46004803603602081101561069057600080fd5b810190602081018135600160201b8111156106aa57600080fd5b8201836020820111156106bc57600080fd5b803590602001918460018302840111600160201b831117156106dd57600080fd5b91908080601f016020809104026020016040519081016040528093929190818152602001838380828437600092019190915250929550611dfe945050505050565b6106056004803603602081101561073457600080fd5b5035611e73565b6106056004803603602081101561075157600080fd5b5035611e80565b6105d4600480360360a081101561076e57600080fd5b810190602081018135600160201b81111561078857600080fd5b82018360208201111561079a57600080fd5b803590602001918460018302840111600160201b831117156107bb57600080fd5b91908080601f0160208091040260200160405190810160405280939291908181526020018383808284376000920191909152509295949360208101935035915050600160201b81111561080d57600080fd5b82018360208201111561081f57600080fd5b803590602001918460018302840111600160201b8311171561084057600080fd5b91908080601f0160208091040260200160405190810160405280939291908181526020018383808284376000920191909152509295949360208101935035915050600160201b81111561089257600080fd5b8201836020820111156108a457600080fd5b803590602001918460018302840111600160201b831117156108c557600080fd5b91908080601f0160208091040260200160405190810160405280939291908181526020018383808284376000920191909152509295949360208101935035915050600160201b81111561091757600080fd5b82018360208201111561092957600080fd5b803590602001918460018302840111600160201b8311171561094a57600080fd5b91908080601f0160208091040260200160405190810160405280939291908181526020018383808284376000920191909152509295505091359250611e8d915050565b61099561263c565b60408051918252519081900360200190f35b6105d460048036036101208110156109be57600080fd5b810190602081018135600160201b8111156109d857600080fd5b8201836020820111156109ea57600080fd5b803590602001918460018302840111600160201b83111715610a0b57600080fd5b91908080601f0160208091040260200160405190810160405280939291908181526020018383808284376000920191909152509295949360208101935035915050600160201b811115610a5d57600080fd5b820183602082011115610a6f57600080fd5b803590602001918460018302840111600160201b83111715610a9057600080fd5b91908080601f016020809104026020016040519081016040528093929190818152602001838380828437600092019190915250929550506001600160a01b0383351693505050602081013515159060408101351515906060810135151590608081013515159060a081013515159060c001351515612643565b610995612ba2565b610bb560048036036020811015610b2757600080fd5b810190602081018135600160201b811115610b4157600080fd5b820183602082011115610b5357600080fd5b803590602001918460018302840111600160201b83111715610b7457600080fd5b91908080601f016020809104026020016040519081016040528093929190818152602001838380828437600092019190915250929550612ba8945050505050565b60405180886001600160a01b03166001600160a01b03168152602001876001600160a01b03166001600160a01b031681526020018060200180602001868152602001806020018060200185810385528a818151815260200191508051906020019080838360005b83811015610c34578181015183820152602001610c1c565b50505050905090810190601f168015610c615780820380516001836020036101000a031916815260200191505b5085810384528951815289516020918201918b019080838360005b83811015610c94578181015183820152602001610c7c565b50505050905090810190601f168015610cc15780820380516001836020036101000a031916815260200191505b50858103835287518152875160209182019189019080838360005b83811015610cf4578181015183820152602001610cdc565b50505050905090810190601f168015610d215780820380516001836020036101000a031916815260200191505b50858103825286518152865160209182019188019080838360005b83811015610d54578181015183820152602001610d3c565b50505050905090810190601f168015610d815780820380516001836020036101000a031916815260200191505b509b50505050505050505050505060405180910390f35b61052e6004803603610100811015610daf57600080fd5b810190602081018135600160201b811115610dc957600080fd5b820183602082011115610ddb57600080fd5b803590602001918460018302840111600160201b83111715610dfc57600080fd5b91908080601f01602080910402602001604051908101604052809392919081815260200183838082843760009201919091525092956001600160a01b038535811696602087013590911695919450925060608101915060400135600160201b811115610e6757600080fd5b820183602082011115610e7957600080fd5b803590602001918460018302840111600160201b83111715610e9a57600080fd5b91908080601f0160208091040260200160405190810160405280939291908181526020018383808284376000920191909152509295949360208101935035915050600160201b811115610eec57600080fd5b820183602082011115610efe57600080fd5b803590602001918460018302840111600160201b83111715610f1f57600080fd5b91908080601f0160208091040260200160405190810160405280939291908181526020018383808284376000920191909152509295949360208101935035915050600160201b811115610f7157600080fd5b820183602082011115610f8357600080fd5b803590602001918460018302840111600160201b83111715610fa457600080fd5b91908080601f0160208091040260200160405190810160405280939291908181526020018383808284376000920191909152509295949360208101935035915050600160201b811115610ff657600080fd5b82018360208201111561100857600080fd5b803590602001918460018302840111600160201b8311171561102957600080fd5b91908080601f0160208091040260200160405190810160405280939291908181526020018383808284376000920191909152509295949360208101935035915050600160201b81111561107b57600080fd5b82018360208201111561108d57600080fd5b803590602001918460018302840111600160201b831117156110ae57600080fd5b91908080601f0160208091040260200160405190810160405280939291908181526020018383808284376000920191909152509295506130ea945050505050565b6105d46004803603604081101561110557600080fd5b810190602081018135600160201b81111561111f57600080fd5b82018360208201111561113157600080fd5b803590602001918460018302840111600160201b8311171561115257600080fd5b91908080601f016020809104026020016040519081016040528093929190818152602001838380828437600092019190915250929550505090356001600160a01b031691506137029050565b60608060606000806000806004886040518082805190602001908083835b602083106111db5780518252601f1990920191602091820191016111bc565b6001836020036101000a03801982511681845116808217855250505050505090500191505090815260200160405180910390206001016004896040518082805190602001908083835b602083106112435780518252601f199092019160209182019101611224565b6001836020036101000a038019825116818451168082178552505050505050905001915050908152602001604051809103902060020160048a6040518082805190602001908083835b602083106112ab5780518252601f19909201916020918201910161128c565b6001836020036101000a038019825116818451168082178552505050505050905001915050908152602001604051809103902060030160048b6040518082805190602001908083835b602083106113135780518252601f1990920191602091820191016112f4565b6001836020036101000a03801982511681845116808217855250505050505090500191505090815260200160405180910390206004015460048c6040518082805190602001908083835b6020831061137c5780518252601f19909201916020918201910161135d565b6001836020036101000a03801982511681845116808217855250505050505090500191505090815260200160405180910390206005015460048d6040518082805190602001908083835b602083106113e55780518252601f1990920191602091820191016113c6565b6001836020036101000a038019825116818451168082178552505050505050905001915050908152602001604051809103902060080160159054906101000a900460ff1660048e6040518082805190602001908083835b6020831061145b5780518252601f19909201916020918201910161143c565b518151600019602094850361010090810a82019283169219939093169190911790925294909201968752604080519788900382018820600801548e54601f600260018316159098029095011695909504928301829004820288018201905281875260ff600160b01b909404939093169594508b93509184019050828280156115245780601f106114f957610100808354040283529160200191611524565b820191906000526020600020905b81548152906001019060200180831161150757829003601f168201915b5050895460408051602060026001851615610100026000190190941693909304601f8101849004840282018401909252818152959c508b9450925084019050828280156115b25780601f10611587576101008083540402835291602001916115b2565b820191906000526020600020905b81548152906001019060200180831161159557829003601f168201915b5050885460408051602060026001851615610100026000190190941693909304601f8101849004840282018401909252818152959b508a9450925084019050828280156116405780601f1061161557610100808354040283529160200191611640565b820191906000526020600020905b81548152906001019060200180831161162357829003601f168201915b505050505094509650965096509650965096509650919395979092949650565b836004866040518082805190602001908083835b602083106116935780518252601f199092019160209182019101611674565b6001836020036101000a038019825116818451168082178552505050505050905001915050908152602001604051809103902060010190805190602001906116dc929190613b25565b50826004866040518082805190602001908083835b602083106117105780518252601f1990920191602091820191016116f1565b51815160209384036101000a60001901801990921691161790529201948552506040519384900381019093208451611755956002909201949190910192509050613b25565b50816004866040518082805190602001908083835b602083106117895780518252601f19909201916020918201910161176a565b51815160209384036101000a600019018019909216911617905292019485525060405193849003810190932084516117ce956003909201949190910192509050613b25565b50806004866040518082805190602001908083835b602083106118025780518252601f1990920191602091820191016117e3565b51815160209384036101000a600019018019909216911617905292019485525060405193849003019092206005019290925550508251158015906118465750815115155b6118815760405162461bcd60e51b815260040180806020018281038252602c815260200180613bed602c913960400191505060405180910390fd5b60016004866040518082805190602001908083835b602083106118b55780518252601f199092019160209182019101611896565b51815160209384036101000a60001901801990921691161790529201948552506040519384900381018420600801805460ff60a01b1916600160a01b961515969096029590951790945550508651600192600492899290918291908401908083835b602083106119365780518252601f199092019160209182019101611917565b51815160209384036101000a60001901801990921691161790529201948552506040519384900381018420600801805460ff60a81b1916600160a81b961515969096029590951790945550508651600092600492899290918291908401908083835b602083106119b75780518252601f199092019160209182019101611998565b51815160209384036101000a60001901801990921691161790529201948552506040519384900381018420600801805460ff60b01b1916600160b01b961515969096029590951790945550508551600192600292889290918291908401908083835b60208310611a385780518252601f199092019160209182019101611a19565b51815160209384036101000a600019018019909216911617905292019485525060405193849003019092206007908101805490935060ff191691506001908490811115611a8157fe5b0217905550426004866040518082805190602001908083835b60208310611ab95780518252601f199092019160209182019101611a9a565b51815160209384036101000a6000190180199092169116179052920194855250604051938490038101842060070194909455505086513392600492899290918291908401908083835b60208310611b215780518252601f199092019160209182019101611b02565b51815160209384036101000a6000190180199092169116179052920194855250604051938490038101842060080180546001600160a01b0319166001600160a01b0396909616959095179094555050865160049288929182918401908083835b60208310611ba05780518252601f199092019160209182019101611b81565b51815160209384036101000a600019018019909216911617905292019485525060405193849003810184206008015489516001600160a01b03909116947f374f5882f0cc217ec34bfc0c8c62216c955345db4129e0acd4d57b8ddd9b6d0f94508a9350600492849282918401908083835b60208310611c305780518252601f199092019160209182019101611c11565b51815160209384036101000a600019018019909216911617905292019485525060408051948590038201852060070154858301819052818652865191860191909152855190949350839250606083019186019080838360005b83811015611ca1578181015183820152602001611c89565b50505050905090810190601f168015611cce5780820380516001836020036101000a031916815260200191505b50935050505060405180910390a25050505050565b60006004826040518082805190602001908083835b60208310611d175780518252601f199092019160209182019101611cf8565b51815160209384036101000a6000190180199092169116179052920194855250604051938490030190922060080154600160b01b900460ff16949350505050565b60018181548110611d6557fe5b600091825260209182902001805460408051601f6002600019610100600187161502019094169390930492830185900485028101850190915281815293509091830182828015611df65780601f10611dcb57610100808354040283529160200191611df6565b820191906000526020600020905b815481529060010190602001808311611dd957829003601f168201915b505050505081565b60006004826040518082805190602001908083835b60208310611e325780518252601f199092019160209182019101611e13565b51815160209384036101000a6000190180199092169116179052920194855250604051938490030190922060080154600160a81b900460ff16949350505050565b60038181548110611d6557fe5b60058181548110611d6557fe5b6000846004876040518082805190602001908083835b60208310611ec25780518252601f199092019160209182019101611ea3565b6001836020036101000a03801982511681845116808217855250505050505090500191505090815260200160405180910390206001019080519060200190611f0b929190613b25565b50836004876040518082805190602001908083835b60208310611f3f5780518252601f199092019160209182019101611f20565b51815160209384036101000a60001901801990921691161790529201948552506040519384900381019093208451611f84956002909201949190910192509050613b25565b50826004876040518082805190602001908083835b60208310611fb85780518252601f199092019160209182019101611f99565b51815160209384036101000a60001901801990921691161790529201948552506040519384900381019093208451611ffd956003909201949190910192509050613b25565b50426004876040518082805190602001908083835b602083106120315780518252601f199092019160209182019101612012565b51815160209384036101000a600019018019909216911617905292019485525060405193849003810184206004908101959095558a514295948c9450925082918401908083835b602083106120975780518252601f199092019160209182019101612078565b51815160209384036101000a60001901801990921691161790529201948552506040519384900381018420600701949094555050875184926004928a9290918291908401908083835b602083106120ff5780518252601f1990920191602091820191016120e0565b51815160209384036101000a60001901801990921691161790529201948552506040519384900381018420600501949094555050875133926004928a9290918291908401908083835b602083106121675780518252601f199092019160209182019101612148565b51815160209384036101000a6000190180199092169116179052920194855250604051938490030190922060060180546001600160a01b0319166001600160a01b03949094169390931790925550508351158015906121c65750825115155b6122015760405162461bcd60e51b815260040180806020018281038252602c815260200180613bed602c913960400191505060405180910390fd5b60016004876040518082805190602001908083835b602083106122355780518252601f199092019160209182019101612216565b51815160209384036101000a60001901801990921691161790529201948552506040519384900381018420600801805460ff60a01b1916600160a01b9615159690960295909517909455505087516001926004928a9290918291908401908083835b602083106122b65780518252601f199092019160209182019101612297565b51815160209384036101000a60001901801990921691161790529201948552506040519384900381018420600801805460ff60a81b1916600160a81b9615159690960295909517909455505087516000926004928a9290918291908401908083835b602083106123375780518252601f199092019160209182019101612318565b51815160209384036101000a6000190180199092169116179052920194855250604051938490038101909320600801805460ff60b01b1916600160b01b9515159590950294909417909355506005805460018101825560009190915288516123c793507f036b6384b5eca791c62761152d0c79bb0604c104a5fb6f4eb0703f3154bb3db090910191890190613b25565b5060016002866040518082805190602001908083835b602083106123fc5780518252601f1990920191602091820191016123dd565b51815160209384036101000a600019018019909216911617905292019485525060405193849003019092206007908101805490935060ff19169150600190849081111561244557fe5b02179055506004866040518082805190602001908083835b6020831061247c5780518252601f19909201916020918201910161245d565b51815160209384036101000a60001901801990921691161790529201948552506040519384900381018420600601548a516001600160a01b03909116947f2a3f32cd23cdb568cc4c978b444a6336f123c5cc70a969c95f715c63f138c46794508b93508a926004928592918291908401908083835b602083106125105780518252601f1990920191602091820191016124f1565b51815160209384036101000a600019018019909216911617905292019485525060408051948590038201852060080154600160a81b900460ff168015159186019190915260608086528751908601528651909493508392508282019160808401919088019080838360005b8381101561259357818101518382015260200161257b565b50505050905090810190601f1680156125c05780820380516001836020036101000a031916815260200191505b50838103825285518152855160209182019187019080838360005b838110156125f35781810151838201526020016125db565b50505050905090810190601f1680156126205780820380516001836020036101000a031916815260200191505b509550505050505060405180910390a250600195945050505050565b6003545b90565b60008860008b6040518082805190602001908083835b602083106126785780518252601f199092019160209182019101612659565b6001836020036101000a038019825116818451168082178552505050505050905001915050908152602001604051809103902060010190805190602001906126c1929190613b25565b508760008b6040518082805190602001908083835b602083106126f55780518252601f1990920191602091820191016126d6565b51815160209384036101000a6000190180199092169116179052920194855250604051938490038101842060020180546001600160a01b0319166001600160a01b03969096169590951790945550508b5189926000928e9290918291908401908083835b602083106127785780518252601f199092019160209182019101612759565b51815160209384036101000a60001901801990921691161790529201948552506040519384900381018420600201805460ff60a01b1916600160a01b961515969096029590951790945550508b5188926000928e9290918291908401908083835b602083106127f85780518252601f1990920191602091820191016127d9565b51815160209384036101000a60001901801990921691161790529201948552506040519384900381018420600201805460ff60a81b1916600160a81b961515969096029590951790945550508b5187926000928e9290918291908401908083835b602083106128785780518252601f199092019160209182019101612859565b51815160209384036101000a60001901801990921691161790529201948552506040519384900381018420600201805460ff60b01b1916600160b01b961515969096029590951790945550508b5186926000928e9290918291908401908083835b602083106128f85780518252601f1990920191602091820191016128d9565b51815160209384036101000a60001901801990921691161790529201948552506040519384900381018420600201805460ff60b81b1916600160b81b961515969096029590951790945550508b5185926000928e9290918291908401908083835b602083106129785780518252601f199092019160209182019101612959565b51815160209384036101000a60001901801990921691161790529201948552506040519384900381018420600201805460ff60c81b1916600160c81b961515969096029590951790945550508b5184926000928e9290918291908401908083835b602083106129f85780518252601f1990920191602091820191016129d9565b51815160209384036101000a6000190180199092169116179052920194855250604051938490038101909320600201805460ff60c01b1916600160c01b9515159590950294909417909355506001805480820182556000919091528c51612a8793507fb10e2d527612073b26eecdfd717e6a320cf44b4afac2b0732d9fcbe2b7fa0cf6909101918d0190613b25565b50876001600160a01b03167f8d773bb54839d9388759bb91f7a28541064abf2af224740c51c8e1970fb908de8b8b604051808060200180602001838103835285818151815260200191508051906020019080838360005b83811015612af6578181015183820152602001612ade565b50505050905090810190601f168015612b235780820380516001836020036101000a031916815260200191505b50838103825284518152845160209182019186019080838360005b83811015612b56578181015183820152602001612b3e565b50505050905090810190601f168015612b835780820380516001836020036101000a031916815260200191505b5094505050505060405180910390a25060019998505050505050505050565b60055490565b60008060608060006060806002886040518082805190602001908083835b60208310612be55780518252601f199092019160209182019101612bc6565b51815160209384036101000a60001901801990921691161790529201948552506040519384900381018420600101548c516001600160a01b0390911694600294508d9350918291908401908083835b60208310612c535780518252601f199092019160209182019101612c34565b51815160209384036101000a600019018019909216911617905292019485525060405193849003810184206002908101548e516001600160a01b03909116959194508e935090918291908401908083835b60208310612cc35780518252601f199092019160209182019101612ca4565b6001836020036101000a038019825116818451168082178552505050505050905001915050908152602001604051809103902060030160028b6040518082805190602001908083835b60208310612d2b5780518252601f199092019160209182019101612d0c565b6001836020036101000a038019825116818451168082178552505050505050905001915050908152602001604051809103902060040160028c6040518082805190602001908083835b60208310612d935780518252601f199092019160209182019101612d74565b6001836020036101000a03801982511681845116808217855250505050505090500191505090815260200160405180910390206005015460028d6040518082805190602001908083835b60208310612dfc5780518252601f199092019160209182019101612ddd565b6001836020036101000a038019825116818451168082178552505050505050905001915050908152602001604051809103902060060160028e6040518082805190602001908083835b60208310612e645780518252601f199092019160209182019101612e45565b518151600019602094850361010090810a820192831692199390931691909117909252949092019687526040805197889003820188208c54601f60026001831615909802909501169590950492830182900482028801820190528187526008909301959450899350918401905082828015612f205780601f10612ef557610100808354040283529160200191612f20565b820191906000526020600020905b815481529060010190602001808311612f0357829003601f168201915b5050875460408051602060026001851615610100026000190190941693909304601f8101849004840282018401909252818152959a5089945092508401905082828015612fae5780601f10612f8357610100808354040283529160200191612fae565b820191906000526020600020905b815481529060010190602001808311612f9157829003601f168201915b5050855460408051602060026001851615610100026000190190941693909304601f81018490048402820184019092528181529599508794509250840190508282801561303c5780601f106130115761010080835404028352916020019161303c565b820191906000526020600020905b81548152906001019060200180831161301f57829003601f168201915b5050845460408051602060026001851615610100026000190190941693909304601f8101849004840282018401909252818152959750869450925084019050828280156130ca5780601f1061309f576101008083540402835291602001916130ca565b820191906000526020600020905b8154815290600101906020018083116130ad57829003601f168201915b505050505090509650965096509650965096509650919395979092949650565b336001600160a01b03881614156131325760405162461bcd60e51b815260040180806020018281038252602f815260200180613bbe602f913960400191505060405180910390fd5b866002896040518082805190602001908083835b602083106131655780518252601f199092019160209182019101613146565b51815160209384036101000a6000190180199092169116179052920194855250604051938490038101842060010180546001600160a01b0319166001600160a01b0396909616959095179094555050895188926002928c9290918291908401908083835b602083106131e85780518252601f1990920191602091820191016131c9565b51815160209384036101000a60001901801990921691161790529201948552506040519384900381018420600290810180546001600160a01b0319166001600160a01b0397909716969096179095558c518a95948e9450925082918401908083835b602083106132695780518252601f19909201916020918201910161324a565b51815160209384036101000a600019018019909216911617905292019485525060405193849003810190932084516132ae956003909201949190910192509050613b25565b50836002896040518082805190602001908083835b602083106132e25780518252601f1990920191602091820191016132c3565b51815160209384036101000a60001901801990921691161790529201948552506040519384900381019093208451613327956004909201949190910192509050613b25565b50426002896040518082805190602001908083835b6020831061335b5780518252601f19909201916020918201910161333c565b51815160209384036101000a60001901801990921691161790529201948552506040519384900381018420600501949094555050895185926002928c9290918291908401908083835b602083106133c35780518252601f1990920191602091820191016133a4565b51815160209384036101000a60001901801990921691161790529201948552506040519384900381019093208451613408956006909201949190910192509050613b25565b50816002896040518082805190602001908083835b6020831061343c5780518252601f19909201916020918201910161341d565b51815160209384036101000a60001901801990921691161790529201948552506040519384900381019093208451613481956009909201949190910192509050613b25565b5060006002896040518082805190602001908083835b602083106134b65780518252601f199092019160209182019101613497565b6001836020036101000a038019825116818451168082178552505050505050905001915050908152602001604051809103902060070160016101000a81548160ff0219169083600781111561350757fe5b0217905550806002896040518082805190602001908083835b6020831061353f5780518252601f199092019160209182019101613520565b51815160209384036101000a60001901801990921691161790529201948552506040519384900381019093208451613584956008909201949190910192509050613b25565b5060006002896040518082805190602001908083835b602083106135b95780518252601f19909201916020918201910161359a565b51815160209384036101000a600019018019909216911617905292019485525060405193849003019092206007908101805490935060ff19169150600190849081111561360257fe5b021790555060038054600181018255600091909152885161364a917fc2575a0e9e593c00f959f8c92f12db2869c3395a3b0502d05e2516446f71f85b019060208b0190613b25565b50866001600160a01b0316866001600160a01b03167f1020e6cb9de82f5f439a5729e80382ea318c4a2492e35fd7949f65fe923373788a6040518080602001828103825283818151815260200191508051906020019080838360005b838110156136be5781810151838201526020016136a6565b50505050905090810190601f1680156136eb5780820380516001836020036101000a031916815260200191505b509250505060405180910390a35050505050505050565b506005543390600090801561398e576001600160a01b038316613764576040805162461bcd60e51b8152602060048201526015602482015274417070726f7665724944207265717569726564202160581b604482015290519081900360640190fd5b60001981015b6005818154811061377757fe5b600091825260209182902001805460408051601f60026000196101006001871615020190941693909304928301859004850281018501909152818152928301828280156138055780601f106137da57610100808354040283529160200191613805565b820191906000526020600020905b8154815290600101906020018083116137e857829003601f168201915b505050505094506004856040518082805190602001908083835b6020831061383e5780518252601f19909201916020918201910161381f565b51815160209384036101000a60001901801990921691161790529201948552506040519384900301909220600501544210915061397990505760016004866040518082805190602001908083835b602083106138ab5780518252601f19909201916020918201910161388c565b51815160209384036101000a60001901801990921691161790529201948552506040519384900381018420600801805460ff60b01b1916600160b01b961515969096029590951790945550508651600092600492899290918291908401908083835b6020831061392c5780518252601f19909201916020918201910161390d565b51815160209384036101000a60001901801990921691161790529201948552506040519384900301909220600801805460ff60a81b1916600160a81b941515949094029390931790925550505b806139835761398c565b6000190161376a565b505b826001600160a01b03167f2c3e25ffb6290f0dc5bfc62dd89b060b8a0ed25f97fbdc1420481131f01a73fc856004876040518082805190602001908083835b602083106139ec5780518252601f1990920191602091820191016139cd565b51815160209384036101000a60001901801990921691161790529201948552506040519384900381018420600801548b51600160a81b90910460ff1694600494508c9350918291908401908083835b60208310613a5a5780518252601f199092019160209182019101613a3b565b51815160209384036101000a60001901801990921691161790529201948552506040805194859003820185206008015486151586840152600160b01b900460ff16801515918601919091526060808652875190860152865190949350839250608083019187019080838360005b83811015613adf578181015183820152602001613ac7565b50505050905090810190601f168015613b0c5780820380516001836020036101000a031916815260200191505b5094505050505060405180910390a25060019392505050565b828054600181600116156101000203166002900490600052602060002090601f016020900481019282601f10613b6657805160ff1916838001178555613b93565b82800160010185558215613b93579182015b82811115613b93578251825591602001919060010190613b78565b50613b9f929150613ba3565b5090565b61264091905b80821115613b9f5760008155600101613ba956fe4f6e6c79204461746120436f6e73756d6572732063616e20706572666f726d2074686973206f7065726174696f6e21426f7468207369676e6174757265732066726f6d20445320616e642044432061726520726571756972656421a26469706673582212203afedaec9919f03bb54e2679c09059c5d66dca6281bf6e5f82e6cda4360a1d6a64736f6c63430006060033",
			"opcodes": "PUSH1 0x80 PUSH1 0x40 MSTORE CALLVALUE DUP1 ISZERO PUSH2 0x10 JUMPI PUSH1 0x0 DUP1 REVERT JUMPDEST POP PUSH2 0x3C4E DUP1 PUSH2 0x20 PUSH1 0x0 CODECOPY PUSH1 0x0 RETURN INVALID PUSH1 0x80 PUSH1 0x40 MSTORE CALLVALUE DUP1 ISZERO PUSH2 0x10 JUMPI PUSH1 0x0 DUP1 REVERT JUMPDEST POP PUSH1 0x4 CALLDATASIZE LT PUSH2 0xEA JUMPI PUSH1 0x0 CALLDATALOAD PUSH1 0xE0 SHR DUP1 PUSH4 0x9D179E5C GT PUSH2 0x8C JUMPI DUP1 PUSH4 0xD0C3D816 GT PUSH2 0x66 JUMPI DUP1 PUSH4 0xD0C3D816 EQ PUSH2 0xB09 JUMPI DUP1 PUSH4 0xD6B8674B EQ PUSH2 0xB11 JUMPI DUP1 PUSH4 0xE21B5BF1 EQ PUSH2 0xD98 JUMPI DUP1 PUSH4 0xEA639258 EQ PUSH2 0x10EF JUMPI PUSH2 0xEA JUMP JUMPDEST DUP1 PUSH4 0x9D179E5C EQ PUSH2 0x758 JUMPI DUP1 PUSH4 0xA7A88DE6 EQ PUSH2 0x98D JUMPI DUP1 PUSH4 0xC7B41845 EQ PUSH2 0x9A7 JUMPI PUSH2 0xEA JUMP JUMPDEST DUP1 PUSH4 0x64C4AAC4 GT PUSH2 0xC8 JUMPI DUP1 PUSH4 0x64C4AAC4 EQ PUSH2 0x5E8 JUMPI DUP1 PUSH4 0x6AD4D0E9 EQ PUSH2 0x67A JUMPI DUP1 PUSH4 0x7B1AA41F EQ PUSH2 0x71E JUMPI DUP1 PUSH4 0x7D9776B1 EQ PUSH2 0x73B JUMPI PUSH2 0xEA JUMP JUMPDEST DUP1 PUSH4 0x3946C0D7 EQ PUSH2 0xEF JUMPI DUP1 PUSH4 0x4852434B EQ PUSH2 0x2F9 JUMPI DUP1 PUSH4 0x58B50C63 EQ PUSH2 0x530 JUMPI JUMPDEST PUSH1 0x0 DUP1 REVERT JUMPDEST PUSH2 0x193 PUSH1 0x4 DUP1 CALLDATASIZE SUB PUSH1 0x20 DUP2 LT ISZERO PUSH2 0x105 JUMPI PUSH1 0x0 DUP1 REVERT JUMPDEST DUP2 ADD SWAP1 PUSH1 0x20 DUP2 ADD DUP2 CALLDATALOAD PUSH1 0x1 PUSH1 0x20 SHL DUP2 GT ISZERO PUSH2 0x11F JUMPI PUSH1 0x0 DUP1 REVERT JUMPDEST DUP3 ADD DUP4 PUSH1 0x20 DUP3 ADD GT ISZERO PUSH2 0x131 JUMPI PUSH1 0x0 DUP1 REVERT JUMPDEST DUP1 CALLDATALOAD SWAP1 PUSH1 0x20 ADD SWAP2 DUP5 PUSH1 0x1 DUP4 MUL DUP5 ADD GT PUSH1 0x1 PUSH1 0x20 SHL DUP4 GT OR ISZERO PUSH2 0x152 JUMPI PUSH1 0x0 DUP1 REVERT JUMPDEST SWAP2 SWAP1 DUP1 DUP1 PUSH1 0x1F ADD PUSH1 0x20 DUP1 SWAP2 DIV MUL PUSH1 0x20 ADD PUSH1 0x40 MLOAD SWAP1 DUP2 ADD PUSH1 0x40 MSTORE DUP1 SWAP4 SWAP3 SWAP2 SWAP1 DUP2 DUP2 MSTORE PUSH1 0x20 ADD DUP4 DUP4 DUP1 DUP3 DUP5 CALLDATACOPY PUSH1 0x0 SWAP3 ADD SWAP2 SWAP1 SWAP2 MSTORE POP SWAP3 SWAP6 POP PUSH2 0x119E SWAP5 POP POP POP POP POP JUMP JUMPDEST PUSH1 0x40 DUP1 MLOAD PUSH1 0x60 DUP2 ADD DUP7 SWAP1 MSTORE PUSH1 0x80 DUP2 ADD DUP6 SWAP1 MSTORE DUP4 ISZERO ISZERO PUSH1 0xA0 DUP3 ADD MSTORE DUP3 ISZERO ISZERO PUSH1 0xC0 DUP3 ADD MSTORE PUSH1 0xE0 DUP1 DUP3 MSTORE DUP10 MLOAD SWAP1 DUP3 ADD MSTORE DUP9 MLOAD SWAP1 SWAP2 DUP3 SWAP2 PUSH1 0x20 DUP1 DUP5 ADD SWAP3 DUP5 ADD SWAP2 PUSH2 0x100 DUP6 ADD SWAP2 DUP14 ADD SWAP1 DUP1 DUP4 DUP4 PUSH1 0x0 JUMPDEST DUP4 DUP2 LT ISZERO PUSH2 0x1F6 JUMPI DUP2 DUP2 ADD MLOAD DUP4 DUP3 ADD MSTORE PUSH1 0x20 ADD PUSH2 0x1DE JUMP JUMPDEST POP POP POP POP SWAP1 POP SWAP1 DUP2 ADD SWAP1 PUSH1 0x1F AND DUP1 ISZERO PUSH2 0x223 JUMPI DUP1 DUP3 SUB DUP1 MLOAD PUSH1 0x1 DUP4 PUSH1 0x20 SUB PUSH2 0x100 EXP SUB NOT AND DUP2 MSTORE PUSH1 0x20 ADD SWAP2 POP JUMPDEST POP DUP5 DUP2 SUB DUP4 MSTORE DUP11 MLOAD DUP2 MSTORE DUP11 MLOAD PUSH1 0x20 SWAP2 DUP3 ADD SWAP2 DUP13 ADD SWAP1 DUP1 DUP4 DUP4 PUSH1 0x0 JUMPDEST DUP4 DUP2 LT ISZERO PUSH2 0x256 JUMPI DUP2 DUP2 ADD MLOAD DUP4 DUP3 ADD MSTORE PUSH1 0x20 ADD PUSH2 0x23E JUMP JUMPDEST POP POP POP POP SWAP1 POP SWAP1 DUP2 ADD SWAP1 PUSH1 0x1F AND DUP1 ISZERO PUSH2 0x283 JUMPI DUP1 DUP3 SUB DUP1 MLOAD PUSH1 0x1 DUP4 PUSH1 0x20 SUB PUSH2 0x100 EXP SUB NOT AND DUP2 MSTORE PUSH1 0x20 ADD SWAP2 POP JUMPDEST POP DUP5 DUP2 SUB DUP3 MSTORE DUP10 MLOAD DUP2 MSTORE DUP10 MLOAD PUSH1 0x20 SWAP2 DUP3 ADD SWAP2 DUP12 ADD SWAP1 DUP1 DUP4 DUP4 PUSH1 0x0 JUMPDEST DUP4 DUP2 LT ISZERO PUSH2 0x2B6 JUMPI DUP2 DUP2 ADD MLOAD DUP4 DUP3 ADD MSTORE PUSH1 0x20 ADD PUSH2 0x29E JUMP JUMPDEST POP POP POP POP SWAP1 POP SWAP1 DUP2 ADD SWAP1 PUSH1 0x1F AND DUP1 ISZERO PUSH2 0x2E3 JUMPI DUP1 DUP3 SUB DUP1 MLOAD PUSH1 0x1 DUP4 PUSH1 0x20 SUB PUSH2 0x100 EXP SUB NOT AND DUP2 MSTORE PUSH1 0x20 ADD SWAP2 POP JUMPDEST POP SWAP11 POP POP POP POP POP POP POP POP POP POP POP PUSH1 0x40 MLOAD DUP1 SWAP2 SUB SWAP1 RETURN JUMPDEST PUSH2 0x52E PUSH1 0x4 DUP1 CALLDATASIZE SUB PUSH1 0xA0 DUP2 LT ISZERO PUSH2 0x30F JUMPI PUSH1 0x0 DUP1 REVERT JUMPDEST DUP2 ADD SWAP1 PUSH1 0x20 DUP2 ADD DUP2 CALLDATALOAD PUSH1 0x1 PUSH1 0x20 SHL DUP2 GT ISZERO PUSH2 0x329 JUMPI PUSH1 0x0 DUP1 REVERT JUMPDEST DUP3 ADD DUP4 PUSH1 0x20 DUP3 ADD GT ISZERO PUSH2 0x33B JUMPI PUSH1 0x0 DUP1 REVERT JUMPDEST DUP1 CALLDATALOAD SWAP1 PUSH1 0x20 ADD SWAP2 DUP5 PUSH1 0x1 DUP4 MUL DUP5 ADD GT PUSH1 0x1 PUSH1 0x20 SHL DUP4 GT OR ISZERO PUSH2 0x35C JUMPI PUSH1 0x0 DUP1 REVERT JUMPDEST SWAP2 SWAP1 DUP1 DUP1 PUSH1 0x1F ADD PUSH1 0x20 DUP1 SWAP2 DIV MUL PUSH1 0x20 ADD PUSH1 0x40 MLOAD SWAP1 DUP2 ADD PUSH1 0x40 MSTORE DUP1 SWAP4 SWAP3 SWAP2 SWAP1 DUP2 DUP2 MSTORE PUSH1 0x20 ADD DUP4 DUP4 DUP1 DUP3 DUP5 CALLDATACOPY PUSH1 0x0 SWAP3 ADD SWAP2 SWAP1 SWAP2 MSTORE POP SWAP3 SWAP6 SWAP5 SWAP4 PUSH1 0x20 DUP2 ADD SWAP4 POP CALLDATALOAD SWAP2 POP POP PUSH1 0x1 PUSH1 0x20 SHL DUP2 GT ISZERO PUSH2 0x3AE JUMPI PUSH1 0x0 DUP1 REVERT JUMPDEST DUP3 ADD DUP4 PUSH1 0x20 DUP3 ADD GT ISZERO PUSH2 0x3C0 JUMPI PUSH1 0x0 DUP1 REVERT JUMPDEST DUP1 CALLDATALOAD SWAP1 PUSH1 0x20 ADD SWAP2 DUP5 PUSH1 0x1 DUP4 MUL DUP5 ADD GT PUSH1 0x1 PUSH1 0x20 SHL DUP4 GT OR ISZERO PUSH2 0x3E1 JUMPI PUSH1 0x0 DUP1 REVERT JUMPDEST SWAP2 SWAP1 DUP1 DUP1 PUSH1 0x1F ADD PUSH1 0x20 DUP1 SWAP2 DIV MUL PUSH1 0x20 ADD PUSH1 0x40 MLOAD SWAP1 DUP2 ADD PUSH1 0x40 MSTORE DUP1 SWAP4 SWAP3 SWAP2 SWAP1 DUP2 DUP2 MSTORE PUSH1 0x20 ADD DUP4 DUP4 DUP1 DUP3 DUP5 CALLDATACOPY PUSH1 0x0 SWAP3 ADD SWAP2 SWAP1 SWAP2 MSTORE POP SWAP3 SWAP6 SWAP5 SWAP4 PUSH1 0x20 DUP2 ADD SWAP4 POP CALLDATALOAD SWAP2 POP POP PUSH1 0x1 PUSH1 0x20 SHL DUP2 GT ISZERO PUSH2 0x433 JUMPI PUSH1 0x0 DUP1 REVERT JUMPDEST DUP3 ADD DUP4 PUSH1 0x20 DUP3 ADD GT ISZERO PUSH2 0x445 JUMPI PUSH1 0x0 DUP1 REVERT JUMPDEST DUP1 CALLDATALOAD SWAP1 PUSH1 0x20 ADD SWAP2 DUP5 PUSH1 0x1 DUP4 MUL DUP5 ADD GT PUSH1 0x1 PUSH1 0x20 SHL DUP4 GT OR ISZERO PUSH2 0x466 JUMPI PUSH1 0x0 DUP1 REVERT JUMPDEST SWAP2 SWAP1 DUP1 DUP1 PUSH1 0x1F ADD PUSH1 0x20 DUP1 SWAP2 DIV MUL PUSH1 0x20 ADD PUSH1 0x40 MLOAD SWAP1 DUP2 ADD PUSH1 0x40 MSTORE DUP1 SWAP4 SWAP3 SWAP2 SWAP1 DUP2 DUP2 MSTORE PUSH1 0x20 ADD DUP4 DUP4 DUP1 DUP3 DUP5 CALLDATACOPY PUSH1 0x0 SWAP3 ADD SWAP2 SWAP1 SWAP2 MSTORE POP SWAP3 SWAP6 SWAP5 SWAP4 PUSH1 0x20 DUP2 ADD SWAP4 POP CALLDATALOAD SWAP2 POP POP PUSH1 0x1 PUSH1 0x20 SHL DUP2 GT ISZERO PUSH2 0x4B8 JUMPI PUSH1 0x0 DUP1 REVERT JUMPDEST DUP3 ADD DUP4 PUSH1 0x20 DUP3 ADD GT ISZERO PUSH2 0x4CA JUMPI PUSH1 0x0 DUP1 REVERT JUMPDEST DUP1 CALLDATALOAD SWAP1 PUSH1 0x20 ADD SWAP2 DUP5 PUSH1 0x1 DUP4 MUL DUP5 ADD GT PUSH1 0x1 PUSH1 0x20 SHL DUP4 GT OR ISZERO PUSH2 0x4EB JUMPI PUSH1 0x0 DUP1 REVERT JUMPDEST SWAP2 SWAP1 DUP1 DUP1 PUSH1 0x1F ADD PUSH1 0x20 DUP1 SWAP2 DIV MUL PUSH1 0x20 ADD PUSH1 0x40 MLOAD SWAP1 DUP2 ADD PUSH1 0x40 MSTORE DUP1 SWAP4 SWAP3 SWAP2 SWAP1 DUP2 DUP2 MSTORE PUSH1 0x20 ADD DUP4 DUP4 DUP1 DUP3 DUP5 CALLDATACOPY PUSH1 0x0 SWAP3 ADD SWAP2 SWAP1 SWAP2 MSTORE POP SWAP3 SWAP6 POP POP SWAP2 CALLDATALOAD SWAP3 POP PUSH2 0x1660 SWAP2 POP POP JUMP JUMPDEST STOP JUMPDEST PUSH2 0x5D4 PUSH1 0x4 DUP1 CALLDATASIZE SUB PUSH1 0x20 DUP2 LT ISZERO PUSH2 0x546 JUMPI PUSH1 0x0 DUP1 REVERT JUMPDEST DUP2 ADD SWAP1 PUSH1 0x20 DUP2 ADD DUP2 CALLDATALOAD PUSH1 0x1 PUSH1 0x20 SHL DUP2 GT ISZERO PUSH2 0x560 JUMPI PUSH1 0x0 DUP1 REVERT JUMPDEST DUP3 ADD DUP4 PUSH1 0x20 DUP3 ADD GT ISZERO PUSH2 0x572 JUMPI PUSH1 0x0 DUP1 REVERT JUMPDEST DUP1 CALLDATALOAD SWAP1 PUSH1 0x20 ADD SWAP2 DUP5 PUSH1 0x1 DUP4 MUL DUP5 ADD GT PUSH1 0x1 PUSH1 0x20 SHL DUP4 GT OR ISZERO PUSH2 0x593 JUMPI PUSH1 0x0 DUP1 REVERT JUMPDEST SWAP2 SWAP1 DUP1 DUP1 PUSH1 0x1F ADD PUSH1 0x20 DUP1 SWAP2 DIV MUL PUSH1 0x20 ADD PUSH1 0x40 MLOAD SWAP1 DUP2 ADD PUSH1 0x40 MSTORE DUP1 SWAP4 SWAP3 SWAP2 SWAP1 DUP2 DUP2 MSTORE PUSH1 0x20 ADD DUP4 DUP4 DUP1 DUP3 DUP5 CALLDATACOPY PUSH1 0x0 SWAP3 ADD SWAP2 SWAP1 SWAP2 MSTORE POP SWAP3 SWAP6 POP PUSH2 0x1CE3 SWAP5 POP POP POP POP POP JUMP JUMPDEST PUSH1 0x40 DUP1 MLOAD SWAP2 ISZERO ISZERO DUP3 MSTORE MLOAD SWAP1 DUP2 SWAP1 SUB PUSH1 0x20 ADD SWAP1 RETURN JUMPDEST PUSH2 0x605 PUSH1 0x4 DUP1 CALLDATASIZE SUB PUSH1 0x20 DUP2 LT ISZERO PUSH2 0x5FE JUMPI PUSH1 0x0 DUP1 REVERT JUMPDEST POP CALLDATALOAD PUSH2 0x1D58 JUMP JUMPDEST PUSH1 0x40 DUP1 MLOAD PUSH1 0x20 DUP1 DUP3 MSTORE DUP4 MLOAD DUP2 DUP4 ADD MSTORE DUP4 MLOAD SWAP2 SWAP3 DUP4 SWAP3 SWAP1 DUP4 ADD SWAP2 DUP6 ADD SWAP1 DUP1 DUP4 DUP4 PUSH1 0x0 JUMPDEST DUP4 DUP2 LT ISZERO PUSH2 0x63F JUMPI DUP2 DUP2 ADD MLOAD DUP4 DUP3 ADD MSTORE PUSH1 0x20 ADD PUSH2 0x627 JUMP JUMPDEST POP POP POP POP SWAP1 POP SWAP1 DUP2 ADD SWAP1 PUSH1 0x1F AND DUP1 ISZERO PUSH2 0x66C JUMPI DUP1 DUP3 SUB DUP1 MLOAD PUSH1 0x1 DUP4 PUSH1 0x20 SUB PUSH2 0x100 EXP SUB NOT AND DUP2 MSTORE PUSH1 0x20 ADD SWAP2 POP JUMPDEST POP SWAP3 POP POP POP PUSH1 0x40 MLOAD DUP1 SWAP2 SUB SWAP1 RETURN JUMPDEST PUSH2 0x5D4 PUSH1 0x4 DUP1 CALLDATASIZE SUB PUSH1 0x20 DUP2 LT ISZERO PUSH2 0x690 JUMPI PUSH1 0x0 DUP1 REVERT JUMPDEST DUP2 ADD SWAP1 PUSH1 0x20 DUP2 ADD DUP2 CALLDATALOAD PUSH1 0x1 PUSH1 0x20 SHL DUP2 GT ISZERO PUSH2 0x6AA JUMPI PUSH1 0x0 DUP1 REVERT JUMPDEST DUP3 ADD DUP4 PUSH1 0x20 DUP3 ADD GT ISZERO PUSH2 0x6BC JUMPI PUSH1 0x0 DUP1 REVERT JUMPDEST DUP1 CALLDATALOAD SWAP1 PUSH1 0x20 ADD SWAP2 DUP5 PUSH1 0x1 DUP4 MUL DUP5 ADD GT PUSH1 0x1 PUSH1 0x20 SHL DUP4 GT OR ISZERO PUSH2 0x6DD JUMPI PUSH1 0x0 DUP1 REVERT JUMPDEST SWAP2 SWAP1 DUP1 DUP1 PUSH1 0x1F ADD PUSH1 0x20 DUP1 SWAP2 DIV MUL PUSH1 0x20 ADD PUSH1 0x40 MLOAD SWAP1 DUP2 ADD PUSH1 0x40 MSTORE DUP1 SWAP4 SWAP3 SWAP2 SWAP1 DUP2 DUP2 MSTORE PUSH1 0x20 ADD DUP4 DUP4 DUP1 DUP3 DUP5 CALLDATACOPY PUSH1 0x0 SWAP3 ADD SWAP2 SWAP1 SWAP2 MSTORE POP SWAP3 SWAP6 POP PUSH2 0x1DFE SWAP5 POP POP POP POP POP JUMP JUMPDEST PUSH2 0x605 PUSH1 0x4 DUP1 CALLDATASIZE SUB PUSH1 0x20 DUP2 LT ISZERO PUSH2 0x734 JUMPI PUSH1 0x0 DUP1 REVERT JUMPDEST POP CALLDATALOAD PUSH2 0x1E73 JUMP JUMPDEST PUSH2 0x605 PUSH1 0x4 DUP1 CALLDATASIZE SUB PUSH1 0x20 DUP2 LT ISZERO PUSH2 0x751 JUMPI PUSH1 0x0 DUP1 REVERT JUMPDEST POP CALLDATALOAD PUSH2 0x1E80 JUMP JUMPDEST PUSH2 0x5D4 PUSH1 0x4 DUP1 CALLDATASIZE SUB PUSH1 0xA0 DUP2 LT ISZERO PUSH2 0x76E JUMPI PUSH1 0x0 DUP1 REVERT JUMPDEST DUP2 ADD SWAP1 PUSH1 0x20 DUP2 ADD DUP2 CALLDATALOAD PUSH1 0x1 PUSH1 0x20 SHL DUP2 GT ISZERO PUSH2 0x788 JUMPI PUSH1 0x0 DUP1 REVERT JUMPDEST DUP3 ADD DUP4 PUSH1 0x20 DUP3 ADD GT ISZERO PUSH2 0x79A JUMPI PUSH1 0x0 DUP1 REVERT JUMPDEST DUP1 CALLDATALOAD SWAP1 PUSH1 0x20 ADD SWAP2 DUP5 PUSH1 0x1 DUP4 MUL DUP5 ADD GT PUSH1 0x1 PUSH1 0x20 SHL DUP4 GT OR ISZERO PUSH2 0x7BB JUMPI PUSH1 0x0 DUP1 REVERT JUMPDEST SWAP2 SWAP1 DUP1 DUP1 PUSH1 0x1F ADD PUSH1 0x20 DUP1 SWAP2 DIV MUL PUSH1 0x20 ADD PUSH1 0x40 MLOAD SWAP1 DUP2 ADD PUSH1 0x40 MSTORE DUP1 SWAP4 SWAP3 SWAP2 SWAP1 DUP2 DUP2 MSTORE PUSH1 0x20 ADD DUP4 DUP4 DUP1 DUP3 DUP5 CALLDATACOPY PUSH1 0x0 SWAP3 ADD SWAP2 SWAP1 SWAP2 MSTORE POP SWAP3 SWAP6 SWAP5 SWAP4 PUSH1 0x20 DUP2 ADD SWAP4 POP CALLDATALOAD SWAP2 POP POP PUSH1 0x1 PUSH1 0x20 SHL DUP2 GT ISZERO PUSH2 0x80D JUMPI PUSH1 0x0 DUP1 REVERT JUMPDEST DUP3 ADD DUP4 PUSH1 0x20 DUP3 ADD GT ISZERO PUSH2 0x81F JUMPI PUSH1 0x0 DUP1 REVERT JUMPDEST DUP1 CALLDATALOAD SWAP1 PUSH1 0x20 ADD SWAP2 DUP5 PUSH1 0x1 DUP4 MUL DUP5 ADD GT PUSH1 0x1 PUSH1 0x20 SHL DUP4 GT OR ISZERO PUSH2 0x840 JUMPI PUSH1 0x0 DUP1 REVERT JUMPDEST SWAP2 SWAP1 DUP1 DUP1 PUSH1 0x1F ADD PUSH1 0x20 DUP1 SWAP2 DIV MUL PUSH1 0x20 ADD PUSH1 0x40 MLOAD SWAP1 DUP2 ADD PUSH1 0x40 MSTORE DUP1 SWAP4 SWAP3 SWAP2 SWAP1 DUP2 DUP2 MSTORE PUSH1 0x20 ADD DUP4 DUP4 DUP1 DUP3 DUP5 CALLDATACOPY PUSH1 0x0 SWAP3 ADD SWAP2 SWAP1 SWAP2 MSTORE POP SWAP3 SWAP6 SWAP5 SWAP4 PUSH1 0x20 DUP2 ADD SWAP4 POP CALLDATALOAD SWAP2 POP POP PUSH1 0x1 PUSH1 0x20 SHL DUP2 GT ISZERO PUSH2 0x892 JUMPI PUSH1 0x0 DUP1 REVERT JUMPDEST DUP3 ADD DUP4 PUSH1 0x20 DUP3 ADD GT ISZERO PUSH2 0x8A4 JUMPI PUSH1 0x0 DUP1 REVERT JUMPDEST DUP1 CALLDATALOAD SWAP1 PUSH1 0x20 ADD SWAP2 DUP5 PUSH1 0x1 DUP4 MUL DUP5 ADD GT PUSH1 0x1 PUSH1 0x20 SHL DUP4 GT OR ISZERO PUSH2 0x8C5 JUMPI PUSH1 0x0 DUP1 REVERT JUMPDEST SWAP2 SWAP1 DUP1 DUP1 PUSH1 0x1F ADD PUSH1 0x20 DUP1 SWAP2 DIV MUL PUSH1 0x20 ADD PUSH1 0x40 MLOAD SWAP1 DUP2 ADD PUSH1 0x40 MSTORE DUP1 SWAP4 SWAP3 SWAP2 SWAP1 DUP2 DUP2 MSTORE PUSH1 0x20 ADD DUP4 DUP4 DUP1 DUP3 DUP5 CALLDATACOPY PUSH1 0x0 SWAP3 ADD SWAP2 SWAP1 SWAP2 MSTORE POP SWAP3 SWAP6 SWAP5 SWAP4 PUSH1 0x20 DUP2 ADD SWAP4 POP CALLDATALOAD SWAP2 POP POP PUSH1 0x1 PUSH1 0x20 SHL DUP2 GT ISZERO PUSH2 0x917 JUMPI PUSH1 0x0 DUP1 REVERT JUMPDEST DUP3 ADD DUP4 PUSH1 0x20 DUP3 ADD GT ISZERO PUSH2 0x929 JUMPI PUSH1 0x0 DUP1 REVERT JUMPDEST DUP1 CALLDATALOAD SWAP1 PUSH1 0x20 ADD SWAP2 DUP5 PUSH1 0x1 DUP4 MUL DUP5 ADD GT PUSH1 0x1 PUSH1 0x20 SHL DUP4 GT OR ISZERO PUSH2 0x94A JUMPI PUSH1 0x0 DUP1 REVERT JUMPDEST SWAP2 SWAP1 DUP1 DUP1 PUSH1 0x1F ADD PUSH1 0x20 DUP1 SWAP2 DIV MUL PUSH1 0x20 ADD PUSH1 0x40 MLOAD SWAP1 DUP2 ADD PUSH1 0x40 MSTORE DUP1 SWAP4 SWAP3 SWAP2 SWAP1 DUP2 DUP2 MSTORE PUSH1 0x20 ADD DUP4 DUP4 DUP1 DUP3 DUP5 CALLDATACOPY PUSH1 0x0 SWAP3 ADD SWAP2 SWAP1 SWAP2 MSTORE POP SWAP3 SWAP6 POP POP SWAP2 CALLDATALOAD SWAP3 POP PUSH2 0x1E8D SWAP2 POP POP JUMP JUMPDEST PUSH2 0x995 PUSH2 0x263C JUMP JUMPDEST PUSH1 0x40 DUP1 MLOAD SWAP2 DUP3 MSTORE MLOAD SWAP1 DUP2 SWAP1 SUB PUSH1 0x20 ADD SWAP1 RETURN JUMPDEST PUSH2 0x5D4 PUSH1 0x4 DUP1 CALLDATASIZE SUB PUSH2 0x120 DUP2 LT ISZERO PUSH2 0x9BE JUMPI PUSH1 0x0 DUP1 REVERT JUMPDEST DUP2 ADD SWAP1 PUSH1 0x20 DUP2 ADD DUP2 CALLDATALOAD PUSH1 0x1 PUSH1 0x20 SHL DUP2 GT ISZERO PUSH2 0x9D8 JUMPI PUSH1 0x0 DUP1 REVERT JUMPDEST DUP3 ADD DUP4 PUSH1 0x20 DUP3 ADD GT ISZERO PUSH2 0x9EA JUMPI PUSH1 0x0 DUP1 REVERT JUMPDEST DUP1 CALLDATALOAD SWAP1 PUSH1 0x20 ADD SWAP2 DUP5 PUSH1 0x1 DUP4 MUL DUP5 ADD GT PUSH1 0x1 PUSH1 0x20 SHL DUP4 GT OR ISZERO PUSH2 0xA0B JUMPI PUSH1 0x0 DUP1 REVERT JUMPDEST SWAP2 SWAP1 DUP1 DUP1 PUSH1 0x1F ADD PUSH1 0x20 DUP1 SWAP2 DIV MUL PUSH1 0x20 ADD PUSH1 0x40 MLOAD SWAP1 DUP2 ADD PUSH1 0x40 MSTORE DUP1 SWAP4 SWAP3 SWAP2 SWAP1 DUP2 DUP2 MSTORE PUSH1 0x20 ADD DUP4 DUP4 DUP1 DUP3 DUP5 CALLDATACOPY PUSH1 0x0 SWAP3 ADD SWAP2 SWAP1 SWAP2 MSTORE POP SWAP3 SWAP6 SWAP5 SWAP4 PUSH1 0x20 DUP2 ADD SWAP4 POP CALLDATALOAD SWAP2 POP POP PUSH1 0x1 PUSH1 0x20 SHL DUP2 GT ISZERO PUSH2 0xA5D JUMPI PUSH1 0x0 DUP1 REVERT JUMPDEST DUP3 ADD DUP4 PUSH1 0x20 DUP3 ADD GT ISZERO PUSH2 0xA6F JUMPI PUSH1 0x0 DUP1 REVERT JUMPDEST DUP1 CALLDATALOAD SWAP1 PUSH1 0x20 ADD SWAP2 DUP5 PUSH1 0x1 DUP4 MUL DUP5 ADD GT PUSH1 0x1 PUSH1 0x20 SHL DUP4 GT OR ISZERO PUSH2 0xA90 JUMPI PUSH1 0x0 DUP1 REVERT JUMPDEST SWAP2 SWAP1 DUP1 DUP1 PUSH1 0x1F ADD PUSH1 0x20 DUP1 SWAP2 DIV MUL PUSH1 0x20 ADD PUSH1 0x40 MLOAD SWAP1 DUP2 ADD PUSH1 0x40 MSTORE DUP1 SWAP4 SWAP3 SWAP2 SWAP1 DUP2 DUP2 MSTORE PUSH1 0x20 ADD DUP4 DUP4 DUP1 DUP3 DUP5 CALLDATACOPY PUSH1 0x0 SWAP3 ADD SWAP2 SWAP1 SWAP2 MSTORE POP SWAP3 SWAP6 POP POP PUSH1 0x1 PUSH1 0x1 PUSH1 0xA0 SHL SUB DUP4 CALLDATALOAD AND SWAP4 POP POP POP PUSH1 0x20 DUP2 ADD CALLDATALOAD ISZERO ISZERO SWAP1 PUSH1 0x40 DUP2 ADD CALLDATALOAD ISZERO ISZERO SWAP1 PUSH1 0x60 DUP2 ADD CALLDATALOAD ISZERO ISZERO SWAP1 PUSH1 0x80 DUP2 ADD CALLDATALOAD ISZERO ISZERO SWAP1 PUSH1 0xA0 DUP2 ADD CALLDATALOAD ISZERO ISZERO SWAP1 PUSH1 0xC0 ADD CALLDATALOAD ISZERO ISZERO PUSH2 0x2643 JUMP JUMPDEST PUSH2 0x995 PUSH2 0x2BA2 JUMP JUMPDEST PUSH2 0xBB5 PUSH1 0x4 DUP1 CALLDATASIZE SUB PUSH1 0x20 DUP2 LT ISZERO PUSH2 0xB27 JUMPI PUSH1 0x0 DUP1 REVERT JUMPDEST DUP2 ADD SWAP1 PUSH1 0x20 DUP2 ADD DUP2 CALLDATALOAD PUSH1 0x1 PUSH1 0x20 SHL DUP2 GT ISZERO PUSH2 0xB41 JUMPI PUSH1 0x0 DUP1 REVERT JUMPDEST DUP3 ADD DUP4 PUSH1 0x20 DUP3 ADD GT ISZERO PUSH2 0xB53 JUMPI PUSH1 0x0 DUP1 REVERT JUMPDEST DUP1 CALLDATALOAD SWAP1 PUSH1 0x20 ADD SWAP2 DUP5 PUSH1 0x1 DUP4 MUL DUP5 ADD GT PUSH1 0x1 PUSH1 0x20 SHL DUP4 GT OR ISZERO PUSH2 0xB74 JUMPI PUSH1 0x0 DUP1 REVERT JUMPDEST SWAP2 SWAP1 DUP1 DUP1 PUSH1 0x1F ADD PUSH1 0x20 DUP1 SWAP2 DIV MUL PUSH1 0x20 ADD PUSH1 0x40 MLOAD SWAP1 DUP2 ADD PUSH1 0x40 MSTORE DUP1 SWAP4 SWAP3 SWAP2 SWAP1 DUP2 DUP2 MSTORE PUSH1 0x20 ADD DUP4 DUP4 DUP1 DUP3 DUP5 CALLDATACOPY PUSH1 0x0 SWAP3 ADD SWAP2 SWAP1 SWAP2 MSTORE POP SWAP3 SWAP6 POP PUSH2 0x2BA8 SWAP5 POP POP POP POP POP JUMP JUMPDEST PUSH1 0x40 MLOAD DUP1 DUP9 PUSH1 0x1 PUSH1 0x1 PUSH1 0xA0 SHL SUB AND PUSH1 0x1 PUSH1 0x1 PUSH1 0xA0 SHL SUB AND DUP2 MSTORE PUSH1 0x20 ADD DUP8 PUSH1 0x1 PUSH1 0x1 PUSH1 0xA0 SHL SUB AND PUSH1 0x1 PUSH1 0x1 PUSH1 0xA0 SHL SUB AND DUP2 MSTORE PUSH1 0x20 ADD DUP1 PUSH1 0x20 ADD DUP1 PUSH1 0x20 ADD DUP7 DUP2 MSTORE PUSH1 0x20 ADD DUP1 PUSH1 0x20 ADD DUP1 PUSH1 0x20 ADD DUP6 DUP2 SUB DUP6 MSTORE DUP11 DUP2 DUP2 MLOAD DUP2 MSTORE PUSH1 0x20 ADD SWAP2 POP DUP1 MLOAD SWAP1 PUSH1 0x20 ADD SWAP1 DUP1 DUP4 DUP4 PUSH1 0x0 JUMPDEST DUP4 DUP2 LT ISZERO PUSH2 0xC34 JUMPI DUP2 DUP2 ADD MLOAD DUP4 DUP3 ADD MSTORE PUSH1 0x20 ADD PUSH2 0xC1C JUMP JUMPDEST POP POP POP POP SWAP1 POP SWAP1 DUP2 ADD SWAP1 PUSH1 0x1F AND DUP1 ISZERO PUSH2 0xC61 JUMPI DUP1 DUP3 SUB DUP1 MLOAD PUSH1 0x1 DUP4 PUSH1 0x20 SUB PUSH2 0x100 EXP SUB NOT AND DUP2 MSTORE PUSH1 0x20 ADD SWAP2 POP JUMPDEST POP DUP6 DUP2 SUB DUP5 MSTORE DUP10 MLOAD DUP2 MSTORE DUP10 MLOAD PUSH1 0x20 SWAP2 DUP3 ADD SWAP2 DUP12 ADD SWAP1 DUP1 DUP4 DUP4 PUSH1 0x0 JUMPDEST DUP4 DUP2 LT ISZERO PUSH2 0xC94 JUMPI DUP2 DUP2 ADD MLOAD DUP4 DUP3 ADD MSTORE PUSH1 0x20 ADD PUSH2 0xC7C JUMP JUMPDEST POP POP POP POP SWAP1 POP SWAP1 DUP2 ADD SWAP1 PUSH1 0x1F AND DUP1 ISZERO PUSH2 0xCC1 JUMPI DUP1 DUP3 SUB DUP1 MLOAD PUSH1 0x1 DUP4 PUSH1 0x20 SUB PUSH2 0x100 EXP SUB NOT AND DUP2 MSTORE PUSH1 0x20 ADD SWAP2 POP JUMPDEST POP DUP6 DUP2 SUB DUP4 MSTORE DUP8 MLOAD DUP2 MSTORE DUP8 MLOAD PUSH1 0x20 SWAP2 DUP3 ADD SWAP2 DUP10 ADD SWAP1 DUP1 DUP4 DUP4 PUSH1 0x0 JUMPDEST DUP4 DUP2 LT ISZERO PUSH2 0xCF4 JUMPI DUP2 DUP2 ADD MLOAD DUP4 DUP3 ADD MSTORE PUSH1 0x20 ADD PUSH2 0xCDC JUMP JUMPDEST POP POP POP POP SWAP1 POP SWAP1 DUP2 ADD SWAP1 PUSH1 0x1F AND DUP1 ISZERO PUSH2 0xD21 JUMPI DUP1 DUP3 SUB DUP1 MLOAD PUSH1 0x1 DUP4 PUSH1 0x20 SUB PUSH2 0x100 EXP SUB NOT AND DUP2 MSTORE PUSH1 0x20 ADD SWAP2 POP JUMPDEST POP DUP6 DUP2 SUB DUP3 MSTORE DUP7 MLOAD DUP2 MSTORE DUP7 MLOAD PUSH1 0x20 SWAP2 DUP3 ADD SWAP2 DUP9 ADD SWAP1 DUP1 DUP4 DUP4 PUSH1 0x0 JUMPDEST DUP4 DUP2 LT ISZERO PUSH2 0xD54 JUMPI DUP2 DUP2 ADD MLOAD DUP4 DUP3 ADD MSTORE PUSH1 0x20 ADD PUSH2 0xD3C JUMP JUMPDEST POP POP POP POP SWAP1 POP SWAP1 DUP2 ADD SWAP1 PUSH1 0x1F AND DUP1 ISZERO PUSH2 0xD81 JUMPI DUP1 DUP3 SUB DUP1 MLOAD PUSH1 0x1 DUP4 PUSH1 0x20 SUB PUSH2 0x100 EXP SUB NOT AND DUP2 MSTORE PUSH1 0x20 ADD SWAP2 POP JUMPDEST POP SWAP12 POP POP POP POP POP POP POP POP POP POP POP POP PUSH1 0x40 MLOAD DUP1 SWAP2 SUB SWAP1 RETURN JUMPDEST PUSH2 0x52E PUSH1 0x4 DUP1 CALLDATASIZE SUB PUSH2 0x100 DUP2 LT ISZERO PUSH2 0xDAF JUMPI PUSH1 0x0 DUP1 REVERT JUMPDEST DUP2 ADD SWAP1 PUSH1 0x20 DUP2 ADD DUP2 CALLDATALOAD PUSH1 0x1 PUSH1 0x20 SHL DUP2 GT ISZERO PUSH2 0xDC9 JUMPI PUSH1 0x0 DUP1 REVERT JUMPDEST DUP3 ADD DUP4 PUSH1 0x20 DUP3 ADD GT ISZERO PUSH2 0xDDB JUMPI PUSH1 0x0 DUP1 REVERT JUMPDEST DUP1 CALLDATALOAD SWAP1 PUSH1 0x20 ADD SWAP2 DUP5 PUSH1 0x1 DUP4 MUL DUP5 ADD GT PUSH1 0x1 PUSH1 0x20 SHL DUP4 GT OR ISZERO PUSH2 0xDFC JUMPI PUSH1 0x0 DUP1 REVERT JUMPDEST SWAP2 SWAP1 DUP1 DUP1 PUSH1 0x1F ADD PUSH1 0x20 DUP1 SWAP2 DIV MUL PUSH1 0x20 ADD PUSH1 0x40 MLOAD SWAP1 DUP2 ADD PUSH1 0x40 MSTORE DUP1 SWAP4 SWAP3 SWAP2 SWAP1 DUP2 DUP2 MSTORE PUSH1 0x20 ADD DUP4 DUP4 DUP1 DUP3 DUP5 CALLDATACOPY PUSH1 0x0 SWAP3 ADD SWAP2 SWAP1 SWAP2 MSTORE POP SWAP3 SWAP6 PUSH1 0x1 PUSH1 0x1 PUSH1 0xA0 SHL SUB DUP6 CALLDATALOAD DUP2 AND SWAP7 PUSH1 0x20 DUP8 ADD CALLDATALOAD SWAP1 SWAP2 AND SWAP6 SWAP2 SWAP5 POP SWAP3 POP PUSH1 0x60 DUP2 ADD SWAP2 POP PUSH1 0x40 ADD CALLDATALOAD PUSH1 0x1 PUSH1 0x20 SHL DUP2 GT ISZERO PUSH2 0xE67 JUMPI PUSH1 0x0 DUP1 REVERT JUMPDEST DUP3 ADD DUP4 PUSH1 0x20 DUP3 ADD GT ISZERO PUSH2 0xE79 JUMPI PUSH1 0x0 DUP1 REVERT JUMPDEST DUP1 CALLDATALOAD SWAP1 PUSH1 0x20 ADD SWAP2 DUP5 PUSH1 0x1 DUP4 MUL DUP5 ADD GT PUSH1 0x1 PUSH1 0x20 SHL DUP4 GT OR ISZERO PUSH2 0xE9A JUMPI PUSH1 0x0 DUP1 REVERT JUMPDEST SWAP2 SWAP1 DUP1 DUP1 PUSH1 0x1F ADD PUSH1 0x20 DUP1 SWAP2 DIV MUL PUSH1 0x20 ADD PUSH1 0x40 MLOAD SWAP1 DUP2 ADD PUSH1 0x40 MSTORE DUP1 SWAP4 SWAP3 SWAP2 SWAP1 DUP2 DUP2 MSTORE PUSH1 0x20 ADD DUP4 DUP4 DUP1 DUP3 DUP5 CALLDATACOPY PUSH1 0x0 SWAP3 ADD SWAP2 SWAP1 SWAP2 MSTORE POP SWAP3 SWAP6 SWAP5 SWAP4 PUSH1 0x20 DUP2 ADD SWAP4 POP CALLDATALOAD SWAP2 POP POP PUSH1 0x1 PUSH1 0x20 SHL DUP2 GT ISZERO PUSH2 0xEEC JUMPI PUSH1 0x0 DUP1 REVERT JUMPDEST DUP3 ADD DUP4 PUSH1 0x20 DUP3 ADD GT ISZERO PUSH2 0xEFE JUMPI PUSH1 0x0 DUP1 REVERT JUMPDEST DUP1 CALLDATALOAD SWAP1 PUSH1 0x20 ADD SWAP2 DUP5 PUSH1 0x1 DUP4 MUL DUP5 ADD GT PUSH1 0x1 PUSH1 0x20 SHL DUP4 GT OR ISZERO PUSH2 0xF1F JUMPI PUSH1 0x0 DUP1 REVERT JUMPDEST SWAP2 SWAP1 DUP1 DUP1 PUSH1 0x1F ADD PUSH1 0x20 DUP1 SWAP2 DIV MUL PUSH1 0x20 ADD PUSH1 0x40 MLOAD SWAP1 DUP2 ADD PUSH1 0x40 MSTORE DUP1 SWAP4 SWAP3 SWAP2 SWAP1 DUP2 DUP2 MSTORE PUSH1 0x20 ADD DUP4 DUP4 DUP1 DUP3 DUP5 CALLDATACOPY PUSH1 0x0 SWAP3 ADD SWAP2 SWAP1 SWAP2 MSTORE POP SWAP3 SWAP6 SWAP5 SWAP4 PUSH1 0x20 DUP2 ADD SWAP4 POP CALLDATALOAD SWAP2 POP POP PUSH1 0x1 PUSH1 0x20 SHL DUP2 GT ISZERO PUSH2 0xF71 JUMPI PUSH1 0x0 DUP1 REVERT JUMPDEST DUP3 ADD DUP4 PUSH1 0x20 DUP3 ADD GT ISZERO PUSH2 0xF83 JUMPI PUSH1 0x0 DUP1 REVERT JUMPDEST DUP1 CALLDATALOAD SWAP1 PUSH1 0x20 ADD SWAP2 DUP5 PUSH1 0x1 DUP4 MUL DUP5 ADD GT PUSH1 0x1 PUSH1 0x20 SHL DUP4 GT OR ISZERO PUSH2 0xFA4 JUMPI PUSH1 0x0 DUP1 REVERT JUMPDEST SWAP2 SWAP1 DUP1 DUP1 PUSH1 0x1F ADD PUSH1 0x20 DUP1 SWAP2 DIV MUL PUSH1 0x20 ADD PUSH1 0x40 MLOAD SWAP1 DUP2 ADD PUSH1 0x40 MSTORE DUP1 SWAP4 SWAP3 SWAP2 SWAP1 DUP2 DUP2 MSTORE PUSH1 0x20 ADD DUP4 DUP4 DUP1 DUP3 DUP5 CALLDATACOPY PUSH1 0x0 SWAP3 ADD SWAP2 SWAP1 SWAP2 MSTORE POP SWAP3 SWAP6 SWAP5 SWAP4 PUSH1 0x20 DUP2 ADD SWAP4 POP CALLDATALOAD SWAP2 POP POP PUSH1 0x1 PUSH1 0x20 SHL DUP2 GT ISZERO PUSH2 0xFF6 JUMPI PUSH1 0x0 DUP1 REVERT JUMPDEST DUP3 ADD DUP4 PUSH1 0x20 DUP3 ADD GT ISZERO PUSH2 0x1008 JUMPI PUSH1 0x0 DUP1 REVERT JUMPDEST DUP1 CALLDATALOAD SWAP1 PUSH1 0x20 ADD SWAP2 DUP5 PUSH1 0x1 DUP4 MUL DUP5 ADD GT PUSH1 0x1 PUSH1 0x20 SHL DUP4 GT OR ISZERO PUSH2 0x1029 JUMPI PUSH1 0x0 DUP1 REVERT JUMPDEST SWAP2 SWAP1 DUP1 DUP1 PUSH1 0x1F ADD PUSH1 0x20 DUP1 SWAP2 DIV MUL PUSH1 0x20 ADD PUSH1 0x40 MLOAD SWAP1 DUP2 ADD PUSH1 0x40 MSTORE DUP1 SWAP4 SWAP3 SWAP2 SWAP1 DUP2 DUP2 MSTORE PUSH1 0x20 ADD DUP4 DUP4 DUP1 DUP3 DUP5 CALLDATACOPY PUSH1 0x0 SWAP3 ADD SWAP2 SWAP1 SWAP2 MSTORE POP SWAP3 SWAP6 SWAP5 SWAP4 PUSH1 0x20 DUP2 ADD SWAP4 POP CALLDATALOAD SWAP2 POP POP PUSH1 0x1 PUSH1 0x20 SHL DUP2 GT ISZERO PUSH2 0x107B JUMPI PUSH1 0x0 DUP1 REVERT JUMPDEST DUP3 ADD DUP4 PUSH1 0x20 DUP3 ADD GT ISZERO PUSH2 0x108D JUMPI PUSH1 0x0 DUP1 REVERT JUMPDEST DUP1 CALLDATALOAD SWAP1 PUSH1 0x20 ADD SWAP2 DUP5 PUSH1 0x1 DUP4 MUL DUP5 ADD GT PUSH1 0x1 PUSH1 0x20 SHL DUP4 GT OR ISZERO PUSH2 0x10AE JUMPI PUSH1 0x0 DUP1 REVERT JUMPDEST SWAP2 SWAP1 DUP1 DUP1 PUSH1 0x1F ADD PUSH1 0x20 DUP1 SWAP2 DIV MUL PUSH1 0x20 ADD PUSH1 0x40 MLOAD SWAP1 DUP2 ADD PUSH1 0x40 MSTORE DUP1 SWAP4 SWAP3 SWAP2 SWAP1 DUP2 DUP2 MSTORE PUSH1 0x20 ADD DUP4 DUP4 DUP1 DUP3 DUP5 CALLDATACOPY PUSH1 0x0 SWAP3 ADD SWAP2 SWAP1 SWAP2 MSTORE POP SWAP3 SWAP6 POP PUSH2 0x30EA SWAP5 POP POP POP POP POP JUMP JUMPDEST PUSH2 0x5D4 PUSH1 0x4 DUP1 CALLDATASIZE SUB PUSH1 0x40 DUP2 LT ISZERO PUSH2 0x1105 JUMPI PUSH1 0x0 DUP1 REVERT JUMPDEST DUP2 ADD SWAP1 PUSH1 0x20 DUP2 ADD DUP2 CALLDATALOAD PUSH1 0x1 PUSH1 0x20 SHL DUP2 GT ISZERO PUSH2 0x111F JUMPI PUSH1 0x0 DUP1 REVERT JUMPDEST DUP3 ADD DUP4 PUSH1 0x20 DUP3 ADD GT ISZERO PUSH2 0x1131 JUMPI PUSH1 0x0 DUP1 REVERT JUMPDEST DUP1 CALLDATALOAD SWAP1 PUSH1 0x20 ADD SWAP2 DUP5 PUSH1 0x1 DUP4 MUL DUP5 ADD GT PUSH1 0x1 PUSH1 0x20 SHL DUP4 GT OR ISZERO PUSH2 0x1152 JUMPI PUSH1 0x0 DUP1 REVERT JUMPDEST SWAP2 SWAP1 DUP1 DUP1 PUSH1 0x1F ADD PUSH1 0x20 DUP1 SWAP2 DIV MUL PUSH1 0x20 ADD PUSH1 0x40 MLOAD SWAP1 DUP2 ADD PUSH1 0x40 MSTORE DUP1 SWAP4 SWAP3 SWAP2 SWAP1 DUP2 DUP2 MSTORE PUSH1 0x20 ADD DUP4 DUP4 DUP1 DUP3 DUP5 CALLDATACOPY PUSH1 0x0 SWAP3 ADD SWAP2 SWAP1 SWAP2 MSTORE POP SWAP3 SWAP6 POP POP POP SWAP1 CALLDATALOAD PUSH1 0x1 PUSH1 0x1 PUSH1 0xA0 SHL SUB AND SWAP2 POP PUSH2 0x3702 SWAP1 POP JUMP JUMPDEST PUSH1 0x60 DUP1 PUSH1 0x60 PUSH1 0x0 DUP1 PUSH1 0x0 DUP1 PUSH1 0x4 DUP9 PUSH1 0x40 MLOAD DUP1 DUP3 DUP1 MLOAD SWAP1 PUSH1 0x20 ADD SWAP1 DUP1 DUP4 DUP4 JUMPDEST PUSH1 0x20 DUP4 LT PUSH2 0x11DB JUMPI DUP1 MLOAD DUP3 MSTORE PUSH1 0x1F NOT SWAP1 SWAP3 ADD SWAP2 PUSH1 0x20 SWAP2 DUP3 ADD SWAP2 ADD PUSH2 0x11BC JUMP JUMPDEST PUSH1 0x1 DUP4 PUSH1 0x20 SUB PUSH2 0x100 EXP SUB DUP1 NOT DUP3 MLOAD AND DUP2 DUP5 MLOAD AND DUP1 DUP3 OR DUP6 MSTORE POP POP POP POP POP POP SWAP1 POP ADD SWAP2 POP POP SWAP1 DUP2 MSTORE PUSH1 0x20 ADD PUSH1 0x40 MLOAD DUP1 SWAP2 SUB SWAP1 KECCAK256 PUSH1 0x1 ADD PUSH1 0x4 DUP10 PUSH1 0x40 MLOAD DUP1 DUP3 DUP1 MLOAD SWAP1 PUSH1 0x20 ADD SWAP1 DUP1 DUP4 DUP4 JUMPDEST PUSH1 0x20 DUP4 LT PUSH2 0x1243 JUMPI DUP1 MLOAD DUP3 MSTORE PUSH1 0x1F NOT SWAP1 SWAP3 ADD SWAP2 PUSH1 0x20 SWAP2 DUP3 ADD SWAP2 ADD PUSH2 0x1224 JUMP JUMPDEST PUSH1 0x1 DUP4 PUSH1 0x20 SUB PUSH2 0x100 EXP SUB DUP1 NOT DUP3 MLOAD AND DUP2 DUP5 MLOAD AND DUP1 DUP3 OR DUP6 MSTORE POP POP POP POP POP POP SWAP1 POP ADD SWAP2 POP POP SWAP1 DUP2 MSTORE PUSH1 0x20 ADD PUSH1 0x40 MLOAD DUP1 SWAP2 SUB SWAP1 KECCAK256 PUSH1 0x2 ADD PUSH1 0x4 DUP11 PUSH1 0x40 MLOAD DUP1 DUP3 DUP1 MLOAD SWAP1 PUSH1 0x20 ADD SWAP1 DUP1 DUP4 DUP4 JUMPDEST PUSH1 0x20 DUP4 LT PUSH2 0x12AB JUMPI DUP1 MLOAD DUP3 MSTORE PUSH1 0x1F NOT SWAP1 SWAP3 ADD SWAP2 PUSH1 0x20 SWAP2 DUP3 ADD SWAP2 ADD PUSH2 0x128C JUMP JUMPDEST PUSH1 0x1 DUP4 PUSH1 0x20 SUB PUSH2 0x100 EXP SUB DUP1 NOT DUP3 MLOAD AND DUP2 DUP5 MLOAD AND DUP1 DUP3 OR DUP6 MSTORE POP POP POP POP POP POP SWAP1 POP ADD SWAP2 POP POP SWAP1 DUP2 MSTORE PUSH1 0x20 ADD PUSH1 0x40 MLOAD DUP1 SWAP2 SUB SWAP1 KECCAK256 PUSH1 0x3 ADD PUSH1 0x4 DUP12 PUSH1 0x40 MLOAD DUP1 DUP3 DUP1 MLOAD SWAP1 PUSH1 0x20 ADD SWAP1 DUP1 DUP4 DUP4 JUMPDEST PUSH1 0x20 DUP4 LT PUSH2 0x1313 JUMPI DUP1 MLOAD DUP3 MSTORE PUSH1 0x1F NOT SWAP1 SWAP3 ADD SWAP2 PUSH1 0x20 SWAP2 DUP3 ADD SWAP2 ADD PUSH2 0x12F4 JUMP JUMPDEST PUSH1 0x1 DUP4 PUSH1 0x20 SUB PUSH2 0x100 EXP SUB DUP1 NOT DUP3 MLOAD AND DUP2 DUP5 MLOAD AND DUP1 DUP3 OR DUP6 MSTORE POP POP POP POP POP POP SWAP1 POP ADD SWAP2 POP POP SWAP1 DUP2 MSTORE PUSH1 0x20 ADD PUSH1 0x40 MLOAD DUP1 SWAP2 SUB SWAP1 KECCAK256 PUSH1 0x4 ADD SLOAD PUSH1 0x4 DUP13 PUSH1 0x40 MLOAD DUP1 DUP3 DUP1 MLOAD SWAP1 PUSH1 0x20 ADD SWAP1 DUP1 DUP4 DUP4 JUMPDEST PUSH1 0x20 DUP4 LT PUSH2 0x137C JUMPI DUP1 MLOAD DUP3 MSTORE PUSH1 0x1F NOT SWAP1 SWAP3 ADD SWAP2 PUSH1 0x20 SWAP2 DUP3 ADD SWAP2 ADD PUSH2 0x135D JUMP JUMPDEST PUSH1 0x1 DUP4 PUSH1 0x20 SUB PUSH2 0x100 EXP SUB DUP1 NOT DUP3 MLOAD AND DUP2 DUP5 MLOAD AND DUP1 DUP3 OR DUP6 MSTORE POP POP POP POP POP POP SWAP1 POP ADD SWAP2 POP POP SWAP1 DUP2 MSTORE PUSH1 0x20 ADD PUSH1 0x40 MLOAD DUP1 SWAP2 SUB SWAP1 KECCAK256 PUSH1 0x5 ADD SLOAD PUSH1 0x4 DUP14 PUSH1 0x40 MLOAD DUP1 DUP3 DUP1 MLOAD SWAP1 PUSH1 0x20 ADD SWAP1 DUP1 DUP4 DUP4 JUMPDEST PUSH1 0x20 DUP4 LT PUSH2 0x13E5 JUMPI DUP1 MLOAD DUP3 MSTORE PUSH1 0x1F NOT SWAP1 SWAP3 ADD SWAP2 PUSH1 0x20 SWAP2 DUP3 ADD SWAP2 ADD PUSH2 0x13C6 JUMP JUMPDEST PUSH1 0x1 DUP4 PUSH1 0x20 SUB PUSH2 0x100 EXP SUB DUP1 NOT DUP3 MLOAD AND DUP2 DUP5 MLOAD AND DUP1 DUP3 OR DUP6 MSTORE POP POP POP POP POP POP SWAP1 POP ADD SWAP2 POP POP SWAP1 DUP2 MSTORE PUSH1 0x20 ADD PUSH1 0x40 MLOAD DUP1 SWAP2 SUB SWAP1 KECCAK256 PUSH1 0x8 ADD PUSH1 0x15 SWAP1 SLOAD SWAP1 PUSH2 0x100 EXP SWAP1 DIV PUSH1 0xFF AND PUSH1 0x4 DUP15 PUSH1 0x40 MLOAD DUP1 DUP3 DUP1 MLOAD SWAP1 PUSH1 0x20 ADD SWAP1 DUP1 DUP4 DUP4 JUMPDEST PUSH1 0x20 DUP4 LT PUSH2 0x145B JUMPI DUP1 MLOAD DUP3 MSTORE PUSH1 0x1F NOT SWAP1 SWAP3 ADD SWAP2 PUSH1 0x20 SWAP2 DUP3 ADD SWAP2 ADD PUSH2 0x143C JUMP JUMPDEST MLOAD DUP2 MLOAD PUSH1 0x0 NOT PUSH1 0x20 SWAP5 DUP6 SUB PUSH2 0x100 SWAP1 DUP2 EXP DUP3 ADD SWAP3 DUP4 AND SWAP3 NOT SWAP4 SWAP1 SWAP4 AND SWAP2 SWAP1 SWAP2 OR SWAP1 SWAP3 MSTORE SWAP5 SWAP1 SWAP3 ADD SWAP7 DUP8 MSTORE PUSH1 0x40 DUP1 MLOAD SWAP8 DUP9 SWAP1 SUB DUP3 ADD DUP9 KECCAK256 PUSH1 0x8 ADD SLOAD DUP15 SLOAD PUSH1 0x1F PUSH1 0x2 PUSH1 0x1 DUP4 AND ISZERO SWAP1 SWAP9 MUL SWAP1 SWAP6 ADD AND SWAP6 SWAP1 SWAP6 DIV SWAP3 DUP4 ADD DUP3 SWAP1 DIV DUP3 MUL DUP9 ADD DUP3 ADD SWAP1 MSTORE DUP2 DUP8 MSTORE PUSH1 0xFF PUSH1 0x1 PUSH1 0xB0 SHL SWAP1 SWAP5 DIV SWAP4 SWAP1 SWAP4 AND SWAP6 SWAP5 POP DUP12 SWAP4 POP SWAP2 DUP5 ADD SWAP1 POP DUP3 DUP3 DUP1 ISZERO PUSH2 0x1524 JUMPI DUP1 PUSH1 0x1F LT PUSH2 0x14F9 JUMPI PUSH2 0x100 DUP1 DUP4 SLOAD DIV MUL DUP4 MSTORE SWAP2 PUSH1 0x20 ADD SWAP2 PUSH2 0x1524 JUMP JUMPDEST DUP3 ADD SWAP2 SWAP1 PUSH1 0x0 MSTORE PUSH1 0x20 PUSH1 0x0 KECCAK256 SWAP1 JUMPDEST DUP2 SLOAD DUP2 MSTORE SWAP1 PUSH1 0x1 ADD SWAP1 PUSH1 0x20 ADD DUP1 DUP4 GT PUSH2 0x1507 JUMPI DUP3 SWAP1 SUB PUSH1 0x1F AND DUP3 ADD SWAP2 JUMPDEST POP POP DUP10 SLOAD PUSH1 0x40 DUP1 MLOAD PUSH1 0x20 PUSH1 0x2 PUSH1 0x1 DUP6 AND ISZERO PUSH2 0x100 MUL PUSH1 0x0 NOT ADD SWAP1 SWAP5 AND SWAP4 SWAP1 SWAP4 DIV PUSH1 0x1F DUP2 ADD DUP5 SWAP1 DIV DUP5 MUL DUP3 ADD DUP5 ADD SWAP1 SWAP3 MSTORE DUP2 DUP2 MSTORE SWAP6 SWAP13 POP DUP12 SWAP5 POP SWAP3 POP DUP5 ADD SWAP1 POP DUP3 DUP3 DUP1 ISZERO PUSH2 0x15B2 JUMPI DUP1 PUSH1 0x1F LT PUSH2 0x1587 JUMPI PUSH2 0x100 DUP1 DUP4 SLOAD DIV MUL DUP4 MSTORE SWAP2 PUSH1 0x20 ADD SWAP2 PUSH2 0x15B2 JUMP JUMPDEST DUP3 ADD SWAP2 SWAP1 PUSH1 0x0 MSTORE PUSH1 0x20 PUSH1 0x0 KECCAK256 SWAP1 JUMPDEST DUP2 SLOAD DUP2 MSTORE SWAP1 PUSH1 0x1 ADD SWAP1 PUSH1 0x20 ADD DUP1 DUP4 GT PUSH2 0x1595 JUMPI DUP3 SWAP1 SUB PUSH1 0x1F AND DUP3 ADD SWAP2 JUMPDEST POP POP DUP9 SLOAD PUSH1 0x40 DUP1 MLOAD PUSH1 0x20 PUSH1 0x2 PUSH1 0x1 DUP6 AND ISZERO PUSH2 0x100 MUL PUSH1 0x0 NOT ADD SWAP1 SWAP5 AND SWAP4 SWAP1 SWAP4 DIV PUSH1 0x1F DUP2 ADD DUP5 SWAP1 DIV DUP5 MUL DUP3 ADD DUP5 ADD SWAP1 SWAP3 MSTORE DUP2 DUP2 MSTORE SWAP6 SWAP12 POP DUP11 SWAP5 POP SWAP3 POP DUP5 ADD SWAP1 POP DUP3 DUP3 DUP1 ISZERO PUSH2 0x1640 JUMPI DUP1 PUSH1 0x1F LT PUSH2 0x1615 JUMPI PUSH2 0x100 DUP1 DUP4 SLOAD DIV MUL DUP4 MSTORE SWAP2 PUSH1 0x20 ADD SWAP2 PUSH2 0x1640 JUMP JUMPDEST DUP3 ADD SWAP2 SWAP1 PUSH1 0x0 MSTORE PUSH1 0x20 PUSH1 0x0 KECCAK256 SWAP1 JUMPDEST DUP2 SLOAD DUP2 MSTORE SWAP1 PUSH1 0x1 ADD SWAP1 PUSH1 0x20 ADD DUP1 DUP4 GT PUSH2 0x1623 JUMPI DUP3 SWAP1 SUB PUSH1 0x1F AND DUP3 ADD SWAP2 JUMPDEST POP POP POP POP POP SWAP5 POP SWAP7 POP SWAP7 POP SWAP7 POP SWAP7 POP SWAP7 POP SWAP7 POP SWAP7 POP SWAP2 SWAP4 SWAP6 SWAP8 SWAP1 SWAP3 SWAP5 SWAP7 POP JUMP JUMPDEST DUP4 PUSH1 0x4 DUP7 PUSH1 0x40 MLOAD DUP1 DUP3 DUP1 MLOAD SWAP1 PUSH1 0x20 ADD SWAP1 DUP1 DUP4 DUP4 JUMPDEST PUSH1 0x20 DUP4 LT PUSH2 0x1693 JUMPI DUP1 MLOAD DUP3 MSTORE PUSH1 0x1F NOT SWAP1 SWAP3 ADD SWAP2 PUSH1 0x20 SWAP2 DUP3 ADD SWAP2 ADD PUSH2 0x1674 JUMP JUMPDEST PUSH1 0x1 DUP4 PUSH1 0x20 SUB PUSH2 0x100 EXP SUB DUP1 NOT DUP3 MLOAD AND DUP2 DUP5 MLOAD AND DUP1 DUP3 OR DUP6 MSTORE POP POP POP POP POP POP SWAP1 POP ADD SWAP2 POP POP SWAP1 DUP2 MSTORE PUSH1 0x20 ADD PUSH1 0x40 MLOAD DUP1 SWAP2 SUB SWAP1 KECCAK256 PUSH1 0x1 ADD SWAP1 DUP1 MLOAD SWAP1 PUSH1 0x20 ADD SWAP1 PUSH2 0x16DC SWAP3 SWAP2 SWAP1 PUSH2 0x3B25 JUMP JUMPDEST POP DUP3 PUSH1 0x4 DUP7 PUSH1 0x40 MLOAD DUP1 DUP3 DUP1 MLOAD SWAP1 PUSH1 0x20 ADD SWAP1 DUP1 DUP4 DUP4 JUMPDEST PUSH1 0x20 DUP4 LT PUSH2 0x1710 JUMPI DUP1 MLOAD DUP3 MSTORE PUSH1 0x1F NOT SWAP1 SWAP3 ADD SWAP2 PUSH1 0x20 SWAP2 DUP3 ADD SWAP2 ADD PUSH2 0x16F1 JUMP JUMPDEST MLOAD DUP2 MLOAD PUSH1 0x20 SWAP4 DUP5 SUB PUSH2 0x100 EXP PUSH1 0x0 NOT ADD DUP1 NOT SWAP1 SWAP3 AND SWAP2 AND OR SWAP1 MSTORE SWAP3 ADD SWAP5 DUP6 MSTORE POP PUSH1 0x40 MLOAD SWAP4 DUP5 SWAP1 SUB DUP2 ADD SWAP1 SWAP4 KECCAK256 DUP5 MLOAD PUSH2 0x1755 SWAP6 PUSH1 0x2 SWAP1 SWAP3 ADD SWAP5 SWAP2 SWAP1 SWAP2 ADD SWAP3 POP SWAP1 POP PUSH2 0x3B25 JUMP JUMPDEST POP DUP2 PUSH1 0x4 DUP7 PUSH1 0x40 MLOAD DUP1 DUP3 DUP1 MLOAD SWAP1 PUSH1 0x20 ADD SWAP1 DUP1 DUP4 DUP4 JUMPDEST PUSH1 0x20 DUP4 LT PUSH2 0x1789 JUMPI DUP1 MLOAD DUP3 MSTORE PUSH1 0x1F NOT SWAP1 SWAP3 ADD SWAP2 PUSH1 0x20 SWAP2 DUP3 ADD SWAP2 ADD PUSH2 0x176A JUMP JUMPDEST MLOAD DUP2 MLOAD PUSH1 0x20 SWAP4 DUP5 SUB PUSH2 0x100 EXP PUSH1 0x0 NOT ADD DUP1 NOT SWAP1 SWAP3 AND SWAP2 AND OR SWAP1 MSTORE SWAP3 ADD SWAP5 DUP6 MSTORE POP PUSH1 0x40 MLOAD SWAP4 DUP5 SWAP1 SUB DUP2 ADD SWAP1 SWAP4 KECCAK256 DUP5 MLOAD PUSH2 0x17CE SWAP6 PUSH1 0x3 SWAP1 SWAP3 ADD SWAP5 SWAP2 SWAP1 SWAP2 ADD SWAP3 POP SWAP1 POP PUSH2 0x3B25 JUMP JUMPDEST POP DUP1 PUSH1 0x4 DUP7 PUSH1 0x40 MLOAD DUP1 DUP3 DUP1 MLOAD SWAP1 PUSH1 0x20 ADD SWAP1 DUP1 DUP4 DUP4 JUMPDEST PUSH1 0x20 DUP4 LT PUSH2 0x1802 JUMPI DUP1 MLOAD DUP3 MSTORE PUSH1 0x1F NOT SWAP1 SWAP3 ADD SWAP2 PUSH1 0x20 SWAP2 DUP3 ADD SWAP2 ADD PUSH2 0x17E3 JUMP JUMPDEST MLOAD DUP2 MLOAD PUSH1 0x20 SWAP4 DUP5 SUB PUSH2 0x100 EXP PUSH1 0x0 NOT ADD DUP1 NOT SWAP1 SWAP3 AND SWAP2 AND OR SWAP1 MSTORE SWAP3 ADD SWAP5 DUP6 MSTORE POP PUSH1 0x40 MLOAD SWAP4 DUP5 SWAP1 SUB ADD SWAP1 SWAP3 KECCAK256 PUSH1 0x5 ADD SWAP3 SWAP1 SWAP3 SSTORE POP POP DUP3 MLOAD ISZERO DUP1 ISZERO SWAP1 PUSH2 0x1846 JUMPI POP DUP2 MLOAD ISZERO ISZERO JUMPDEST PUSH2 0x1881 JUMPI PUSH1 0x40 MLOAD PUSH3 0x461BCD PUSH1 0xE5 SHL DUP2 MSTORE PUSH1 0x4 ADD DUP1 DUP1 PUSH1 0x20 ADD DUP3 DUP2 SUB DUP3 MSTORE PUSH1 0x2C DUP2 MSTORE PUSH1 0x20 ADD DUP1 PUSH2 0x3BED PUSH1 0x2C SWAP2 CODECOPY PUSH1 0x40 ADD SWAP2 POP POP PUSH1 0x40 MLOAD DUP1 SWAP2 SUB SWAP1 REVERT JUMPDEST PUSH1 0x1 PUSH1 0x4 DUP7 PUSH1 0x40 MLOAD DUP1 DUP3 DUP1 MLOAD SWAP1 PUSH1 0x20 ADD SWAP1 DUP1 DUP4 DUP4 JUMPDEST PUSH1 0x20 DUP4 LT PUSH2 0x18B5 JUMPI DUP1 MLOAD DUP3 MSTORE PUSH1 0x1F NOT SWAP1 SWAP3 ADD SWAP2 PUSH1 0x20 SWAP2 DUP3 ADD SWAP2 ADD PUSH2 0x1896 JUMP JUMPDEST MLOAD DUP2 MLOAD PUSH1 0x20 SWAP4 DUP5 SUB PUSH2 0x100 EXP PUSH1 0x0 NOT ADD DUP1 NOT SWAP1 SWAP3 AND SWAP2 AND OR SWAP1 MSTORE SWAP3 ADD SWAP5 DUP6 MSTORE POP PUSH1 0x40 MLOAD SWAP4 DUP5 SWAP1 SUB DUP2 ADD DUP5 KECCAK256 PUSH1 0x8 ADD DUP1 SLOAD PUSH1 0xFF PUSH1 0xA0 SHL NOT AND PUSH1 0x1 PUSH1 0xA0 SHL SWAP7 ISZERO ISZERO SWAP7 SWAP1 SWAP7 MUL SWAP6 SWAP1 SWAP6 OR SWAP1 SWAP5 SSTORE POP POP DUP7 MLOAD PUSH1 0x1 SWAP3 PUSH1 0x4 SWAP3 DUP10 SWAP3 SWAP1 SWAP2 DUP3 SWAP2 SWAP1 DUP5 ADD SWAP1 DUP1 DUP4 DUP4 JUMPDEST PUSH1 0x20 DUP4 LT PUSH2 0x1936 JUMPI DUP1 MLOAD DUP3 MSTORE PUSH1 0x1F NOT SWAP1 SWAP3 ADD SWAP2 PUSH1 0x20 SWAP2 DUP3 ADD SWAP2 ADD PUSH2 0x1917 JUMP JUMPDEST MLOAD DUP2 MLOAD PUSH1 0x20 SWAP4 DUP5 SUB PUSH2 0x100 EXP PUSH1 0x0 NOT ADD DUP1 NOT SWAP1 SWAP3 AND SWAP2 AND OR SWAP1 MSTORE SWAP3 ADD SWAP5 DUP6 MSTORE POP PUSH1 0x40 MLOAD SWAP4 DUP5 SWAP1 SUB DUP2 ADD DUP5 KECCAK256 PUSH1 0x8 ADD DUP1 SLOAD PUSH1 0xFF PUSH1 0xA8 SHL NOT AND PUSH1 0x1 PUSH1 0xA8 SHL SWAP7 ISZERO ISZERO SWAP7 SWAP1 SWAP7 MUL SWAP6 SWAP1 SWAP6 OR SWAP1 SWAP5 SSTORE POP POP DUP7 MLOAD PUSH1 0x0 SWAP3 PUSH1 0x4 SWAP3 DUP10 SWAP3 SWAP1 SWAP2 DUP3 SWAP2 SWAP1 DUP5 ADD SWAP1 DUP1 DUP4 DUP4 JUMPDEST PUSH1 0x20 DUP4 LT PUSH2 0x19B7 JUMPI DUP1 MLOAD DUP3 MSTORE PUSH1 0x1F NOT SWAP1 SWAP3 ADD SWAP2 PUSH1 0x20 SWAP2 DUP3 ADD SWAP2 ADD PUSH2 0x1998 JUMP JUMPDEST MLOAD DUP2 MLOAD PUSH1 0x20 SWAP4 DUP5 SUB PUSH2 0x100 EXP PUSH1 0x0 NOT ADD DUP1 NOT SWAP1 SWAP3 AND SWAP2 AND OR SWAP1 MSTORE SWAP3 ADD SWAP5 DUP6 MSTORE POP PUSH1 0x40 MLOAD SWAP4 DUP5 SWAP1 SUB DUP2 ADD DUP5 KECCAK256 PUSH1 0x8 ADD DUP1 SLOAD PUSH1 0xFF PUSH1 0xB0 SHL NOT AND PUSH1 0x1 PUSH1 0xB0 SHL SWAP7 ISZERO ISZERO SWAP7 SWAP1 SWAP7 MUL SWAP6 SWAP1 SWAP6 OR SWAP1 SWAP5 SSTORE POP POP DUP6 MLOAD PUSH1 0x1 SWAP3 PUSH1 0x2 SWAP3 DUP9 SWAP3 SWAP1 SWAP2 DUP3 SWAP2 SWAP1 DUP5 ADD SWAP1 DUP1 DUP4 DUP4 JUMPDEST PUSH1 0x20 DUP4 LT PUSH2 0x1A38 JUMPI DUP1 MLOAD DUP3 MSTORE PUSH1 0x1F NOT SWAP1 SWAP3 ADD SWAP2 PUSH1 0x20 SWAP2 DUP3 ADD SWAP2 ADD PUSH2 0x1A19 JUMP JUMPDEST MLOAD DUP2 MLOAD PUSH1 0x20 SWAP4 DUP5 SUB PUSH2 0x100 EXP PUSH1 0x0 NOT ADD DUP1 NOT SWAP1 SWAP3 AND SWAP2 AND OR SWAP1 MSTORE SWAP3 ADD SWAP5 DUP6 MSTORE POP PUSH1 0x40 MLOAD SWAP4 DUP5 SWAP1 SUB ADD SWAP1 SWAP3 KECCAK256 PUSH1 0x7 SWAP1 DUP2 ADD DUP1 SLOAD SWAP1 SWAP4 POP PUSH1 0xFF NOT AND SWAP2 POP PUSH1 0x1 SWAP1 DUP5 SWAP1 DUP2 GT ISZERO PUSH2 0x1A81 JUMPI INVALID JUMPDEST MUL OR SWAP1 SSTORE POP TIMESTAMP PUSH1 0x4 DUP7 PUSH1 0x40 MLOAD DUP1 DUP3 DUP1 MLOAD SWAP1 PUSH1 0x20 ADD SWAP1 DUP1 DUP4 DUP4 JUMPDEST PUSH1 0x20 DUP4 LT PUSH2 0x1AB9 JUMPI DUP1 MLOAD DUP3 MSTORE PUSH1 0x1F NOT SWAP1 SWAP3 ADD SWAP2 PUSH1 0x20 SWAP2 DUP3 ADD SWAP2 ADD PUSH2 0x1A9A JUMP JUMPDEST MLOAD DUP2 MLOAD PUSH1 0x20 SWAP4 DUP5 SUB PUSH2 0x100 EXP PUSH1 0x0 NOT ADD DUP1 NOT SWAP1 SWAP3 AND SWAP2 AND OR SWAP1 MSTORE SWAP3 ADD SWAP5 DUP6 MSTORE POP PUSH1 0x40 MLOAD SWAP4 DUP5 SWAP1 SUB DUP2 ADD DUP5 KECCAK256 PUSH1 0x7 ADD SWAP5 SWAP1 SWAP5 SSTORE POP POP DUP7 MLOAD CALLER SWAP3 PUSH1 0x4 SWAP3 DUP10 SWAP3 SWAP1 SWAP2 DUP3 SWAP2 SWAP1 DUP5 ADD SWAP1 DUP1 DUP4 DUP4 JUMPDEST PUSH1 0x20 DUP4 LT PUSH2 0x1B21 JUMPI DUP1 MLOAD DUP3 MSTORE PUSH1 0x1F NOT SWAP1 SWAP3 ADD SWAP2 PUSH1 0x20 SWAP2 DUP3 ADD SWAP2 ADD PUSH2 0x1B02 JUMP JUMPDEST MLOAD DUP2 MLOAD PUSH1 0x20 SWAP4 DUP5 SUB PUSH2 0x100 EXP PUSH1 0x0 NOT ADD DUP1 NOT SWAP1 SWAP3 AND SWAP2 AND OR SWAP1 MSTORE SWAP3 ADD SWAP5 DUP6 MSTORE POP PUSH1 0x40 MLOAD SWAP4 DUP5 SWAP1 SUB DUP2 ADD DUP5 KECCAK256 PUSH1 0x8 ADD DUP1 SLOAD PUSH1 0x1 PUSH1 0x1 PUSH1 0xA0 SHL SUB NOT AND PUSH1 0x1 PUSH1 0x1 PUSH1 0xA0 SHL SUB SWAP7 SWAP1 SWAP7 AND SWAP6 SWAP1 SWAP6 OR SWAP1 SWAP5 SSTORE POP POP DUP7 MLOAD PUSH1 0x4 SWAP3 DUP9 SWAP3 SWAP2 DUP3 SWAP2 DUP5 ADD SWAP1 DUP1 DUP4 DUP4 JUMPDEST PUSH1 0x20 DUP4 LT PUSH2 0x1BA0 JUMPI DUP1 MLOAD DUP3 MSTORE PUSH1 0x1F NOT SWAP1 SWAP3 ADD SWAP2 PUSH1 0x20 SWAP2 DUP3 ADD SWAP2 ADD PUSH2 0x1B81 JUMP JUMPDEST MLOAD DUP2 MLOAD PUSH1 0x20 SWAP4 DUP5 SUB PUSH2 0x100 EXP PUSH1 0x0 NOT ADD DUP1 NOT SWAP1 SWAP3 AND SWAP2 AND OR SWAP1 MSTORE SWAP3 ADD SWAP5 DUP6 MSTORE POP PUSH1 0x40 MLOAD SWAP4 DUP5 SWAP1 SUB DUP2 ADD DUP5 KECCAK256 PUSH1 0x8 ADD SLOAD DUP10 MLOAD PUSH1 0x1 PUSH1 0x1 PUSH1 0xA0 SHL SUB SWAP1 SWAP2 AND SWAP5 PUSH32 0x374F5882F0CC217EC34BFC0C8C62216C955345DB4129E0ACD4D57B8DDD9B6D0F SWAP5 POP DUP11 SWAP4 POP PUSH1 0x4 SWAP3 DUP5 SWAP3 DUP3 SWAP2 DUP5 ADD SWAP1 DUP1 DUP4 DUP4 JUMPDEST PUSH1 0x20 DUP4 LT PUSH2 0x1C30 JUMPI DUP1 MLOAD DUP3 MSTORE PUSH1 0x1F NOT SWAP1 SWAP3 ADD SWAP2 PUSH1 0x20 SWAP2 DUP3 ADD SWAP2 ADD PUSH2 0x1C11 JUMP JUMPDEST MLOAD DUP2 MLOAD PUSH1 0x20 SWAP4 DUP5 SUB PUSH2 0x100 EXP PUSH1 0x0 NOT ADD DUP1 NOT SWAP1 SWAP3 AND SWAP2 AND OR SWAP1 MSTORE SWAP3 ADD SWAP5 DUP6 MSTORE POP PUSH1 0x40 DUP1 MLOAD SWAP5 DUP6 SWAP1 SUB DUP3 ADD DUP6 KECCAK256 PUSH1 0x7 ADD SLOAD DUP6 DUP4 ADD DUP2 SWAP1 MSTORE DUP2 DUP7 MSTORE DUP7 MLOAD SWAP2 DUP7 ADD SWAP2 SWAP1 SWAP2 MSTORE DUP6 MLOAD SWAP1 SWAP5 SWAP4 POP DUP4 SWAP3 POP PUSH1 0x60 DUP4 ADD SWAP2 DUP7 ADD SWAP1 DUP1 DUP4 DUP4 PUSH1 0x0 JUMPDEST DUP4 DUP2 LT ISZERO PUSH2 0x1CA1 JUMPI DUP2 DUP2 ADD MLOAD DUP4 DUP3 ADD MSTORE PUSH1 0x20 ADD PUSH2 0x1C89 JUMP JUMPDEST POP POP POP POP SWAP1 POP SWAP1 DUP2 ADD SWAP1 PUSH1 0x1F AND DUP1 ISZERO PUSH2 0x1CCE JUMPI DUP1 DUP3 SUB DUP1 MLOAD PUSH1 0x1 DUP4 PUSH1 0x20 SUB PUSH2 0x100 EXP SUB NOT AND DUP2 MSTORE PUSH1 0x20 ADD SWAP2 POP JUMPDEST POP SWAP4 POP POP POP POP PUSH1 0x40 MLOAD DUP1 SWAP2 SUB SWAP1 LOG2 POP POP POP POP POP JUMP JUMPDEST PUSH1 0x0 PUSH1 0x4 DUP3 PUSH1 0x40 MLOAD DUP1 DUP3 DUP1 MLOAD SWAP1 PUSH1 0x20 ADD SWAP1 DUP1 DUP4 DUP4 JUMPDEST PUSH1 0x20 DUP4 LT PUSH2 0x1D17 JUMPI DUP1 MLOAD DUP3 MSTORE PUSH1 0x1F NOT SWAP1 SWAP3 ADD SWAP2 PUSH1 0x20 SWAP2 DUP3 ADD SWAP2 ADD PUSH2 0x1CF8 JUMP JUMPDEST MLOAD DUP2 MLOAD PUSH1 0x20 SWAP4 DUP5 SUB PUSH2 0x100 EXP PUSH1 0x0 NOT ADD DUP1 NOT SWAP1 SWAP3 AND SWAP2 AND OR SWAP1 MSTORE SWAP3 ADD SWAP5 DUP6 MSTORE POP PUSH1 0x40 MLOAD SWAP4 DUP5 SWAP1 SUB ADD SWAP1 SWAP3 KECCAK256 PUSH1 0x8 ADD SLOAD PUSH1 0x1 PUSH1 0xB0 SHL SWAP1 DIV PUSH1 0xFF AND SWAP5 SWAP4 POP POP POP POP JUMP JUMPDEST PUSH1 0x1 DUP2 DUP2 SLOAD DUP2 LT PUSH2 0x1D65 JUMPI INVALID JUMPDEST PUSH1 0x0 SWAP2 DUP3 MSTORE PUSH1 0x20 SWAP2 DUP3 SWAP1 KECCAK256 ADD DUP1 SLOAD PUSH1 0x40 DUP1 MLOAD PUSH1 0x1F PUSH1 0x2 PUSH1 0x0 NOT PUSH2 0x100 PUSH1 0x1 DUP8 AND ISZERO MUL ADD SWAP1 SWAP5 AND SWAP4 SWAP1 SWAP4 DIV SWAP3 DUP4 ADD DUP6 SWAP1 DIV DUP6 MUL DUP2 ADD DUP6 ADD SWAP1 SWAP2 MSTORE DUP2 DUP2 MSTORE SWAP4 POP SWAP1 SWAP2 DUP4 ADD DUP3 DUP3 DUP1 ISZERO PUSH2 0x1DF6 JUMPI DUP1 PUSH1 0x1F LT PUSH2 0x1DCB JUMPI PUSH2 0x100 DUP1 DUP4 SLOAD DIV MUL DUP4 MSTORE SWAP2 PUSH1 0x20 ADD SWAP2 PUSH2 0x1DF6 JUMP JUMPDEST DUP3 ADD SWAP2 SWAP1 PUSH1 0x0 MSTORE PUSH1 0x20 PUSH1 0x0 KECCAK256 SWAP1 JUMPDEST DUP2 SLOAD DUP2 MSTORE SWAP1 PUSH1 0x1 ADD SWAP1 PUSH1 0x20 ADD DUP1 DUP4 GT PUSH2 0x1DD9 JUMPI DUP3 SWAP1 SUB PUSH1 0x1F AND DUP3 ADD SWAP2 JUMPDEST POP POP POP POP POP DUP2 JUMP JUMPDEST PUSH1 0x0 PUSH1 0x4 DUP3 PUSH1 0x40 MLOAD DUP1 DUP3 DUP1 MLOAD SWAP1 PUSH1 0x20 ADD SWAP1 DUP1 DUP4 DUP4 JUMPDEST PUSH1 0x20 DUP4 LT PUSH2 0x1E32 JUMPI DUP1 MLOAD DUP3 MSTORE PUSH1 0x1F NOT SWAP1 SWAP3 ADD SWAP2 PUSH1 0x20 SWAP2 DUP3 ADD SWAP2 ADD PUSH2 0x1E13 JUMP JUMPDEST MLOAD DUP2 MLOAD PUSH1 0x20 SWAP4 DUP5 SUB PUSH2 0x100 EXP PUSH1 0x0 NOT ADD DUP1 NOT SWAP1 SWAP3 AND SWAP2 AND OR SWAP1 MSTORE SWAP3 ADD SWAP5 DUP6 MSTORE POP PUSH1 0x40 MLOAD SWAP4 DUP5 SWAP1 SUB ADD SWAP1 SWAP3 KECCAK256 PUSH1 0x8 ADD SLOAD PUSH1 0x1 PUSH1 0xA8 SHL SWAP1 DIV PUSH1 0xFF AND SWAP5 SWAP4 POP POP POP POP JUMP JUMPDEST PUSH1 0x3 DUP2 DUP2 SLOAD DUP2 LT PUSH2 0x1D65 JUMPI INVALID JUMPDEST PUSH1 0x5 DUP2 DUP2 SLOAD DUP2 LT PUSH2 0x1D65 JUMPI INVALID JUMPDEST PUSH1 0x0 DUP5 PUSH1 0x4 DUP8 PUSH1 0x40 MLOAD DUP1 DUP3 DUP1 MLOAD SWAP1 PUSH1 0x20 ADD SWAP1 DUP1 DUP4 DUP4 JUMPDEST PUSH1 0x20 DUP4 LT PUSH2 0x1EC2 JUMPI DUP1 MLOAD DUP3 MSTORE PUSH1 0x1F NOT SWAP1 SWAP3 ADD SWAP2 PUSH1 0x20 SWAP2 DUP3 ADD SWAP2 ADD PUSH2 0x1EA3 JUMP JUMPDEST PUSH1 0x1 DUP4 PUSH1 0x20 SUB PUSH2 0x100 EXP SUB DUP1 NOT DUP3 MLOAD AND DUP2 DUP5 MLOAD AND DUP1 DUP3 OR DUP6 MSTORE POP POP POP POP POP POP SWAP1 POP ADD SWAP2 POP POP SWAP1 DUP2 MSTORE PUSH1 0x20 ADD PUSH1 0x40 MLOAD DUP1 SWAP2 SUB SWAP1 KECCAK256 PUSH1 0x1 ADD SWAP1 DUP1 MLOAD SWAP1 PUSH1 0x20 ADD SWAP1 PUSH2 0x1F0B SWAP3 SWAP2 SWAP1 PUSH2 0x3B25 JUMP JUMPDEST POP DUP4 PUSH1 0x4 DUP8 PUSH1 0x40 MLOAD DUP1 DUP3 DUP1 MLOAD SWAP1 PUSH1 0x20 ADD SWAP1 DUP1 DUP4 DUP4 JUMPDEST PUSH1 0x20 DUP4 LT PUSH2 0x1F3F JUMPI DUP1 MLOAD DUP3 MSTORE PUSH1 0x1F NOT SWAP1 SWAP3 ADD SWAP2 PUSH1 0x20 SWAP2 DUP3 ADD SWAP2 ADD PUSH2 0x1F20 JUMP JUMPDEST MLOAD DUP2 MLOAD PUSH1 0x20 SWAP4 DUP5 SUB PUSH2 0x100 EXP PUSH1 0x0 NOT ADD DUP1 NOT SWAP1 SWAP3 AND SWAP2 AND OR SWAP1 MSTORE SWAP3 ADD SWAP5 DUP6 MSTORE POP PUSH1 0x40 MLOAD SWAP4 DUP5 SWAP1 SUB DUP2 ADD SWAP1 SWAP4 KECCAK256 DUP5 MLOAD PUSH2 0x1F84 SWAP6 PUSH1 0x2 SWAP1 SWAP3 ADD SWAP5 SWAP2 SWAP1 SWAP2 ADD SWAP3 POP SWAP1 POP PUSH2 0x3B25 JUMP JUMPDEST POP DUP3 PUSH1 0x4 DUP8 PUSH1 0x40 MLOAD DUP1 DUP3 DUP1 MLOAD SWAP1 PUSH1 0x20 ADD SWAP1 DUP1 DUP4 DUP4 JUMPDEST PUSH1 0x20 DUP4 LT PUSH2 0x1FB8 JUMPI DUP1 MLOAD DUP3 MSTORE PUSH1 0x1F NOT SWAP1 SWAP3 ADD SWAP2 PUSH1 0x20 SWAP2 DUP3 ADD SWAP2 ADD PUSH2 0x1F99 JUMP JUMPDEST MLOAD DUP2 MLOAD PUSH1 0x20 SWAP4 DUP5 SUB PUSH2 0x100 EXP PUSH1 0x0 NOT ADD DUP1 NOT SWAP1 SWAP3 AND SWAP2 AND OR SWAP1 MSTORE SWAP3 ADD SWAP5 DUP6 MSTORE POP PUSH1 0x40 MLOAD SWAP4 DUP5 SWAP1 SUB DUP2 ADD SWAP1 SWAP4 KECCAK256 DUP5 MLOAD PUSH2 0x1FFD SWAP6 PUSH1 0x3 SWAP1 SWAP3 ADD SWAP5 SWAP2 SWAP1 SWAP2 ADD SWAP3 POP SWAP1 POP PUSH2 0x3B25 JUMP JUMPDEST POP TIMESTAMP PUSH1 0x4 DUP8 PUSH1 0x40 MLOAD DUP1 DUP3 DUP1 MLOAD SWAP1 PUSH1 0x20 ADD SWAP1 DUP1 DUP4 DUP4 JUMPDEST PUSH1 0x20 DUP4 LT PUSH2 0x2031 JUMPI DUP1 MLOAD DUP3 MSTORE PUSH1 0x1F NOT SWAP1 SWAP3 ADD SWAP2 PUSH1 0x20 SWAP2 DUP3 ADD SWAP2 ADD PUSH2 0x2012 JUMP JUMPDEST MLOAD DUP2 MLOAD PUSH1 0x20 SWAP4 DUP5 SUB PUSH2 0x100 EXP PUSH1 0x0 NOT ADD DUP1 NOT SWAP1 SWAP3 AND SWAP2 AND OR SWAP1 MSTORE SWAP3 ADD SWAP5 DUP6 MSTORE POP PUSH1 0x40 MLOAD SWAP4 DUP5 SWAP1 SUB DUP2 ADD DUP5 KECCAK256 PUSH1 0x4 SWAP1 DUP2 ADD SWAP6 SWAP1 SWAP6 SSTORE DUP11 MLOAD TIMESTAMP SWAP6 SWAP5 DUP13 SWAP5 POP SWAP3 POP DUP3 SWAP2 DUP5 ADD SWAP1 DUP1 DUP4 DUP4 JUMPDEST PUSH1 0x20 DUP4 LT PUSH2 0x2097 JUMPI DUP1 MLOAD DUP3 MSTORE PUSH1 0x1F NOT SWAP1 SWAP3 ADD SWAP2 PUSH1 0x20 SWAP2 DUP3 ADD SWAP2 ADD PUSH2 0x2078 JUMP JUMPDEST MLOAD DUP2 MLOAD PUSH1 0x20 SWAP4 DUP5 SUB PUSH2 0x100 EXP PUSH1 0x0 NOT ADD DUP1 NOT SWAP1 SWAP3 AND SWAP2 AND OR SWAP1 MSTORE SWAP3 ADD SWAP5 DUP6 MSTORE POP PUSH1 0x40 MLOAD SWAP4 DUP5 SWAP1 SUB DUP2 ADD DUP5 KECCAK256 PUSH1 0x7 ADD SWAP5 SWAP1 SWAP5 SSTORE POP POP DUP8 MLOAD DUP5 SWAP3 PUSH1 0x4 SWAP3 DUP11 SWAP3 SWAP1 SWAP2 DUP3 SWAP2 SWAP1 DUP5 ADD SWAP1 DUP1 DUP4 DUP4 JUMPDEST PUSH1 0x20 DUP4 LT PUSH2 0x20FF JUMPI DUP1 MLOAD DUP3 MSTORE PUSH1 0x1F NOT SWAP1 SWAP3 ADD SWAP2 PUSH1 0x20 SWAP2 DUP3 ADD SWAP2 ADD PUSH2 0x20E0 JUMP JUMPDEST MLOAD DUP2 MLOAD PUSH1 0x20 SWAP4 DUP5 SUB PUSH2 0x100 EXP PUSH1 0x0 NOT ADD DUP1 NOT SWAP1 SWAP3 AND SWAP2 AND OR SWAP1 MSTORE SWAP3 ADD SWAP5 DUP6 MSTORE POP PUSH1 0x40 MLOAD SWAP4 DUP5 SWAP1 SUB DUP2 ADD DUP5 KECCAK256 PUSH1 0x5 ADD SWAP5 SWAP1 SWAP5 SSTORE POP POP DUP8 MLOAD CALLER SWAP3 PUSH1 0x4 SWAP3 DUP11 SWAP3 SWAP1 SWAP2 DUP3 SWAP2 SWAP1 DUP5 ADD SWAP1 DUP1 DUP4 DUP4 JUMPDEST PUSH1 0x20 DUP4 LT PUSH2 0x2167 JUMPI DUP1 MLOAD DUP3 MSTORE PUSH1 0x1F NOT SWAP1 SWAP3 ADD SWAP2 PUSH1 0x20 SWAP2 DUP3 ADD SWAP2 ADD PUSH2 0x2148 JUMP JUMPDEST MLOAD DUP2 MLOAD PUSH1 0x20 SWAP4 DUP5 SUB PUSH2 0x100 EXP PUSH1 0x0 NOT ADD DUP1 NOT SWAP1 SWAP3 AND SWAP2 AND OR SWAP1 MSTORE SWAP3 ADD SWAP5 DUP6 MSTORE POP PUSH1 0x40 MLOAD SWAP4 DUP5 SWAP1 SUB ADD SWAP1 SWAP3 KECCAK256 PUSH1 0x6 ADD DUP1 SLOAD PUSH1 0x1 PUSH1 0x1 PUSH1 0xA0 SHL SUB NOT AND PUSH1 0x1 PUSH1 0x1 PUSH1 0xA0 SHL SUB SWAP5 SWAP1 SWAP5 AND SWAP4 SWAP1 SWAP4 OR SWAP1 SWAP3 SSTORE POP POP DUP4 MLOAD ISZERO DUP1 ISZERO SWAP1 PUSH2 0x21C6 JUMPI POP DUP3 MLOAD ISZERO ISZERO JUMPDEST PUSH2 0x2201 JUMPI PUSH1 0x40 MLOAD PUSH3 0x461BCD PUSH1 0xE5 SHL DUP2 MSTORE PUSH1 0x4 ADD DUP1 DUP1 PUSH1 0x20 ADD DUP3 DUP2 SUB DUP3 MSTORE PUSH1 0x2C DUP2 MSTORE PUSH1 0x20 ADD DUP1 PUSH2 0x3BED PUSH1 0x2C SWAP2 CODECOPY PUSH1 0x40 ADD SWAP2 POP POP PUSH1 0x40 MLOAD DUP1 SWAP2 SUB SWAP1 REVERT JUMPDEST PUSH1 0x1 PUSH1 0x4 DUP8 PUSH1 0x40 MLOAD DUP1 DUP3 DUP1 MLOAD SWAP1 PUSH1 0x20 ADD SWAP1 DUP1 DUP4 DUP4 JUMPDEST PUSH1 0x20 DUP4 LT PUSH2 0x2235 JUMPI DUP1 MLOAD DUP3 MSTORE PUSH1 0x1F NOT SWAP1 SWAP3 ADD SWAP2 PUSH1 0x20 SWAP2 DUP3 ADD SWAP2 ADD PUSH2 0x2216 JUMP JUMPDEST MLOAD DUP2 MLOAD PUSH1 0x20 SWAP4 DUP5 SUB PUSH2 0x100 EXP PUSH1 0x0 NOT ADD DUP1 NOT SWAP1 SWAP3 AND SWAP2 AND OR SWAP1 MSTORE SWAP3 ADD SWAP5 DUP6 MSTORE POP PUSH1 0x40 MLOAD SWAP4 DUP5 SWAP1 SUB DUP2 ADD DUP5 KECCAK256 PUSH1 0x8 ADD DUP1 SLOAD PUSH1 0xFF PUSH1 0xA0 SHL NOT AND PUSH1 0x1 PUSH1 0xA0 SHL SWAP7 ISZERO ISZERO SWAP7 SWAP1 SWAP7 MUL SWAP6 SWAP1 SWAP6 OR SWAP1 SWAP5 SSTORE POP POP DUP8 MLOAD PUSH1 0x1 SWAP3 PUSH1 0x4 SWAP3 DUP11 SWAP3 SWAP1 SWAP2 DUP3 SWAP2 SWAP1 DUP5 ADD SWAP1 DUP1 DUP4 DUP4 JUMPDEST PUSH1 0x20 DUP4 LT PUSH2 0x22B6 JUMPI DUP1 MLOAD DUP3 MSTORE PUSH1 0x1F NOT SWAP1 SWAP3 ADD SWAP2 PUSH1 0x20 SWAP2 DUP3 ADD SWAP2 ADD PUSH2 0x2297 JUMP JUMPDEST MLOAD DUP2 MLOAD PUSH1 0x20 SWAP4 DUP5 SUB PUSH2 0x100 EXP PUSH1 0x0 NOT ADD DUP1 NOT SWAP1 SWAP3 AND SWAP2 AND OR SWAP1 MSTORE SWAP3 ADD SWAP5 DUP6 MSTORE POP PUSH1 0x40 MLOAD SWAP4 DUP5 SWAP1 SUB DUP2 ADD DUP5 KECCAK256 PUSH1 0x8 ADD DUP1 SLOAD PUSH1 0xFF PUSH1 0xA8 SHL NOT AND PUSH1 0x1 PUSH1 0xA8 SHL SWAP7 ISZERO ISZERO SWAP7 SWAP1 SWAP7 MUL SWAP6 SWAP1 SWAP6 OR SWAP1 SWAP5 SSTORE POP POP DUP8 MLOAD PUSH1 0x0 SWAP3 PUSH1 0x4 SWAP3 DUP11 SWAP3 SWAP1 SWAP2 DUP3 SWAP2 SWAP1 DUP5 ADD SWAP1 DUP1 DUP4 DUP4 JUMPDEST PUSH1 0x20 DUP4 LT PUSH2 0x2337 JUMPI DUP1 MLOAD DUP3 MSTORE PUSH1 0x1F NOT SWAP1 SWAP3 ADD SWAP2 PUSH1 0x20 SWAP2 DUP3 ADD SWAP2 ADD PUSH2 0x2318 JUMP JUMPDEST MLOAD DUP2 MLOAD PUSH1 0x20 SWAP4 DUP5 SUB PUSH2 0x100 EXP PUSH1 0x0 NOT ADD DUP1 NOT SWAP1 SWAP3 AND SWAP2 AND OR SWAP1 MSTORE SWAP3 ADD SWAP5 DUP6 MSTORE POP PUSH1 0x40 MLOAD SWAP4 DUP5 SWAP1 SUB DUP2 ADD SWAP1 SWAP4 KECCAK256 PUSH1 0x8 ADD DUP1 SLOAD PUSH1 0xFF PUSH1 0xB0 SHL NOT AND PUSH1 0x1 PUSH1 0xB0 SHL SWAP6 ISZERO ISZERO SWAP6 SWAP1 SWAP6 MUL SWAP5 SWAP1 SWAP5 OR SWAP1 SWAP4 SSTORE POP PUSH1 0x5 DUP1 SLOAD PUSH1 0x1 DUP2 ADD DUP3 SSTORE PUSH1 0x0 SWAP2 SWAP1 SWAP2 MSTORE DUP9 MLOAD PUSH2 0x23C7 SWAP4 POP PUSH32 0x36B6384B5ECA791C62761152D0C79BB0604C104A5FB6F4EB0703F3154BB3DB0 SWAP1 SWAP2 ADD SWAP2 DUP10 ADD SWAP1 PUSH2 0x3B25 JUMP JUMPDEST POP PUSH1 0x1 PUSH1 0x2 DUP7 PUSH1 0x40 MLOAD DUP1 DUP3 DUP1 MLOAD SWAP1 PUSH1 0x20 ADD SWAP1 DUP1 DUP4 DUP4 JUMPDEST PUSH1 0x20 DUP4 LT PUSH2 0x23FC JUMPI DUP1 MLOAD DUP3 MSTORE PUSH1 0x1F NOT SWAP1 SWAP3 ADD SWAP2 PUSH1 0x20 SWAP2 DUP3 ADD SWAP2 ADD PUSH2 0x23DD JUMP JUMPDEST MLOAD DUP2 MLOAD PUSH1 0x20 SWAP4 DUP5 SUB PUSH2 0x100 EXP PUSH1 0x0 NOT ADD DUP1 NOT SWAP1 SWAP3 AND SWAP2 AND OR SWAP1 MSTORE SWAP3 ADD SWAP5 DUP6 MSTORE POP PUSH1 0x40 MLOAD SWAP4 DUP5 SWAP1 SUB ADD SWAP1 SWAP3 KECCAK256 PUSH1 0x7 SWAP1 DUP2 ADD DUP1 SLOAD SWAP1 SWAP4 POP PUSH1 0xFF NOT AND SWAP2 POP PUSH1 0x1 SWAP1 DUP5 SWAP1 DUP2 GT ISZERO PUSH2 0x2445 JUMPI INVALID JUMPDEST MUL OR SWAP1 SSTORE POP PUSH1 0x4 DUP7 PUSH1 0x40 MLOAD DUP1 DUP3 DUP1 MLOAD SWAP1 PUSH1 0x20 ADD SWAP1 DUP1 DUP4 DUP4 JUMPDEST PUSH1 0x20 DUP4 LT PUSH2 0x247C JUMPI DUP1 MLOAD DUP3 MSTORE PUSH1 0x1F NOT SWAP1 SWAP3 ADD SWAP2 PUSH1 0x20 SWAP2 DUP3 ADD SWAP2 ADD PUSH2 0x245D JUMP JUMPDEST MLOAD DUP2 MLOAD PUSH1 0x20 SWAP4 DUP5 SUB PUSH2 0x100 EXP PUSH1 0x0 NOT ADD DUP1 NOT SWAP1 SWAP3 AND SWAP2 AND OR SWAP1 MSTORE SWAP3 ADD SWAP5 DUP6 MSTORE POP PUSH1 0x40 MLOAD SWAP4 DUP5 SWAP1 SUB DUP2 ADD DUP5 KECCAK256 PUSH1 0x6 ADD SLOAD DUP11 MLOAD PUSH1 0x1 PUSH1 0x1 PUSH1 0xA0 SHL SUB SWAP1 SWAP2 AND SWAP5 PUSH32 0x2A3F32CD23CDB568CC4C978B444A6336F123C5CC70A969C95F715C63F138C467 SWAP5 POP DUP12 SWAP4 POP DUP11 SWAP3 PUSH1 0x4 SWAP3 DUP6 SWAP3 SWAP2 DUP3 SWAP2 SWAP1 DUP5 ADD SWAP1 DUP1 DUP4 DUP4 JUMPDEST PUSH1 0x20 DUP4 LT PUSH2 0x2510 JUMPI DUP1 MLOAD DUP3 MSTORE PUSH1 0x1F NOT SWAP1 SWAP3 ADD SWAP2 PUSH1 0x20 SWAP2 DUP3 ADD SWAP2 ADD PUSH2 0x24F1 JUMP JUMPDEST MLOAD DUP2 MLOAD PUSH1 0x20 SWAP4 DUP5 SUB PUSH2 0x100 EXP PUSH1 0x0 NOT ADD DUP1 NOT SWAP1 SWAP3 AND SWAP2 AND OR SWAP1 MSTORE SWAP3 ADD SWAP5 DUP6 MSTORE POP PUSH1 0x40 DUP1 MLOAD SWAP5 DUP6 SWAP1 SUB DUP3 ADD DUP6 KECCAK256 PUSH1 0x8 ADD SLOAD PUSH1 0x1 PUSH1 0xA8 SHL SWAP1 DIV PUSH1 0xFF AND DUP1 ISZERO ISZERO SWAP2 DUP7 ADD SWAP2 SWAP1 SWAP2 MSTORE PUSH1 0x60 DUP1 DUP7 MSTORE DUP8 MLOAD SWAP1 DUP7 ADD MSTORE DUP7 MLOAD SWAP1 SWAP5 SWAP4 POP DUP4 SWAP3 POP DUP3 DUP3 ADD SWAP2 PUSH1 0x80 DUP5 ADD SWAP2 SWAP1 DUP9 ADD SWAP1 DUP1 DUP4 DUP4 PUSH1 0x0 JUMPDEST DUP4 DUP2 LT ISZERO PUSH2 0x2593 JUMPI DUP2 DUP2 ADD MLOAD DUP4 DUP3 ADD MSTORE PUSH1 0x20 ADD PUSH2 0x257B JUMP JUMPDEST POP POP POP POP SWAP1 POP SWAP1 DUP2 ADD SWAP1 PUSH1 0x1F AND DUP1 ISZERO PUSH2 0x25C0 JUMPI DUP1 DUP3 SUB DUP1 MLOAD PUSH1 0x1 DUP4 PUSH1 0x20 SUB PUSH2 0x100 EXP SUB NOT AND DUP2 MSTORE PUSH1 0x20 ADD SWAP2 POP JUMPDEST POP DUP4 DUP2 SUB DUP3 MSTORE DUP6 MLOAD DUP2 MSTORE DUP6 MLOAD PUSH1 0x20 SWAP2 DUP3 ADD SWAP2 DUP8 ADD SWAP1 DUP1 DUP4 DUP4 PUSH1 0x0 JUMPDEST DUP4 DUP2 LT ISZERO PUSH2 0x25F3 JUMPI DUP2 DUP2 ADD MLOAD DUP4 DUP3 ADD MSTORE PUSH1 0x20 ADD PUSH2 0x25DB JUMP JUMPDEST POP POP POP POP SWAP1 POP SWAP1 DUP2 ADD SWAP1 PUSH1 0x1F AND DUP1 ISZERO PUSH2 0x2620 JUMPI DUP1 DUP3 SUB DUP1 MLOAD PUSH1 0x1 DUP4 PUSH1 0x20 SUB PUSH2 0x100 EXP SUB NOT AND DUP2 MSTORE PUSH1 0x20 ADD SWAP2 POP JUMPDEST POP SWAP6 POP POP POP POP POP POP PUSH1 0x40 MLOAD DUP1 SWAP2 SUB SWAP1 LOG2 POP PUSH1 0x1 SWAP6 SWAP5 POP POP POP POP POP JUMP JUMPDEST PUSH1 0x3 SLOAD JUMPDEST SWAP1 JUMP JUMPDEST PUSH1 0x0 DUP9 PUSH1 0x0 DUP12 PUSH1 0x40 MLOAD DUP1 DUP3 DUP1 MLOAD SWAP1 PUSH1 0x20 ADD SWAP1 DUP1 DUP4 DUP4 JUMPDEST PUSH1 0x20 DUP4 LT PUSH2 0x2678 JUMPI DUP1 MLOAD DUP3 MSTORE PUSH1 0x1F NOT SWAP1 SWAP3 ADD SWAP2 PUSH1 0x20 SWAP2 DUP3 ADD SWAP2 ADD PUSH2 0x2659 JUMP JUMPDEST PUSH1 0x1 DUP4 PUSH1 0x20 SUB PUSH2 0x100 EXP SUB DUP1 NOT DUP3 MLOAD AND DUP2 DUP5 MLOAD AND DUP1 DUP3 OR DUP6 MSTORE POP POP POP POP POP POP SWAP1 POP ADD SWAP2 POP POP SWAP1 DUP2 MSTORE PUSH1 0x20 ADD PUSH1 0x40 MLOAD DUP1 SWAP2 SUB SWAP1 KECCAK256 PUSH1 0x1 ADD SWAP1 DUP1 MLOAD SWAP1 PUSH1 0x20 ADD SWAP1 PUSH2 0x26C1 SWAP3 SWAP2 SWAP1 PUSH2 0x3B25 JUMP JUMPDEST POP DUP8 PUSH1 0x0 DUP12 PUSH1 0x40 MLOAD DUP1 DUP3 DUP1 MLOAD SWAP1 PUSH1 0x20 ADD SWAP1 DUP1 DUP4 DUP4 JUMPDEST PUSH1 0x20 DUP4 LT PUSH2 0x26F5 JUMPI DUP1 MLOAD DUP3 MSTORE PUSH1 0x1F NOT SWAP1 SWAP3 ADD SWAP2 PUSH1 0x20 SWAP2 DUP3 ADD SWAP2 ADD PUSH2 0x26D6 JUMP JUMPDEST MLOAD DUP2 MLOAD PUSH1 0x20 SWAP4 DUP5 SUB PUSH2 0x100 EXP PUSH1 0x0 NOT ADD DUP1 NOT SWAP1 SWAP3 AND SWAP2 AND OR SWAP1 MSTORE SWAP3 ADD SWAP5 DUP6 MSTORE POP PUSH1 0x40 MLOAD SWAP4 DUP5 SWAP1 SUB DUP2 ADD DUP5 KECCAK256 PUSH1 0x2 ADD DUP1 SLOAD PUSH1 0x1 PUSH1 0x1 PUSH1 0xA0 SHL SUB NOT AND PUSH1 0x1 PUSH1 0x1 PUSH1 0xA0 SHL SUB SWAP7 SWAP1 SWAP7 AND SWAP6 SWAP1 SWAP6 OR SWAP1 SWAP5 SSTORE POP POP DUP12 MLOAD DUP10 SWAP3 PUSH1 0x0 SWAP3 DUP15 SWAP3 SWAP1 SWAP2 DUP3 SWAP2 SWAP1 DUP5 ADD SWAP1 DUP1 DUP4 DUP4 JUMPDEST PUSH1 0x20 DUP4 LT PUSH2 0x2778 JUMPI DUP1 MLOAD DUP3 MSTORE PUSH1 0x1F NOT SWAP1 SWAP3 ADD SWAP2 PUSH1 0x20 SWAP2 DUP3 ADD SWAP2 ADD PUSH2 0x2759 JUMP JUMPDEST MLOAD DUP2 MLOAD PUSH1 0x20 SWAP4 DUP5 SUB PUSH2 0x100 EXP PUSH1 0x0 NOT ADD DUP1 NOT SWAP1 SWAP3 AND SWAP2 AND OR SWAP1 MSTORE SWAP3 ADD SWAP5 DUP6 MSTORE POP PUSH1 0x40 MLOAD SWAP4 DUP5 SWAP1 SUB DUP2 ADD DUP5 KECCAK256 PUSH1 0x2 ADD DUP1 SLOAD PUSH1 0xFF PUSH1 0xA0 SHL NOT AND PUSH1 0x1 PUSH1 0xA0 SHL SWAP7 ISZERO ISZERO SWAP7 SWAP1 SWAP7 MUL SWAP6 SWAP1 SWAP6 OR SWAP1 SWAP5 SSTORE POP POP DUP12 MLOAD DUP9 SWAP3 PUSH1 0x0 SWAP3 DUP15 SWAP3 SWAP1 SWAP2 DUP3 SWAP2 SWAP1 DUP5 ADD SWAP1 DUP1 DUP4 DUP4 JUMPDEST PUSH1 0x20 DUP4 LT PUSH2 0x27F8 JUMPI DUP1 MLOAD DUP3 MSTORE PUSH1 0x1F NOT SWAP1 SWAP3 ADD SWAP2 PUSH1 0x20 SWAP2 DUP3 ADD SWAP2 ADD PUSH2 0x27D9 JUMP JUMPDEST MLOAD DUP2 MLOAD PUSH1 0x20 SWAP4 DUP5 SUB PUSH2 0x100 EXP PUSH1 0x0 NOT ADD DUP1 NOT SWAP1 SWAP3 AND SWAP2 AND OR SWAP1 MSTORE SWAP3 ADD SWAP5 DUP6 MSTORE POP PUSH1 0x40 MLOAD SWAP4 DUP5 SWAP1 SUB DUP2 ADD DUP5 KECCAK256 PUSH1 0x2 ADD DUP1 SLOAD PUSH1 0xFF PUSH1 0xA8 SHL NOT AND PUSH1 0x1 PUSH1 0xA8 SHL SWAP7 ISZERO ISZERO SWAP7 SWAP1 SWAP7 MUL SWAP6 SWAP1 SWAP6 OR SWAP1 SWAP5 SSTORE POP POP DUP12 MLOAD DUP8 SWAP3 PUSH1 0x0 SWAP3 DUP15 SWAP3 SWAP1 SWAP2 DUP3 SWAP2 SWAP1 DUP5 ADD SWAP1 DUP1 DUP4 DUP4 JUMPDEST PUSH1 0x20 DUP4 LT PUSH2 0x2878 JUMPI DUP1 MLOAD DUP3 MSTORE PUSH1 0x1F NOT SWAP1 SWAP3 ADD SWAP2 PUSH1 0x20 SWAP2 DUP3 ADD SWAP2 ADD PUSH2 0x2859 JUMP JUMPDEST MLOAD DUP2 MLOAD PUSH1 0x20 SWAP4 DUP5 SUB PUSH2 0x100 EXP PUSH1 0x0 NOT ADD DUP1 NOT SWAP1 SWAP3 AND SWAP2 AND OR SWAP1 MSTORE SWAP3 ADD SWAP5 DUP6 MSTORE POP PUSH1 0x40 MLOAD SWAP4 DUP5 SWAP1 SUB DUP2 ADD DUP5 KECCAK256 PUSH1 0x2 ADD DUP1 SLOAD PUSH1 0xFF PUSH1 0xB0 SHL NOT AND PUSH1 0x1 PUSH1 0xB0 SHL SWAP7 ISZERO ISZERO SWAP7 SWAP1 SWAP7 MUL SWAP6 SWAP1 SWAP6 OR SWAP1 SWAP5 SSTORE POP POP DUP12 MLOAD DUP7 SWAP3 PUSH1 0x0 SWAP3 DUP15 SWAP3 SWAP1 SWAP2 DUP3 SWAP2 SWAP1 DUP5 ADD SWAP1 DUP1 DUP4 DUP4 JUMPDEST PUSH1 0x20 DUP4 LT PUSH2 0x28F8 JUMPI DUP1 MLOAD DUP3 MSTORE PUSH1 0x1F NOT SWAP1 SWAP3 ADD SWAP2 PUSH1 0x20 SWAP2 DUP3 ADD SWAP2 ADD PUSH2 0x28D9 JUMP JUMPDEST MLOAD DUP2 MLOAD PUSH1 0x20 SWAP4 DUP5 SUB PUSH2 0x100 EXP PUSH1 0x0 NOT ADD DUP1 NOT SWAP1 SWAP3 AND SWAP2 AND OR SWAP1 MSTORE SWAP3 ADD SWAP5 DUP6 MSTORE POP PUSH1 0x40 MLOAD SWAP4 DUP5 SWAP1 SUB DUP2 ADD DUP5 KECCAK256 PUSH1 0x2 ADD DUP1 SLOAD PUSH1 0xFF PUSH1 0xB8 SHL NOT AND PUSH1 0x1 PUSH1 0xB8 SHL SWAP7 ISZERO ISZERO SWAP7 SWAP1 SWAP7 MUL SWAP6 SWAP1 SWAP6 OR SWAP1 SWAP5 SSTORE POP POP DUP12 MLOAD DUP6 SWAP3 PUSH1 0x0 SWAP3 DUP15 SWAP3 SWAP1 SWAP2 DUP3 SWAP2 SWAP1 DUP5 ADD SWAP1 DUP1 DUP4 DUP4 JUMPDEST PUSH1 0x20 DUP4 LT PUSH2 0x2978 JUMPI DUP1 MLOAD DUP3 MSTORE PUSH1 0x1F NOT SWAP1 SWAP3 ADD SWAP2 PUSH1 0x20 SWAP2 DUP3 ADD SWAP2 ADD PUSH2 0x2959 JUMP JUMPDEST MLOAD DUP2 MLOAD PUSH1 0x20 SWAP4 DUP5 SUB PUSH2 0x100 EXP PUSH1 0x0 NOT ADD DUP1 NOT SWAP1 SWAP3 AND SWAP2 AND OR SWAP1 MSTORE SWAP3 ADD SWAP5 DUP6 MSTORE POP PUSH1 0x40 MLOAD SWAP4 DUP5 SWAP1 SUB DUP2 ADD DUP5 KECCAK256 PUSH1 0x2 ADD DUP1 SLOAD PUSH1 0xFF PUSH1 0xC8 SHL NOT AND PUSH1 0x1 PUSH1 0xC8 SHL SWAP7 ISZERO ISZERO SWAP7 SWAP1 SWAP7 MUL SWAP6 SWAP1 SWAP6 OR SWAP1 SWAP5 SSTORE POP POP DUP12 MLOAD DUP5 SWAP3 PUSH1 0x0 SWAP3 DUP15 SWAP3 SWAP1 SWAP2 DUP3 SWAP2 SWAP1 DUP5 ADD SWAP1 DUP1 DUP4 DUP4 JUMPDEST PUSH1 0x20 DUP4 LT PUSH2 0x29F8 JUMPI DUP1 MLOAD DUP3 MSTORE PUSH1 0x1F NOT SWAP1 SWAP3 ADD SWAP2 PUSH1 0x20 SWAP2 DUP3 ADD SWAP2 ADD PUSH2 0x29D9 JUMP JUMPDEST MLOAD DUP2 MLOAD PUSH1 0x20 SWAP4 DUP5 SUB PUSH2 0x100 EXP PUSH1 0x0 NOT ADD DUP1 NOT SWAP1 SWAP3 AND SWAP2 AND OR SWAP1 MSTORE SWAP3 ADD SWAP5 DUP6 MSTORE POP PUSH1 0x40 MLOAD SWAP4 DUP5 SWAP1 SUB DUP2 ADD SWAP1 SWAP4 KECCAK256 PUSH1 0x2 ADD DUP1 SLOAD PUSH1 0xFF PUSH1 0xC0 SHL NOT AND PUSH1 0x1 PUSH1 0xC0 SHL SWAP6 ISZERO ISZERO SWAP6 SWAP1 SWAP6 MUL SWAP5 SWAP1 SWAP5 OR SWAP1 SWAP4 SSTORE POP PUSH1 0x1 DUP1 SLOAD DUP1 DUP3 ADD DUP3 SSTORE PUSH1 0x0 SWAP2 SWAP1 SWAP2 MSTORE DUP13 MLOAD PUSH2 0x2A87 SWAP4 POP PUSH32 0xB10E2D527612073B26EECDFD717E6A320CF44B4AFAC2B0732D9FCBE2B7FA0CF6 SWAP1 SWAP2 ADD SWAP2 DUP14 ADD SWAP1 PUSH2 0x3B25 JUMP JUMPDEST POP DUP8 PUSH1 0x1 PUSH1 0x1 PUSH1 0xA0 SHL SUB AND PUSH32 0x8D773BB54839D9388759BB91F7A28541064ABF2AF224740C51C8E1970FB908DE DUP12 DUP12 PUSH1 0x40 MLOAD DUP1 DUP1 PUSH1 0x20 ADD DUP1 PUSH1 0x20 ADD DUP4 DUP2 SUB DUP4 MSTORE DUP6 DUP2 DUP2 MLOAD DUP2 MSTORE PUSH1 0x20 ADD SWAP2 POP DUP1 MLOAD SWAP1 PUSH1 0x20 ADD SWAP1 DUP1 DUP4 DUP4 PUSH1 0x0 JUMPDEST DUP4 DUP2 LT ISZERO PUSH2 0x2AF6 JUMPI DUP2 DUP2 ADD MLOAD DUP4 DUP3 ADD MSTORE PUSH1 0x20 ADD PUSH2 0x2ADE JUMP JUMPDEST POP POP POP POP SWAP1 POP SWAP1 DUP2 ADD SWAP1 PUSH1 0x1F AND DUP1 ISZERO PUSH2 0x2B23 JUMPI DUP1 DUP3 SUB DUP1 MLOAD PUSH1 0x1 DUP4 PUSH1 0x20 SUB PUSH2 0x100 EXP SUB NOT AND DUP2 MSTORE PUSH1 0x20 ADD SWAP2 POP JUMPDEST POP DUP4 DUP2 SUB DUP3 MSTORE DUP5 MLOAD DUP2 MSTORE DUP5 MLOAD PUSH1 0x20 SWAP2 DUP3 ADD SWAP2 DUP7 ADD SWAP1 DUP1 DUP4 DUP4 PUSH1 0x0 JUMPDEST DUP4 DUP2 LT ISZERO PUSH2 0x2B56 JUMPI DUP2 DUP2 ADD MLOAD DUP4 DUP3 ADD MSTORE PUSH1 0x20 ADD PUSH2 0x2B3E JUMP JUMPDEST POP POP POP POP SWAP1 POP SWAP1 DUP2 ADD SWAP1 PUSH1 0x1F AND DUP1 ISZERO PUSH2 0x2B83 JUMPI DUP1 DUP3 SUB DUP1 MLOAD PUSH1 0x1 DUP4 PUSH1 0x20 SUB PUSH2 0x100 EXP SUB NOT AND DUP2 MSTORE PUSH1 0x20 ADD SWAP2 POP JUMPDEST POP SWAP5 POP POP POP POP POP PUSH1 0x40 MLOAD DUP1 SWAP2 SUB SWAP1 LOG2 POP PUSH1 0x1 SWAP10 SWAP9 POP POP POP POP POP POP POP POP POP JUMP JUMPDEST PUSH1 0x5 SLOAD SWAP1 JUMP JUMPDEST PUSH1 0x0 DUP1 PUSH1 0x60 DUP1 PUSH1 0x0 PUSH1 0x60 DUP1 PUSH1 0x2 DUP9 PUSH1 0x40 MLOAD DUP1 DUP3 DUP1 MLOAD SWAP1 PUSH1 0x20 ADD SWAP1 DUP1 DUP4 DUP4 JUMPDEST PUSH1 0x20 DUP4 LT PUSH2 0x2BE5 JUMPI DUP1 MLOAD DUP3 MSTORE PUSH1 0x1F NOT SWAP1 SWAP3 ADD SWAP2 PUSH1 0x20 SWAP2 DUP3 ADD SWAP2 ADD PUSH2 0x2BC6 JUMP JUMPDEST MLOAD DUP2 MLOAD PUSH1 0x20 SWAP4 DUP5 SUB PUSH2 0x100 EXP PUSH1 0x0 NOT ADD DUP1 NOT SWAP1 SWAP3 AND SWAP2 AND OR SWAP1 MSTORE SWAP3 ADD SWAP5 DUP6 MSTORE POP PUSH1 0x40 MLOAD SWAP4 DUP5 SWAP1 SUB DUP2 ADD DUP5 KECCAK256 PUSH1 0x1 ADD SLOAD DUP13 MLOAD PUSH1 0x1 PUSH1 0x1 PUSH1 0xA0 SHL SUB SWAP1 SWAP2 AND SWAP5 PUSH1 0x2 SWAP5 POP DUP14 SWAP4 POP SWAP2 DUP3 SWAP2 SWAP1 DUP5 ADD SWAP1 DUP1 DUP4 DUP4 JUMPDEST PUSH1 0x20 DUP4 LT PUSH2 0x2C53 JUMPI DUP1 MLOAD DUP3 MSTORE PUSH1 0x1F NOT SWAP1 SWAP3 ADD SWAP2 PUSH1 0x20 SWAP2 DUP3 ADD SWAP2 ADD PUSH2 0x2C34 JUMP JUMPDEST MLOAD DUP2 MLOAD PUSH1 0x20 SWAP4 DUP5 SUB PUSH2 0x100 EXP PUSH1 0x0 NOT ADD DUP1 NOT SWAP1 SWAP3 AND SWAP2 AND OR SWAP1 MSTORE SWAP3 ADD SWAP5 DUP6 MSTORE POP PUSH1 0x40 MLOAD SWAP4 DUP5 SWAP1 SUB DUP2 ADD DUP5 KECCAK256 PUSH1 0x2 SWAP1 DUP2 ADD SLOAD DUP15 MLOAD PUSH1 0x1 PUSH1 0x1 PUSH1 0xA0 SHL SUB SWAP1 SWAP2 AND SWAP6 SWAP2 SWAP5 POP DUP15 SWAP4 POP SWAP1 SWAP2 DUP3 SWAP2 SWAP1 DUP5 ADD SWAP1 DUP1 DUP4 DUP4 JUMPDEST PUSH1 0x20 DUP4 LT PUSH2 0x2CC3 JUMPI DUP1 MLOAD DUP3 MSTORE PUSH1 0x1F NOT SWAP1 SWAP3 ADD SWAP2 PUSH1 0x20 SWAP2 DUP3 ADD SWAP2 ADD PUSH2 0x2CA4 JUMP JUMPDEST PUSH1 0x1 DUP4 PUSH1 0x20 SUB PUSH2 0x100 EXP SUB DUP1 NOT DUP3 MLOAD AND DUP2 DUP5 MLOAD AND DUP1 DUP3 OR DUP6 MSTORE POP POP POP POP POP POP SWAP1 POP ADD SWAP2 POP POP SWAP1 DUP2 MSTORE PUSH1 0x20 ADD PUSH1 0x40 MLOAD DUP1 SWAP2 SUB SWAP1 KECCAK256 PUSH1 0x3 ADD PUSH1 0x2 DUP12 PUSH1 0x40 MLOAD DUP1 DUP3 DUP1 MLOAD SWAP1 PUSH1 0x20 ADD SWAP1 DUP1 DUP4 DUP4 JUMPDEST PUSH1 0x20 DUP4 LT PUSH2 0x2D2B JUMPI DUP1 MLOAD DUP3 MSTORE PUSH1 0x1F NOT SWAP1 SWAP3 ADD SWAP2 PUSH1 0x20 SWAP2 DUP3 ADD SWAP2 ADD PUSH2 0x2D0C JUMP JUMPDEST PUSH1 0x1 DUP4 PUSH1 0x20 SUB PUSH2 0x100 EXP SUB DUP1 NOT DUP3 MLOAD AND DUP2 DUP5 MLOAD AND DUP1 DUP3 OR DUP6 MSTORE POP POP POP POP POP POP SWAP1 POP ADD SWAP2 POP POP SWAP1 DUP2 MSTORE PUSH1 0x20 ADD PUSH1 0x40 MLOAD DUP1 SWAP2 SUB SWAP1 KECCAK256 PUSH1 0x4 ADD PUSH1 0x2 DUP13 PUSH1 0x40 MLOAD DUP1 DUP3 DUP1 MLOAD SWAP1 PUSH1 0x20 ADD SWAP1 DUP1 DUP4 DUP4 JUMPDEST PUSH1 0x20 DUP4 LT PUSH2 0x2D93 JUMPI DUP1 MLOAD DUP3 MSTORE PUSH1 0x1F NOT SWAP1 SWAP3 ADD SWAP2 PUSH1 0x20 SWAP2 DUP3 ADD SWAP2 ADD PUSH2 0x2D74 JUMP JUMPDEST PUSH1 0x1 DUP4 PUSH1 0x20 SUB PUSH2 0x100 EXP SUB DUP1 NOT DUP3 MLOAD AND DUP2 DUP5 MLOAD AND DUP1 DUP3 OR DUP6 MSTORE POP POP POP POP POP POP SWAP1 POP ADD SWAP2 POP POP SWAP1 DUP2 MSTORE PUSH1 0x20 ADD PUSH1 0x40 MLOAD DUP1 SWAP2 SUB SWAP1 KECCAK256 PUSH1 0x5 ADD SLOAD PUSH1 0x2 DUP14 PUSH1 0x40 MLOAD DUP1 DUP3 DUP1 MLOAD SWAP1 PUSH1 0x20 ADD SWAP1 DUP1 DUP4 DUP4 JUMPDEST PUSH1 0x20 DUP4 LT PUSH2 0x2DFC JUMPI DUP1 MLOAD DUP3 MSTORE PUSH1 0x1F NOT SWAP1 SWAP3 ADD SWAP2 PUSH1 0x20 SWAP2 DUP3 ADD SWAP2 ADD PUSH2 0x2DDD JUMP JUMPDEST PUSH1 0x1 DUP4 PUSH1 0x20 SUB PUSH2 0x100 EXP SUB DUP1 NOT DUP3 MLOAD AND DUP2 DUP5 MLOAD AND DUP1 DUP3 OR DUP6 MSTORE POP POP POP POP POP POP SWAP1 POP ADD SWAP2 POP POP SWAP1 DUP2 MSTORE PUSH1 0x20 ADD PUSH1 0x40 MLOAD DUP1 SWAP2 SUB SWAP1 KECCAK256 PUSH1 0x6 ADD PUSH1 0x2 DUP15 PUSH1 0x40 MLOAD DUP1 DUP3 DUP1 MLOAD SWAP1 PUSH1 0x20 ADD SWAP1 DUP1 DUP4 DUP4 JUMPDEST PUSH1 0x20 DUP4 LT PUSH2 0x2E64 JUMPI DUP1 MLOAD DUP3 MSTORE PUSH1 0x1F NOT SWAP1 SWAP3 ADD SWAP2 PUSH1 0x20 SWAP2 DUP3 ADD SWAP2 ADD PUSH2 0x2E45 JUMP JUMPDEST MLOAD DUP2 MLOAD PUSH1 0x0 NOT PUSH1 0x20 SWAP5 DUP6 SUB PUSH2 0x100 SWAP1 DUP2 EXP DUP3 ADD SWAP3 DUP4 AND SWAP3 NOT SWAP4 SWAP1 SWAP4 AND SWAP2 SWAP1 SWAP2 OR SWAP1 SWAP3 MSTORE SWAP5 SWAP1 SWAP3 ADD SWAP7 DUP8 MSTORE PUSH1 0x40 DUP1 MLOAD SWAP8 DUP9 SWAP1 SUB DUP3 ADD DUP9 KECCAK256 DUP13 SLOAD PUSH1 0x1F PUSH1 0x2 PUSH1 0x1 DUP4 AND ISZERO SWAP1 SWAP9 MUL SWAP1 SWAP6 ADD AND SWAP6 SWAP1 SWAP6 DIV SWAP3 DUP4 ADD DUP3 SWAP1 DIV DUP3 MUL DUP9 ADD DUP3 ADD SWAP1 MSTORE DUP2 DUP8 MSTORE PUSH1 0x8 SWAP1 SWAP4 ADD SWAP6 SWAP5 POP DUP10 SWAP4 POP SWAP2 DUP5 ADD SWAP1 POP DUP3 DUP3 DUP1 ISZERO PUSH2 0x2F20 JUMPI DUP1 PUSH1 0x1F LT PUSH2 0x2EF5 JUMPI PUSH2 0x100 DUP1 DUP4 SLOAD DIV MUL DUP4 MSTORE SWAP2 PUSH1 0x20 ADD SWAP2 PUSH2 0x2F20 JUMP JUMPDEST DUP3 ADD SWAP2 SWAP1 PUSH1 0x0 MSTORE PUSH1 0x20 PUSH1 0x0 KECCAK256 SWAP1 JUMPDEST DUP2 SLOAD DUP2 MSTORE SWAP1 PUSH1 0x1 ADD SWAP1 PUSH1 0x20 ADD DUP1 DUP4 GT PUSH2 0x2F03 JUMPI DUP3 SWAP1 SUB PUSH1 0x1F AND DUP3 ADD SWAP2 JUMPDEST POP POP DUP8 SLOAD PUSH1 0x40 DUP1 MLOAD PUSH1 0x20 PUSH1 0x2 PUSH1 0x1 DUP6 AND ISZERO PUSH2 0x100 MUL PUSH1 0x0 NOT ADD SWAP1 SWAP5 AND SWAP4 SWAP1 SWAP4 DIV PUSH1 0x1F DUP2 ADD DUP5 SWAP1 DIV DUP5 MUL DUP3 ADD DUP5 ADD SWAP1 SWAP3 MSTORE DUP2 DUP2 MSTORE SWAP6 SWAP11 POP DUP10 SWAP5 POP SWAP3 POP DUP5 ADD SWAP1 POP DUP3 DUP3 DUP1 ISZERO PUSH2 0x2FAE JUMPI DUP1 PUSH1 0x1F LT PUSH2 0x2F83 JUMPI PUSH2 0x100 DUP1 DUP4 SLOAD DIV MUL DUP4 MSTORE SWAP2 PUSH1 0x20 ADD SWAP2 PUSH2 0x2FAE JUMP JUMPDEST DUP3 ADD SWAP2 SWAP1 PUSH1 0x0 MSTORE PUSH1 0x20 PUSH1 0x0 KECCAK256 SWAP1 JUMPDEST DUP2 SLOAD DUP2 MSTORE SWAP1 PUSH1 0x1 ADD SWAP1 PUSH1 0x20 ADD DUP1 DUP4 GT PUSH2 0x2F91 JUMPI DUP3 SWAP1 SUB PUSH1 0x1F AND DUP3 ADD SWAP2 JUMPDEST POP POP DUP6 SLOAD PUSH1 0x40 DUP1 MLOAD PUSH1 0x20 PUSH1 0x2 PUSH1 0x1 DUP6 AND ISZERO PUSH2 0x100 MUL PUSH1 0x0 NOT ADD SWAP1 SWAP5 AND SWAP4 SWAP1 SWAP4 DIV PUSH1 0x1F DUP2 ADD DUP5 SWAP1 DIV DUP5 MUL DUP3 ADD DUP5 ADD SWAP1 SWAP3 MSTORE DUP2 DUP2 MSTORE SWAP6 SWAP10 POP DUP8 SWAP5 POP SWAP3 POP DUP5 ADD SWAP1 POP DUP3 DUP3 DUP1 ISZERO PUSH2 0x303C JUMPI DUP1 PUSH1 0x1F LT PUSH2 0x3011 JUMPI PUSH2 0x100 DUP1 DUP4 SLOAD DIV MUL DUP4 MSTORE SWAP2 PUSH1 0x20 ADD SWAP2 PUSH2 0x303C JUMP JUMPDEST DUP3 ADD SWAP2 SWAP1 PUSH1 0x0 MSTORE PUSH1 0x20 PUSH1 0x0 KECCAK256 SWAP1 JUMPDEST DUP2 SLOAD DUP2 MSTORE SWAP1 PUSH1 0x1 ADD SWAP1 PUSH1 0x20 ADD DUP1 DUP4 GT PUSH2 0x301F JUMPI DUP3 SWAP1 SUB PUSH1 0x1F AND DUP3 ADD SWAP2 JUMPDEST POP POP DUP5 SLOAD PUSH1 0x40 DUP1 MLOAD PUSH1 0x20 PUSH1 0x2 PUSH1 0x1 DUP6 AND ISZERO PUSH2 0x100 MUL PUSH1 0x0 NOT ADD SWAP1 SWAP5 AND SWAP4 SWAP1 SWAP4 DIV PUSH1 0x1F DUP2 ADD DUP5 SWAP1 DIV DUP5 MUL DUP3 ADD DUP5 ADD SWAP1 SWAP3 MSTORE DUP2 DUP2 MSTORE SWAP6 SWAP8 POP DUP7 SWAP5 POP SWAP3 POP DUP5 ADD SWAP1 POP DUP3 DUP3 DUP1 ISZERO PUSH2 0x30CA JUMPI DUP1 PUSH1 0x1F LT PUSH2 0x309F JUMPI PUSH2 0x100 DUP1 DUP4 SLOAD DIV MUL DUP4 MSTORE SWAP2 PUSH1 0x20 ADD SWAP2 PUSH2 0x30CA JUMP JUMPDEST DUP3 ADD SWAP2 SWAP1 PUSH1 0x0 MSTORE PUSH1 0x20 PUSH1 0x0 KECCAK256 SWAP1 JUMPDEST DUP2 SLOAD DUP2 MSTORE SWAP1 PUSH1 0x1 ADD SWAP1 PUSH1 0x20 ADD DUP1 DUP4 GT PUSH2 0x30AD JUMPI DUP3 SWAP1 SUB PUSH1 0x1F AND DUP3 ADD SWAP2 JUMPDEST POP POP POP POP POP SWAP1 POP SWAP7 POP SWAP7 POP SWAP7 POP SWAP7 POP SWAP7 POP SWAP7 POP SWAP7 POP SWAP2 SWAP4 SWAP6 SWAP8 SWAP1 SWAP3 SWAP5 SWAP7 POP JUMP JUMPDEST CALLER PUSH1 0x1 PUSH1 0x1 PUSH1 0xA0 SHL SUB DUP9 AND EQ ISZERO PUSH2 0x3132 JUMPI PUSH1 0x40 MLOAD PUSH3 0x461BCD PUSH1 0xE5 SHL DUP2 MSTORE PUSH1 0x4 ADD DUP1 DUP1 PUSH1 0x20 ADD DUP3 DUP2 SUB DUP3 MSTORE PUSH1 0x2F DUP2 MSTORE PUSH1 0x20 ADD DUP1 PUSH2 0x3BBE PUSH1 0x2F SWAP2 CODECOPY PUSH1 0x40 ADD SWAP2 POP POP PUSH1 0x40 MLOAD DUP1 SWAP2 SUB SWAP1 REVERT JUMPDEST DUP7 PUSH1 0x2 DUP10 PUSH1 0x40 MLOAD DUP1 DUP3 DUP1 MLOAD SWAP1 PUSH1 0x20 ADD SWAP1 DUP1 DUP4 DUP4 JUMPDEST PUSH1 0x20 DUP4 LT PUSH2 0x3165 JUMPI DUP1 MLOAD DUP3 MSTORE PUSH1 0x1F NOT SWAP1 SWAP3 ADD SWAP2 PUSH1 0x20 SWAP2 DUP3 ADD SWAP2 ADD PUSH2 0x3146 JUMP JUMPDEST MLOAD DUP2 MLOAD PUSH1 0x20 SWAP4 DUP5 SUB PUSH2 0x100 EXP PUSH1 0x0 NOT ADD DUP1 NOT SWAP1 SWAP3 AND SWAP2 AND OR SWAP1 MSTORE SWAP3 ADD SWAP5 DUP6 MSTORE POP PUSH1 0x40 MLOAD SWAP4 DUP5 SWAP1 SUB DUP2 ADD DUP5 KECCAK256 PUSH1 0x1 ADD DUP1 SLOAD PUSH1 0x1 PUSH1 0x1 PUSH1 0xA0 SHL SUB NOT AND PUSH1 0x1 PUSH1 0x1 PUSH1 0xA0 SHL SUB SWAP7 SWAP1 SWAP7 AND SWAP6 SWAP1 SWAP6 OR SWAP1 SWAP5 SSTORE POP POP DUP10 MLOAD DUP9 SWAP3 PUSH1 0x2 SWAP3 DUP13 SWAP3 SWAP1 SWAP2 DUP3 SWAP2 SWAP1 DUP5 ADD SWAP1 DUP1 DUP4 DUP4 JUMPDEST PUSH1 0x20 DUP4 LT PUSH2 0x31E8 JUMPI DUP1 MLOAD DUP3 MSTORE PUSH1 0x1F NOT SWAP1 SWAP3 ADD SWAP2 PUSH1 0x20 SWAP2 DUP3 ADD SWAP2 ADD PUSH2 0x31C9 JUMP JUMPDEST MLOAD DUP2 MLOAD PUSH1 0x20 SWAP4 DUP5 SUB PUSH2 0x100 EXP PUSH1 0x0 NOT ADD DUP1 NOT SWAP1 SWAP3 AND SWAP2 AND OR SWAP1 MSTORE SWAP3 ADD SWAP5 DUP6 MSTORE POP PUSH1 0x40 MLOAD SWAP4 DUP5 SWAP1 SUB DUP2 ADD DUP5 KECCAK256 PUSH1 0x2 SWAP1 DUP2 ADD DUP1 SLOAD PUSH1 0x1 PUSH1 0x1 PUSH1 0xA0 SHL SUB NOT AND PUSH1 0x1 PUSH1 0x1 PUSH1 0xA0 SHL SUB SWAP8 SWAP1 SWAP8 AND SWAP7 SWAP1 SWAP7 OR SWAP1 SWAP6 SSTORE DUP13 MLOAD DUP11 SWAP6 SWAP5 DUP15 SWAP5 POP SWAP3 POP DUP3 SWAP2 DUP5 ADD SWAP1 DUP1 DUP4 DUP4 JUMPDEST PUSH1 0x20 DUP4 LT PUSH2 0x3269 JUMPI DUP1 MLOAD DUP3 MSTORE PUSH1 0x1F NOT SWAP1 SWAP3 ADD SWAP2 PUSH1 0x20 SWAP2 DUP3 ADD SWAP2 ADD PUSH2 0x324A JUMP JUMPDEST MLOAD DUP2 MLOAD PUSH1 0x20 SWAP4 DUP5 SUB PUSH2 0x100 EXP PUSH1 0x0 NOT ADD DUP1 NOT SWAP1 SWAP3 AND SWAP2 AND OR SWAP1 MSTORE SWAP3 ADD SWAP5 DUP6 MSTORE POP PUSH1 0x40 MLOAD SWAP4 DUP5 SWAP1 SUB DUP2 ADD SWAP1 SWAP4 KECCAK256 DUP5 MLOAD PUSH2 0x32AE SWAP6 PUSH1 0x3 SWAP1 SWAP3 ADD SWAP5 SWAP2 SWAP1 SWAP2 ADD SWAP3 POP SWAP1 POP PUSH2 0x3B25 JUMP JUMPDEST POP DUP4 PUSH1 0x2 DUP10 PUSH1 0x40 MLOAD DUP1 DUP3 DUP1 MLOAD SWAP1 PUSH1 0x20 ADD SWAP1 DUP1 DUP4 DUP4 JUMPDEST PUSH1 0x20 DUP4 LT PUSH2 0x32E2 JUMPI DUP1 MLOAD DUP3 MSTORE PUSH1 0x1F NOT SWAP1 SWAP3 ADD SWAP2 PUSH1 0x20 SWAP2 DUP3 ADD SWAP2 ADD PUSH2 0x32C3 JUMP JUMPDEST MLOAD DUP2 MLOAD PUSH1 0x20 SWAP4 DUP5 SUB PUSH2 0x100 EXP PUSH1 0x0 NOT ADD DUP1 NOT SWAP1 SWAP3 AND SWAP2 AND OR SWAP1 MSTORE SWAP3 ADD SWAP5 DUP6 MSTORE POP PUSH1 0x40 MLOAD SWAP4 DUP5 SWAP1 SUB DUP2 ADD SWAP1 SWAP4 KECCAK256 DUP5 MLOAD PUSH2 0x3327 SWAP6 PUSH1 0x4 SWAP1 SWAP3 ADD SWAP5 SWAP2 SWAP1 SWAP2 ADD SWAP3 POP SWAP1 POP PUSH2 0x3B25 JUMP JUMPDEST POP TIMESTAMP PUSH1 0x2 DUP10 PUSH1 0x40 MLOAD DUP1 DUP3 DUP1 MLOAD SWAP1 PUSH1 0x20 ADD SWAP1 DUP1 DUP4 DUP4 JUMPDEST PUSH1 0x20 DUP4 LT PUSH2 0x335B JUMPI DUP1 MLOAD DUP3 MSTORE PUSH1 0x1F NOT SWAP1 SWAP3 ADD SWAP2 PUSH1 0x20 SWAP2 DUP3 ADD SWAP2 ADD PUSH2 0x333C JUMP JUMPDEST MLOAD DUP2 MLOAD PUSH1 0x20 SWAP4 DUP5 SUB PUSH2 0x100 EXP PUSH1 0x0 NOT ADD DUP1 NOT SWAP1 SWAP3 AND SWAP2 AND OR SWAP1 MSTORE SWAP3 ADD SWAP5 DUP6 MSTORE POP PUSH1 0x40 MLOAD SWAP4 DUP5 SWAP1 SUB DUP2 ADD DUP5 KECCAK256 PUSH1 0x5 ADD SWAP5 SWAP1 SWAP5 SSTORE POP POP DUP10 MLOAD DUP6 SWAP3 PUSH1 0x2 SWAP3 DUP13 SWAP3 SWAP1 SWAP2 DUP3 SWAP2 SWAP1 DUP5 ADD SWAP1 DUP1 DUP4 DUP4 JUMPDEST PUSH1 0x20 DUP4 LT PUSH2 0x33C3 JUMPI DUP1 MLOAD DUP3 MSTORE PUSH1 0x1F NOT SWAP1 SWAP3 ADD SWAP2 PUSH1 0x20 SWAP2 DUP3 ADD SWAP2 ADD PUSH2 0x33A4 JUMP JUMPDEST MLOAD DUP2 MLOAD PUSH1 0x20 SWAP4 DUP5 SUB PUSH2 0x100 EXP PUSH1 0x0 NOT ADD DUP1 NOT SWAP1 SWAP3 AND SWAP2 AND OR SWAP1 MSTORE SWAP3 ADD SWAP5 DUP6 MSTORE POP PUSH1 0x40 MLOAD SWAP4 DUP5 SWAP1 SUB DUP2 ADD SWAP1 SWAP4 KECCAK256 DUP5 MLOAD PUSH2 0x3408 SWAP6 PUSH1 0x6 SWAP1 SWAP3 ADD SWAP5 SWAP2 SWAP1 SWAP2 ADD SWAP3 POP SWAP1 POP PUSH2 0x3B25 JUMP JUMPDEST POP DUP2 PUSH1 0x2 DUP10 PUSH1 0x40 MLOAD DUP1 DUP3 DUP1 MLOAD SWAP1 PUSH1 0x20 ADD SWAP1 DUP1 DUP4 DUP4 JUMPDEST PUSH1 0x20 DUP4 LT PUSH2 0x343C JUMPI DUP1 MLOAD DUP3 MSTORE PUSH1 0x1F NOT SWAP1 SWAP3 ADD SWAP2 PUSH1 0x20 SWAP2 DUP3 ADD SWAP2 ADD PUSH2 0x341D JUMP JUMPDEST MLOAD DUP2 MLOAD PUSH1 0x20 SWAP4 DUP5 SUB PUSH2 0x100 EXP PUSH1 0x0 NOT ADD DUP1 NOT SWAP1 SWAP3 AND SWAP2 AND OR SWAP1 MSTORE SWAP3 ADD SWAP5 DUP6 MSTORE POP PUSH1 0x40 MLOAD SWAP4 DUP5 SWAP1 SUB DUP2 ADD SWAP1 SWAP4 KECCAK256 DUP5 MLOAD PUSH2 0x3481 SWAP6 PUSH1 0x9 SWAP1 SWAP3 ADD SWAP5 SWAP2 SWAP1 SWAP2 ADD SWAP3 POP SWAP1 POP PUSH2 0x3B25 JUMP JUMPDEST POP PUSH1 0x0 PUSH1 0x2 DUP10 PUSH1 0x40 MLOAD DUP1 DUP3 DUP1 MLOAD SWAP1 PUSH1 0x20 ADD SWAP1 DUP1 DUP4 DUP4 JUMPDEST PUSH1 0x20 DUP4 LT PUSH2 0x34B6 JUMPI DUP1 MLOAD DUP3 MSTORE PUSH1 0x1F NOT SWAP1 SWAP3 ADD SWAP2 PUSH1 0x20 SWAP2 DUP3 ADD SWAP2 ADD PUSH2 0x3497 JUMP JUMPDEST PUSH1 0x1 DUP4 PUSH1 0x20 SUB PUSH2 0x100 EXP SUB DUP1 NOT DUP3 MLOAD AND DUP2 DUP5 MLOAD AND DUP1 DUP3 OR DUP6 MSTORE POP POP POP POP POP POP SWAP1 POP ADD SWAP2 POP POP SWAP1 DUP2 MSTORE PUSH1 0x20 ADD PUSH1 0x40 MLOAD DUP1 SWAP2 SUB SWAP1 KECCAK256 PUSH1 0x7 ADD PUSH1 0x1 PUSH2 0x100 EXP DUP2 SLOAD DUP2 PUSH1 0xFF MUL NOT AND SWAP1 DUP4 PUSH1 0x7 DUP2 GT ISZERO PUSH2 0x3507 JUMPI INVALID JUMPDEST MUL OR SWAP1 SSTORE POP DUP1 PUSH1 0x2 DUP10 PUSH1 0x40 MLOAD DUP1 DUP3 DUP1 MLOAD SWAP1 PUSH1 0x20 ADD SWAP1 DUP1 DUP4 DUP4 JUMPDEST PUSH1 0x20 DUP4 LT PUSH2 0x353F JUMPI DUP1 MLOAD DUP3 MSTORE PUSH1 0x1F NOT SWAP1 SWAP3 ADD SWAP2 PUSH1 0x20 SWAP2 DUP3 ADD SWAP2 ADD PUSH2 0x3520 JUMP JUMPDEST MLOAD DUP2 MLOAD PUSH1 0x20 SWAP4 DUP5 SUB PUSH2 0x100 EXP PUSH1 0x0 NOT ADD DUP1 NOT SWAP1 SWAP3 AND SWAP2 AND OR SWAP1 MSTORE SWAP3 ADD SWAP5 DUP6 MSTORE POP PUSH1 0x40 MLOAD SWAP4 DUP5 SWAP1 SUB DUP2 ADD SWAP1 SWAP4 KECCAK256 DUP5 MLOAD PUSH2 0x3584 SWAP6 PUSH1 0x8 SWAP1 SWAP3 ADD SWAP5 SWAP2 SWAP1 SWAP2 ADD SWAP3 POP SWAP1 POP PUSH2 0x3B25 JUMP JUMPDEST POP PUSH1 0x0 PUSH1 0x2 DUP10 PUSH1 0x40 MLOAD DUP1 DUP3 DUP1 MLOAD SWAP1 PUSH1 0x20 ADD SWAP1 DUP1 DUP4 DUP4 JUMPDEST PUSH1 0x20 DUP4 LT PUSH2 0x35B9 JUMPI DUP1 MLOAD DUP3 MSTORE PUSH1 0x1F NOT SWAP1 SWAP3 ADD SWAP2 PUSH1 0x20 SWAP2 DUP3 ADD SWAP2 ADD PUSH2 0x359A JUMP JUMPDEST MLOAD DUP2 MLOAD PUSH1 0x20 SWAP4 DUP5 SUB PUSH2 0x100 EXP PUSH1 0x0 NOT ADD DUP1 NOT SWAP1 SWAP3 AND SWAP2 AND OR SWAP1 MSTORE SWAP3 ADD SWAP5 DUP6 MSTORE POP PUSH1 0x40 MLOAD SWAP4 DUP5 SWAP1 SUB ADD SWAP1 SWAP3 KECCAK256 PUSH1 0x7 SWAP1 DUP2 ADD DUP1 SLOAD SWAP1 SWAP4 POP PUSH1 0xFF NOT AND SWAP2 POP PUSH1 0x1 SWAP1 DUP5 SWAP1 DUP2 GT ISZERO PUSH2 0x3602 JUMPI INVALID JUMPDEST MUL OR SWAP1 SSTORE POP PUSH1 0x3 DUP1 SLOAD PUSH1 0x1 DUP2 ADD DUP3 SSTORE PUSH1 0x0 SWAP2 SWAP1 SWAP2 MSTORE DUP9 MLOAD PUSH2 0x364A SWAP2 PUSH32 0xC2575A0E9E593C00F959F8C92F12DB2869C3395A3B0502D05E2516446F71F85B ADD SWAP1 PUSH1 0x20 DUP12 ADD SWAP1 PUSH2 0x3B25 JUMP JUMPDEST POP DUP7 PUSH1 0x1 PUSH1 0x1 PUSH1 0xA0 SHL SUB AND DUP7 PUSH1 0x1 PUSH1 0x1 PUSH1 0xA0 SHL SUB AND PUSH32 0x1020E6CB9DE82F5F439A5729E80382EA318C4A2492E35FD7949F65FE92337378 DUP11 PUSH1 0x40 MLOAD DUP1 DUP1 PUSH1 0x20 ADD DUP3 DUP2 SUB DUP3 MSTORE DUP4 DUP2 DUP2 MLOAD DUP2 MSTORE PUSH1 0x20 ADD SWAP2 POP DUP1 MLOAD SWAP1 PUSH1 0x20 ADD SWAP1 DUP1 DUP4 DUP4 PUSH1 0x0 JUMPDEST DUP4 DUP2 LT ISZERO PUSH2 0x36BE JUMPI DUP2 DUP2 ADD MLOAD DUP4 DUP3 ADD MSTORE PUSH1 0x20 ADD PUSH2 0x36A6 JUMP JUMPDEST POP POP POP POP SWAP1 POP SWAP1 DUP2 ADD SWAP1 PUSH1 0x1F AND DUP1 ISZERO PUSH2 0x36EB JUMPI DUP1 DUP3 SUB DUP1 MLOAD PUSH1 0x1 DUP4 PUSH1 0x20 SUB PUSH2 0x100 EXP SUB NOT AND DUP2 MSTORE PUSH1 0x20 ADD SWAP2 POP JUMPDEST POP SWAP3 POP POP POP PUSH1 0x40 MLOAD DUP1 SWAP2 SUB SWAP1 LOG3 POP POP POP POP POP POP POP POP JUMP JUMPDEST POP PUSH1 0x5 SLOAD CALLER SWAP1 PUSH1 0x0 SWAP1 DUP1 ISZERO PUSH2 0x398E JUMPI PUSH1 0x1 PUSH1 0x1 PUSH1 0xA0 SHL SUB DUP4 AND PUSH2 0x3764 JUMPI PUSH1 0x40 DUP1 MLOAD PUSH3 0x461BCD PUSH1 0xE5 SHL DUP2 MSTORE PUSH1 0x20 PUSH1 0x4 DUP3 ADD MSTORE PUSH1 0x15 PUSH1 0x24 DUP3 ADD MSTORE PUSH21 0x417070726F76657249442072657175697265642021 PUSH1 0x58 SHL PUSH1 0x44 DUP3 ADD MSTORE SWAP1 MLOAD SWAP1 DUP2 SWAP1 SUB PUSH1 0x64 ADD SWAP1 REVERT JUMPDEST PUSH1 0x0 NOT DUP2 ADD JUMPDEST PUSH1 0x5 DUP2 DUP2 SLOAD DUP2 LT PUSH2 0x3777 JUMPI INVALID JUMPDEST PUSH1 0x0 SWAP2 DUP3 MSTORE PUSH1 0x20 SWAP2 DUP3 SWAP1 KECCAK256 ADD DUP1 SLOAD PUSH1 0x40 DUP1 MLOAD PUSH1 0x1F PUSH1 0x2 PUSH1 0x0 NOT PUSH2 0x100 PUSH1 0x1 DUP8 AND ISZERO MUL ADD SWAP1 SWAP5 AND SWAP4 SWAP1 SWAP4 DIV SWAP3 DUP4 ADD DUP6 SWAP1 DIV DUP6 MUL DUP2 ADD DUP6 ADD SWAP1 SWAP2 MSTORE DUP2 DUP2 MSTORE SWAP3 DUP4 ADD DUP3 DUP3 DUP1 ISZERO PUSH2 0x3805 JUMPI DUP1 PUSH1 0x1F LT PUSH2 0x37DA JUMPI PUSH2 0x100 DUP1 DUP4 SLOAD DIV MUL DUP4 MSTORE SWAP2 PUSH1 0x20 ADD SWAP2 PUSH2 0x3805 JUMP JUMPDEST DUP3 ADD SWAP2 SWAP1 PUSH1 0x0 MSTORE PUSH1 0x20 PUSH1 0x0 KECCAK256 SWAP1 JUMPDEST DUP2 SLOAD DUP2 MSTORE SWAP1 PUSH1 0x1 ADD SWAP1 PUSH1 0x20 ADD DUP1 DUP4 GT PUSH2 0x37E8 JUMPI DUP3 SWAP1 SUB PUSH1 0x1F AND DUP3 ADD SWAP2 JUMPDEST POP POP POP POP POP SWAP5 POP PUSH1 0x4 DUP6 PUSH1 0x40 MLOAD DUP1 DUP3 DUP1 MLOAD SWAP1 PUSH1 0x20 ADD SWAP1 DUP1 DUP4 DUP4 JUMPDEST PUSH1 0x20 DUP4 LT PUSH2 0x383E JUMPI DUP1 MLOAD DUP3 MSTORE PUSH1 0x1F NOT SWAP1 SWAP3 ADD SWAP2 PUSH1 0x20 SWAP2 DUP3 ADD SWAP2 ADD PUSH2 0x381F JUMP JUMPDEST MLOAD DUP2 MLOAD PUSH1 0x20 SWAP4 DUP5 SUB PUSH2 0x100 EXP PUSH1 0x0 NOT ADD DUP1 NOT SWAP1 SWAP3 AND SWAP2 AND OR SWAP1 MSTORE SWAP3 ADD SWAP5 DUP6 MSTORE POP PUSH1 0x40 MLOAD SWAP4 DUP5 SWAP1 SUB ADD SWAP1 SWAP3 KECCAK256 PUSH1 0x5 ADD SLOAD TIMESTAMP LT SWAP2 POP PUSH2 0x3979 SWAP1 POP JUMPI PUSH1 0x1 PUSH1 0x4 DUP7 PUSH1 0x40 MLOAD DUP1 DUP3 DUP1 MLOAD SWAP1 PUSH1 0x20 ADD SWAP1 DUP1 DUP4 DUP4 JUMPDEST PUSH1 0x20 DUP4 LT PUSH2 0x38AB JUMPI DUP1 MLOAD DUP3 MSTORE PUSH1 0x1F NOT SWAP1 SWAP3 ADD SWAP2 PUSH1 0x20 SWAP2 DUP3 ADD SWAP2 ADD PUSH2 0x388C JUMP JUMPDEST MLOAD DUP2 MLOAD PUSH1 0x20 SWAP4 DUP5 SUB PUSH2 0x100 EXP PUSH1 0x0 NOT ADD DUP1 NOT SWAP1 SWAP3 AND SWAP2 AND OR SWAP1 MSTORE SWAP3 ADD SWAP5 DUP6 MSTORE POP PUSH1 0x40 MLOAD SWAP4 DUP5 SWAP1 SUB DUP2 ADD DUP5 KECCAK256 PUSH1 0x8 ADD DUP1 SLOAD PUSH1 0xFF PUSH1 0xB0 SHL NOT AND PUSH1 0x1 PUSH1 0xB0 SHL SWAP7 ISZERO ISZERO SWAP7 SWAP1 SWAP7 MUL SWAP6 SWAP1 SWAP6 OR SWAP1 SWAP5 SSTORE POP POP DUP7 MLOAD PUSH1 0x0 SWAP3 PUSH1 0x4 SWAP3 DUP10 SWAP3 SWAP1 SWAP2 DUP3 SWAP2 SWAP1 DUP5 ADD SWAP1 DUP1 DUP4 DUP4 JUMPDEST PUSH1 0x20 DUP4 LT PUSH2 0x392C JUMPI DUP1 MLOAD DUP3 MSTORE PUSH1 0x1F NOT SWAP1 SWAP3 ADD SWAP2 PUSH1 0x20 SWAP2 DUP3 ADD SWAP2 ADD PUSH2 0x390D JUMP JUMPDEST MLOAD DUP2 MLOAD PUSH1 0x20 SWAP4 DUP5 SUB PUSH2 0x100 EXP PUSH1 0x0 NOT ADD DUP1 NOT SWAP1 SWAP3 AND SWAP2 AND OR SWAP1 MSTORE SWAP3 ADD SWAP5 DUP6 MSTORE POP PUSH1 0x40 MLOAD SWAP4 DUP5 SWAP1 SUB ADD SWAP1 SWAP3 KECCAK256 PUSH1 0x8 ADD DUP1 SLOAD PUSH1 0xFF PUSH1 0xA8 SHL NOT AND PUSH1 0x1 PUSH1 0xA8 SHL SWAP5 ISZERO ISZERO SWAP5 SWAP1 SWAP5 MUL SWAP4 SWAP1 SWAP4 OR SWAP1 SWAP3 SSTORE POP POP JUMPDEST DUP1 PUSH2 0x3983 JUMPI PUSH2 0x398C JUMP JUMPDEST PUSH1 0x0 NOT ADD PUSH2 0x376A JUMP JUMPDEST POP JUMPDEST DUP3 PUSH1 0x1 PUSH1 0x1 PUSH1 0xA0 SHL SUB AND PUSH32 0x2C3E25FFB6290F0DC5BFC62DD89B060B8A0ED25F97FBDC1420481131F01A73FC DUP6 PUSH1 0x4 DUP8 PUSH1 0x40 MLOAD DUP1 DUP3 DUP1 MLOAD SWAP1 PUSH1 0x20 ADD SWAP1 DUP1 DUP4 DUP4 JUMPDEST PUSH1 0x20 DUP4 LT PUSH2 0x39EC JUMPI DUP1 MLOAD DUP3 MSTORE PUSH1 0x1F NOT SWAP1 SWAP3 ADD SWAP2 PUSH1 0x20 SWAP2 DUP3 ADD SWAP2 ADD PUSH2 0x39CD JUMP JUMPDEST MLOAD DUP2 MLOAD PUSH1 0x20 SWAP4 DUP5 SUB PUSH2 0x100 EXP PUSH1 0x0 NOT ADD DUP1 NOT SWAP1 SWAP3 AND SWAP2 AND OR SWAP1 MSTORE SWAP3 ADD SWAP5 DUP6 MSTORE POP PUSH1 0x40 MLOAD SWAP4 DUP5 SWAP1 SUB DUP2 ADD DUP5 KECCAK256 PUSH1 0x8 ADD SLOAD DUP12 MLOAD PUSH1 0x1 PUSH1 0xA8 SHL SWAP1 SWAP2 DIV PUSH1 0xFF AND SWAP5 PUSH1 0x4 SWAP5 POP DUP13 SWAP4 POP SWAP2 DUP3 SWAP2 SWAP1 DUP5 ADD SWAP1 DUP1 DUP4 DUP4 JUMPDEST PUSH1 0x20 DUP4 LT PUSH2 0x3A5A JUMPI DUP1 MLOAD DUP3 MSTORE PUSH1 0x1F NOT SWAP1 SWAP3 ADD SWAP2 PUSH1 0x20 SWAP2 DUP3 ADD SWAP2 ADD PUSH2 0x3A3B JUMP JUMPDEST MLOAD DUP2 MLOAD PUSH1 0x20 SWAP4 DUP5 SUB PUSH2 0x100 EXP PUSH1 0x0 NOT ADD DUP1 NOT SWAP1 SWAP3 AND SWAP2 AND OR SWAP1 MSTORE SWAP3 ADD SWAP5 DUP6 MSTORE POP PUSH1 0x40 DUP1 MLOAD SWAP5 DUP6 SWAP1 SUB DUP3 ADD DUP6 KECCAK256 PUSH1 0x8 ADD SLOAD DUP7 ISZERO ISZERO DUP7 DUP5 ADD MSTORE PUSH1 0x1 PUSH1 0xB0 SHL SWAP1 DIV PUSH1 0xFF AND DUP1 ISZERO ISZERO SWAP2 DUP7 ADD SWAP2 SWAP1 SWAP2 MSTORE PUSH1 0x60 DUP1 DUP7 MSTORE DUP8 MLOAD SWAP1 DUP7 ADD MSTORE DUP7 MLOAD SWAP1 SWAP5 SWAP4 POP DUP4 SWAP3 POP PUSH1 0x80 DUP4 ADD SWAP2 DUP8 ADD SWAP1 DUP1 DUP4 DUP4 PUSH1 0x0 JUMPDEST DUP4 DUP2 LT ISZERO PUSH2 0x3ADF JUMPI DUP2 DUP2 ADD MLOAD DUP4 DUP3 ADD MSTORE PUSH1 0x20 ADD PUSH2 0x3AC7 JUMP JUMPDEST POP POP POP POP SWAP1 POP SWAP1 DUP2 ADD SWAP1 PUSH1 0x1F AND DUP1 ISZERO PUSH2 0x3B0C JUMPI DUP1 DUP3 SUB DUP1 MLOAD PUSH1 0x1 DUP4 PUSH1 0x20 SUB PUSH2 0x100 EXP SUB NOT AND DUP2 MSTORE PUSH1 0x20 ADD SWAP2 POP JUMPDEST POP SWAP5 POP POP POP POP POP PUSH1 0x40 MLOAD DUP1 SWAP2 SUB SWAP1 LOG2 POP PUSH1 0x1 SWAP4 SWAP3 POP POP POP JUMP JUMPDEST DUP3 DUP1 SLOAD PUSH1 0x1 DUP2 PUSH1 0x1 AND ISZERO PUSH2 0x100 MUL SUB AND PUSH1 0x2 SWAP1 DIV SWAP1 PUSH1 0x0 MSTORE PUSH1 0x20 PUSH1 0x0 KECCAK256 SWAP1 PUSH1 0x1F ADD PUSH1 0x20 SWAP1 DIV DUP2 ADD SWAP3 DUP3 PUSH1 0x1F LT PUSH2 0x3B66 JUMPI DUP1 MLOAD PUSH1 0xFF NOT AND DUP4 DUP1 ADD OR DUP6 SSTORE PUSH2 0x3B93 JUMP JUMPDEST DUP3 DUP1 ADD PUSH1 0x1 ADD DUP6 SSTORE DUP3 ISZERO PUSH2 0x3B93 JUMPI SWAP2 DUP3 ADD JUMPDEST DUP3 DUP2 GT ISZERO PUSH2 0x3B93 JUMPI DUP3 MLOAD DUP3 SSTORE SWAP2 PUSH1 0x20 ADD SWAP2 SWAP1 PUSH1 0x1 ADD SWAP1 PUSH2 0x3B78 JUMP JUMPDEST POP PUSH2 0x3B9F SWAP3 SWAP2 POP PUSH2 0x3BA3 JUMP JUMPDEST POP SWAP1 JUMP JUMPDEST PUSH2 0x2640 SWAP2 SWAP1 JUMPDEST DUP1 DUP3 GT ISZERO PUSH2 0x3B9F JUMPI PUSH1 0x0 DUP2 SSTORE PUSH1 0x1 ADD PUSH2 0x3BA9 JUMP INVALID 0x4F PUSH15 0x6C79204461746120436F6E73756D65 PUSH19 0x732063616E20706572666F726D207468697320 PUSH16 0x7065726174696F6E21426F7468207369 PUSH8 0x6E61747572657320 PUSH7 0x726F6D20445320 PUSH2 0x6E64 KECCAK256 DIFFICULTY NUMBER KECCAK256 PUSH2 0x7265 KECCAK256 PUSH19 0x6571756972656421A26469706673582212203A INVALID 0xDA 0xEC SWAP10 NOT CREATE EXTCODESIZE 0xB5 0x4E 0x26 PUSH26 0xC09059C5D66DCA6281BF6E5F82E6CDA4360A1D6A64736F6C6343 STOP MOD MOD STOP CALLER "
		},
		"gasEstimates": {
			"creation": {
				"codeDepositCost": "3087600",
				"executionCost": "3404",
				"totalCost": "3091004"
			},
			"external": {
				"ConsentAgreementList(uint256)": "infinite",
				"ConsentRequestList(uint256)": "infinite",
				"UsageOperationList(uint256)": "infinite",
				"countConsentAgreement()": "1020",
				"countConsentRequest()": "1044",
				"getConsentAgreementInfo(string)": "infinite",
				"getConsentRequestInfo(string)": "infinite",
				"isConsentAgreementExpired(string)": "infinite",
				"isConsentAgreementValid(string)": "infinite",
				"isExpiredConsentAgreement(string,address)": "infinite",
				"newConsentAgreement(string,string,string,string,uint256)": "infinite",
				"newConsentRequest(string,address,address,string,string,string,string,string)": "infinite",
				"setUsageOperations(string,string,address,bool,bool,bool,bool,bool,bool)": "infinite",
				"updateConsentAgreement(string,string,string,string,uint256)": "infinite"
			}
		},
		"methodIdentifiers": {
			"ConsentAgreementList(uint256)": "7d9776b1",
			"ConsentRequestList(uint256)": "7b1aa41f",
			"UsageOperationList(uint256)": "64c4aac4",
			"countConsentAgreement()": "d0c3d816",
			"countConsentRequest()": "a7a88de6",
			"getConsentAgreementInfo(string)": "3946c0d7",
			"getConsentRequestInfo(string)": "d6b8674b",
			"isConsentAgreementExpired(string)": "58b50c63",
			"isConsentAgreementValid(string)": "6ad4d0e9",
			"isExpiredConsentAgreement(string,address)": "ea639258",
			"newConsentAgreement(string,string,string,string,uint256)": "9d179e5c",
			"newConsentRequest(string,address,address,string,string,string,string,string)": "e21b5bf1",
			"setUsageOperations(string,string,address,bool,bool,bool,bool,bool,bool)": "c7b41845",
			"updateConsentAgreement(string,string,string,string,uint256)": "4852434b"
		}
	},
	"abi": [
		{
			"anonymous": false,
			"inputs": [
				{
					"indexed": false,
					"internalType": "string",
					"name": "_agrNum",
					"type": "string"
				},
				{
					"indexed": false,
					"internalType": "bool",
					"name": "_isValid",
					"type": "bool"
				},
				{
					"indexed": false,
					"internalType": "bool",
					"name": "_isExpired",
					"type": "bool"
				},
				{
					"indexed": true,
					"internalType": "address",
					"name": "approvedBy",
					"type": "address"
				}
			],
			"name": "consentAgreementExpired",
			"type": "event"
		},
		{
			"anonymous": false,
			"inputs": [
				{
					"indexed": false,
					"internalType": "string",
					"name": "_agrNum",
					"type": "string"
				},
				{
					"indexed": false,
					"internalType": "string",
					"name": "_consentReqID",
					"type": "string"
				},
				{
					"indexed": false,
					"internalType": "bool",
					"name": "_isValid",
					"type": "bool"
				},
				{
					"indexed": true,
					"internalType": "address",
					"name": "agreedBy",
					"type": "address"
				}
			],
			"name": "consentAgreementMade",
			"type": "event"
		},
		{
			"anonymous": false,
			"inputs": [
				{
					"indexed": false,
					"internalType": "string",
					"name": "_agrNum",
					"type": "string"
				},
				{
					"indexed": false,
					"internalType": "uint256",
					"name": "_lastUpdate",
					"type": "uint256"
				},
				{
					"indexed": true,
					"internalType": "address",
					"name": "updatedBy",
					"type": "address"
				}
			],
			"name": "consentAgreementUpdated",
			"type": "event"
		},
		{
			"anonymous": false,
			"inputs": [
				{
					"indexed": false,
					"internalType": "string",
					"name": "_consentReqID",
					"type": "string"
				},
				{
					"indexed": true,
					"internalType": "address",
					"name": "_requestedBy",
					"type": "address"
				},
				{
					"indexed": true,
					"internalType": "address",
					"name": "_dataSubjectID",
					"type": "address"
				}
			],
			"name": "consentRequestCreated",
			"type": "event"
		},
		{
			"anonymous": false,
			"inputs": [
				{
					"indexed": false,
					"internalType": "string",
					"name": "_uOpCode",
					"type": "string"
				},
				{
					"indexed": false,
					"internalType": "string",
					"name": "_uOpDescription",
					"type": "string"
				},
				{
					"indexed": true,
					"internalType": "address",
					"name": "_setBy",
					"type": "address"
				}
			],
			"name": "usageOperationSet",
			"type": "event"
		},
		{
			"inputs": [
				{
					"internalType": "uint256",
					"name": "",
					"type": "uint256"
				}
			],
			"name": "ConsentAgreementList",
			"outputs": [
				{
					"internalType": "string",
					"name": "",
					"type": "string"
				}
			],
			"stateMutability": "view",
			"type": "function"
		},
		{
			"inputs": [
				{
					"internalType": "uint256",
					"name": "",
					"type": "uint256"
				}
			],
			"name": "ConsentRequestList",
			"outputs": [
				{
					"internalType": "string",
					"name": "",
					"type": "string"
				}
			],
			"stateMutability": "view",
			"type": "function"
		},
		{
			"inputs": [
				{
					"internalType": "uint256",
					"name": "",
					"type": "uint256"
				}
			],
			"name": "UsageOperationList",
			"outputs": [
				{
					"internalType": "string",
					"name": "",
					"type": "string"
				}
			],
			"stateMutability": "view",
			"type": "function"
		},
		{
			"inputs": [],
			"name": "countConsentAgreement",
			"outputs": [
				{
					"internalType": "uint256",
					"name": "",
					"type": "uint256"
				}
			],
			"stateMutability": "view",
			"type": "function"
		},
		{
			"inputs": [],
			"name": "countConsentRequest",
			"outputs": [
				{
					"internalType": "uint256",
					"name": "",
					"type": "uint256"
				}
			],
			"stateMutability": "view",
			"type": "function"
		},
		{
			"inputs": [
				{
					"internalType": "string",
					"name": "_agrNum",
					"type": "string"
				}
			],
			"name": "getConsentAgreementInfo",
			"outputs": [
				{
					"internalType": "string",
					"name": "",
					"type": "string"
				},
				{
					"internalType": "string",
					"name": "",
					"type": "string"
				},
				{
					"internalType": "string",
					"name": "",
					"type": "string"
				},
				{
					"internalType": "uint256",
					"name": "",
					"type": "uint256"
				},
				{
					"internalType": "uint256",
					"name": "",
					"type": "uint256"
				},
				{
					"internalType": "bool",
					"name": "",
					"type": "bool"
				},
				{
					"internalType": "bool",
					"name": "",
					"type": "bool"
				}
			],
			"stateMutability": "view",
			"type": "function"
		},
		{
			"inputs": [
				{
					"internalType": "string",
					"name": "_consentReqID",
					"type": "string"
				}
			],
			"name": "getConsentRequestInfo",
			"outputs": [
				{
					"internalType": "address",
					"name": "",
					"type": "address"
				},
				{
					"internalType": "address",
					"name": "",
					"type": "address"
				},
				{
					"internalType": "string",
					"name": "",
					"type": "string"
				},
				{
					"internalType": "string",
					"name": "",
					"type": "string"
				},
				{
					"internalType": "uint256",
					"name": "",
					"type": "uint256"
				},
				{
					"internalType": "string",
					"name": "",
					"type": "string"
				},
				{
					"internalType": "string",
					"name": "",
					"type": "string"
				}
			],
			"stateMutability": "view",
			"type": "function"
		},
		{
			"inputs": [
				{
					"internalType": "string",
					"name": "_agrNum",
					"type": "string"
				}
			],
			"name": "isConsentAgreementExpired",
			"outputs": [
				{
					"internalType": "bool",
					"name": "",
					"type": "bool"
				}
			],
			"stateMutability": "view",
			"type": "function"
		},
		{
			"inputs": [
				{
					"internalType": "string",
					"name": "_agrNum",
					"type": "string"
				}
			],
			"name": "isConsentAgreementValid",
			"outputs": [
				{
					"internalType": "bool",
					"name": "",
					"type": "bool"
				}
			],
			"stateMutability": "view",
			"type": "function"
		},
		{
			"inputs": [
				{
					"internalType": "string",
					"name": "_agrNum",
					"type": "string"
				},
				{
					"internalType": "address",
					"name": "approverID",
					"type": "address"
				}
			],
			"name": "isExpiredConsentAgreement",
			"outputs": [
				{
					"internalType": "bool",
					"name": "success",
					"type": "bool"
				}
			],
			"stateMutability": "nonpayable",
			"type": "function"
		},
		{
			"inputs": [
				{
					"internalType": "string",
					"name": "_agrNum",
					"type": "string"
				},
				{
					"internalType": "string",
					"name": "_consentReqID",
					"type": "string"
				},
				{
					"internalType": "string",
					"name": "_dSSignature",
					"type": "string"
				},
				{
					"internalType": "string",
					"name": "_requesterSignature",
					"type": "string"
				},
				{
					"internalType": "uint256",
					"name": "_endDateTime",
					"type": "uint256"
				}
			],
			"name": "newConsentAgreement",
			"outputs": [
				{
					"internalType": "bool",
					"name": "success",
					"type": "bool"
				}
			],
			"stateMutability": "nonpayable",
			"type": "function"
		},
		{
			"inputs": [
				{
					"internalType": "string",
					"name": "_consentReqID",
					"type": "string"
				},
				{
					"internalType": "address",
					"name": "_dataSubjectID",
					"type": "address"
				},
				{
					"internalType": "address",
					"name": "_requestedBy",
					"type": "address"
				},
				{
					"internalType": "string",
					"name": "_dataSetID",
					"type": "string"
				},
				{
					"internalType": "string",
					"name": "_purposeCode",
					"type": "string"
				},
				{
					"internalType": "string",
					"name": "_uOpCode",
					"type": "string"
				},
				{
					"internalType": "string",
					"name": "_contractVersion",
					"type": "string"
				},
				{
					"internalType": "string",
					"name": "_territory",
					"type": "string"
				}
			],
			"name": "newConsentRequest",
			"outputs": [],
			"stateMutability": "nonpayable",
			"type": "function"
		},
		{
			"inputs": [
				{
					"internalType": "string",
					"name": "_uOpCode",
					"type": "string"
				},
				{
					"internalType": "string",
					"name": "_uOpDescription",
					"type": "string"
				},
				{
					"internalType": "address",
					"name": "_setBy",
					"type": "address"
				},
				{
					"internalType": "bool",
					"name": "_isCollect",
					"type": "bool"
				},
				{
					"internalType": "bool",
					"name": "_isStore",
					"type": "bool"
				},
				{
					"internalType": "bool",
					"name": "_isProcess",
					"type": "bool"
				},
				{
					"internalType": "bool",
					"name": "_isDisclose",
					"type": "bool"
				},
				{
					"internalType": "bool",
					"name": "_isErasure",
					"type": "bool"
				},
				{
					"internalType": "bool",
					"name": "_isPublish",
					"type": "bool"
				}
			],
			"name": "setUsageOperations",
			"outputs": [
				{
					"internalType": "bool",
					"name": "success",
					"type": "bool"
				}
			],
			"stateMutability": "nonpayable",
			"type": "function"
		},
		{
			"inputs": [
				{
					"internalType": "string",
					"name": "_agrNum",
					"type": "string"
				},
				{
					"internalType": "string",
					"name": "_consentReqID",
					"type": "string"
				},
				{
					"internalType": "string",
					"name": "_dSSignature",
					"type": "string"
				},
				{
					"internalType": "string",
					"name": "_requesterSignature",
					"type": "string"
				},
				{
					"internalType": "uint256",
					"name": "_endDateTime",
					"type": "uint256"
				}
			],
			"name": "updateConsentAgreement",
			"outputs": [],
			"stateMutability": "nonpayable",
			"type": "function"
		}
	]
}